:020000040000FA
:0400000035EF55F093
:10A9CA0001011E0EEAEC54F01200016EC80E00D00E
:10A9DA00E82EFDD7012EEBEF54F0F4EF54F01200FD
:10A9EA00026E0D0E016EFC0EE82EFED7012EFCD76C
:10A9FA00022EF6EF54F002EF55F01200929E928862
:10AA0A009398939A938E939C9284928C928A898E2D
:10AA1A008A8C8A88949C949E120000F000F000F0C0
:10AA2A0000F000F000F000F000F000F000F000F09C
:10AA3A0000F000F000F0120025EF55F025EF55F078
:10AA4A008EEC55F00009D8A42DEF55F02FEF55F0F4
:10AA5A0025EF55F031EF55F0010E4CEC55F0120090
:10AA6A00CA0EF66EA90EF76E000EF86E0900F5CF43
:10AA7A0025F00900F5CF26F000EE1DF0080EEE6A6B
:10AA8A00E806FDE1000EF86E00011EEF59F0016EB6
:10AA9A00F00E9316F00E811601380F0B0F0B811270
:10AAAA008B948B9012EC55F08B8212EC55F08B92B2
:10AABA00F00E811601500F0B811212EC55F08B82A9
:10AACA0012EC55F08B920F0E93126CEF55F01200A8
:10AADA00016EF00E9316F00E811601380F0B0F0B54
:10AAEA0081128B808B9412EC55F08B8212EC55F00C
:10AAFA008B92F00E811601500F0B811212EC55F059
:10AB0A008B8212EC55F08B920F0E93128DEF55F04B
:10AB1A0012008B848B9012EC55F08B8212EC55F05C
:10AB2A0081A69AEF55F09CEF55F0ABEF55F08B925A
:10AB3A0012EC55F08B8212EC55F08B928B94010E2D
:10AB4A00B8EF55F0B8EF55F0B8EF55F08B9212EC1C
:10AB5A0055F08B8212EC55F08B928B94000EB8EF65
:10AB6A0055F0B8EF55F0120001C005F002C006F02A
:10AB7A00C3EF55F0054A062AC3EF55F005C0F6FFA4
:10AB8A0006C0F7FF0800F5500009D8A4CFEF55F02A
:10AB9A00D1EF55F0BFEF55F0D3EF55F001C003F0F8
:10ABAA0002C004F0031E041E034A042A05500324AB
:10ABBA00016E06500420026EE3EF55F01200046E97
:10ABCA00F00E9316F00E81160450016E026A018E81
:10ABDA00040E036E023402320132032EEFEF55F0F7
:10ABEA0001500F0B81128B948B9012EC55F08B82D3
:10ABFA0012EC55F08B92F00E811604500F0B811255
:10AC0A0012EC55F08B8212EC55F08B920F0E9312C8
:10AC1A000FEF56F012002EEF56F016EF56F016EF21
:10AC2A0056F08EEC55F00009D8A41EEF56F020EF2E
:10AC3A0056F016EF56F022EF56F002C0F6FF03C0A8
:10AC4A00F7FF0800F5506DEC55F0024A032A2EEF83
:10AC5A0056F002C0F6FF03C0F7FF0800F5500009DE
:10AC6A00D8A43AEF56F03CEF56F016EF56F03EEF06
:10AC7A0056F01200000E036E000E026E03BE4FEF76
:10AC8A0056F0035009E1140E025CD8A04FEF56F0BB
:10AC9A0051EF56F055EF56F06EEF56F06EEF56F054
:10ACAA00820E016EDE0EE82EFED7012EFCD7024A76
:10ACBA00032A03BE6AEF56F0035009E1140E025C40
:10ACCA00D8A06AEF56F06CEF56F055EF56F06EEFDB
:10ACDA0056F0120021EC55F0000E056E000EDDEC68
:10ACEA0056F0DC0E026EBF0E036E10EC56F03FEC0F
:10ACFA0056F0010E266E82EF56F084A687EF56F0C4
:10AD0A0089EF56F094EF56F080B48EEF56F090EF3C
:10AD1A0056F082EF56F094EF56F094EF56F0820E0A
:10AD2A00086EDE0EE82EFED7082EFCD73FEC56F052
:10AD3A009FEF56F01200280EB0EC57F0A7EF56F02E
:10AD4A00A7EF56F08EEC55F00009D8A4AFEF56F0F5
:10AD5A00B1EF56F0A7EF56F0B3EF56F0060E4CECF3
:10AD6A0055F0BAEF56F0BAEF56F08EEC55F00009EE
:10AD7A00D8A4C2EF56F0C4EF56F0BAEF56F0C6EFB9
:10AD8A0056F00C0E4CEC55F0CDEF56F0CDEF56F0D8
:10AD9A008EEC55F00009D8A4D5EF56F0D7EF56F04F
:10ADAA00CDEF56F0D9EF56F0010E4CEC55F01200EB
:10ADBA00076E000E066E130E0764E6EF56F0E8EF14
:10ADCA0056F0ECEF56F0000E076EECEF56F0030E5D
:10ADDA000564F2EF56F0F4EF56F013EF57F0000E59
:10ADEA00056E13EF57F013EF57F007C006F02AEF7E
:10ADFA0057F00750400F066E2AEF57F00750140F0E
:10AE0A00066E2AEF57F00750540F066E2AEF57F0D6
:10AE1A0007C006F02AEF57F02AEF57F00550000A4C
:10AE2A00D8B4FAEF56F0010AD8B4FEEF56F0030A86
:10AE3A00D8B403EF57F0010AD8B408EF57F00DEF72
:10AE4A0057F02AEF57F02AEF57F08EEC55F0000929
:10AE5A00D8A432EF57F034EF57F02AEF57F036EF15
:10AE6A0057F00650E4EC55F01200000E066E04BED0
:10AE7A0043EF57F041EF57F04BEF57F0036C041EC6
:10AE8A00D8B0042A010E066E4BEF57F002BE52EFFD
:10AE9A0057F050EF57F05AEF57F0016C021ED8B036
:10AEAA00022A010E061A5AEF57F0000E086E000E1B
:10AEBA00076E03500410D8B465EF57F067EF57F0E8
:10AECA009BEF57F0010E056E71EF57F0D8900336DD
:10AEDA000436052A71EF57F004AE76EF57F078EF93
:10AEEA0057F06BEF57F07CEF57F07CEF57F0D890A4
:10AEFA00073608360350015C04500258D8A088EF80
:10AF0A0057F08AEF57F091EF57F00350015E045063
:10AF1A00025A078091EF57F0D89004320332052E77
:10AF2A007CEF57F09BEF57F09BEF57F00650D8B4E1
:10AF3A00A1EF57F0A3EF57F0A9EF57F0076C081EDF
:10AF4A00D8B0082AA9EF57F007C001F008C002F0EC
:10AF5A00AFEF57F01200056EF00E8116F00E931641
:10AF6A009494949094928B948B908B92E6EC54F0F8
:10AF7A00300E4CEC55F0050EF5EC54F0300E4CEC5E
:10AF8A0055F0010EF5EC54F0320E4CEC55F0D0EFC2
:10AF9A0057F0D0EF57F08EEC55F00009D8A4D8EF4F
:10AFAA0057F0DAEF57F0D0EF57F0E0EF57F0E0EF55
:10AFBA0057F0E0EF57F08EEC55F00009D8A4E8EF0F
:10AFCA0057F0EAEF57F0E0EF57F0ECEF57F0055083
:10AFDA004CEC55F0F3EF57F0F3EF57F08EEC55F0D9
:10AFEA000009D8A4FBEF57F0FDEF57F0F3EF57F045
:10AFFA00FFEF57F0080E4CEC55F006EF58F006EF4D
:10B00A0058F08EEC55F00009D8A40EEF58F010EF66
:10B01A0058F006EF58F012EF58F00F0E4CEC55F0BE
:10B02A0019EF58F019EF58F08EEC55F00009D8A432
:10B03A0021EF58F023EF58F019EF58F025EF58F0A8
:10B04A00010E4CEC55F02CEF58F02CEF58F08EEC2A
:10B05A0055F00009D8A434EF58F036EF58F02CEF29
:10B06A0058F038EF58F0040E4CEC55F03FEF58F01A
:10B07A003FEF58F08EEC55F00009D8A447EF58F08E
:10B08A0049EF58F03FEF58F04BEF58F0800EE4ECE0
:10B09A0055F050EF58F012000E6E000E0D6E130EA2
:10B0AA000E645AEF58F05CEF58F060EF58F0000E5B
:10B0BA000E6E60EF58F0030E076466EF58F068EF03
:10B0CA0058F087EF58F0000E076E87EF58F087EFB9
:10B0DA0058F00EC00DF09EEF58F00E50400F0D6E56
:10B0EA009EEF58F00E50140F0D6E9EEF58F00E5052
:10B0FA00540F0D6E9EEF58F0000E0D6E9EEF58F035
:10B10A009EEF58F00750000AD8B46EEF58F0010AC3
:10B11A00D8B472EF58F0030AD8B477EF58F0010A9E
:10B12A00D8B47CEF58F081EF58F09EEF58F09EEFBC
:10B13A0058F08EEC55F00009D8A4A6EF58F0A8EF05
:10B14A0058F09EEF58F0AAEF58F00D50E4EC55F085
:10B15A0008C001F009C002F0B9EC55F001500D6EBB
:10B16A00140E0D64BBEF58F0BDEF58F0C1EF58F064
:10B17A00140E0D6EC1EF58F00DC00CF0E2EF58F04E
:10B18A00C9EF58F0C9EF58F08EEC55F00009D8A471
:10B19A00D1EF58F0D3EF58F0C9EF58F0D5EF58F087
:10B1AA0008C0F6FF09C0F7FF0800F5506DEC55F02E
:10B1BA00084A092A0C06E2EF58F00C50D8A4E8EF26
:10B1CA0058F0EAEF58F0C9EF58F0ECEF58F00A508F
:10B1DA00D8B4F2EF58F0F4EF58F01DEF59F00D50D3
:10B1EA000E240008140F0C6E11EF59F0FFEF58F0FF
:10B1FA00FFEF58F08EEC55F00009D8A407EF59F08C
:10B20A0009EF59F0FFEF58F00BEF59F00B506DECC6
:10B21A0055F00C0611EF59F00C50D8A417EF59F05D
:10B22A0019EF59F0FFEF58F01DEF59F01DEF59F0E3
:10B23A001200760ED36E070EB46E0F0EC16E010E9B
:10B24A00266E03EC55F0A0EC56F0000E056E000ECB
:10B25A00DDEC56F0ED0E026EBF0E036E10EC56F0EA
:10B26A00020E056E0C0EDDEC56F0F90E026EBF0EE4
:10B27A00036E10EC56F03FEC56F03FEC56F021EC22
:10B28A0055F08B9E8B8C000E81BE010E226E4EEF06
:10B29A0059F08BBE53EF59F056EF59F0010E57EFA4
:10B2AA0059F0000EFF0A1C6E1C321C328B501C18FF
:10B2BA007F0B1C188B6E8BBC65EF59F068EF59F049
:10B2CA00010E69EF59F0000EFF0A1C6E1C3A1C466B
:10B2DA001C468B501C18BF0B1C188B6EA6EC5AF020
:10B2EA00000E81BE010E216E2504D8A47FEF59F00D
:10B2FA0081EF59F070EF5AF084A686EF59F088EF83
:10B30A0059F091EF59F080B48DEF59F08FEF59F061
:10B31A00DEEF59F091EF59F0000E256E010E246E02
:10B32A00000E206E000E1F6E2650080D060EF32624
:10B33A00000EF422B90EF324F66EBE0EF420F76E58
:10B34A000900F5500900F510D8B4AEEF59F0B0EF86
:10B35A0059F0CDEF59F02650080D060EF326000ECF
:10B36A00F422B90EF324F66EBE0EF420F76E02D85C
:10B37A00CBEF59F00500FA6E0900F550FD6E090091
:10B38A00F550FE6EF850FF6EFA501200CDEF59F0EC
:10B39A002650080D050EF326000EF422B90EF324EA
:10B3AA00F66EBE0EF420F76E0800F5CF26F0DEEF3B
:10B3BA0059F080BAE3EF59F0E5EF59F0FEEF59F092
:10B3CA00000E256E010E246E000E206E000E1F6EFA
:10B3DA002650080D030EF326000EF422B90EF324AC
:10B3EA00F66EBE0EF420F76E0800F5CF26F0FEEFDB
:10B3FA0059F080BC03EF5AF005EF5AF01EEF5AF0ED
:10B40A00000E256E010E246E000E206E000E1F6EB9
:10B41A002650080D040EF326000EF422B90EF3246A
:10B42A00F66EBE0EF420F76E0800F5CF26F01EEF7A
:10B43A005AF022502118D8B425EF5AF027EF5AF0C3
:10B44A0070EF5AF080B82CEF5AF02FEF5AF0010E35
:10B45A0030EF5AF0000E1C6E81BE36EF5AF039EF0B
:10B46A005AF0010E3AEF5AF0000E1C1AD8A440EF17
:10B47A005AF042EF5AF053EF5AF02650080D030ED5
:10B48A00F326000EF422B90EF324F66EBE0EF42053
:10B49A00F76E0800F5CF26F064EF5AF02650080D33
:10B4AA00040EF326000EF422B90EF324F66EBE0E35
:10B4BA00F420F76E0800F5CF26F064EF5AF0000E7C
:10B4CA00256E010E246E000E206E000E1F6E70EFA8
:10B4DA005AF070EF5AF0000E81BE010E226E24045B
:10B4EA00D8A47AEF5AF07CEF5AF099EF5AF0010E8D
:10B4FA001F241F6E000E2020206E205009E11F0E0F
:10B50A001F5CD8A08BEF5AF08DEF5AF099EF5AF0E2
:10B51A00000E206E000E1F6E010E256E000E246EA8
:10B52A0099EF5AF099EF5AF0030E1C6E980EE82E16
:10B53A00FED71C2EFCD74EEF59F04EEF59F000EF14
:10B54A0000F0000E196E000E1A6E000E176E000E35
:10B55A00166E000E1B6E000E186EC5EF5AF01750CD
:10B56A00080D020EF326000EF422B90EF324F66E2D
:10B57A00BE0EF420F76E0800F5501726C5EF5AF0F4
:10B58A001750265CD8B0CCEF5AF0CEEF5AF0B4EF91
:10B59A005AF0D0EF5AF02650080D020EF326000E8C
:10B5AA00F422B90EF324F66EBE0EF420F76E0800EC
:10B5BA00F550000817241A6E17061AC016F01A500A
:10B5CA000F6E106A020E0F26000E10222650116E00
:10B5DA00126A0F50115C1250800A136E1050800AC2
:10B5EA001358D8A0FBEF5AF0FDEF5AF07BEF5CF04E
:10B5FA0026500F6E106AFF0E116EFF0E126E175054
:10B60A00136E146A11501326125014220F50135C31
:10B61A001450800A156E1050800A1558D8A018EFD9
:10B62A005BF01AEF5BF07BEF5CF02650FE0F1A6EB0
:10B63A001A50030F176E1650080DB90EF324F66E42
:10B64A00BE0EF420F76E0900F5CF01F00A00F5CF1F
:10B65A0002F0B9EC55F001501B6E1B500F6E106AC8
:10B66A000F1E101E0F4A102A140E0F24016E000E10
:10B67A001020026E000E046E020E036E3AEC57F0B2
:10B68A0001501B6E000E056E000EDDEC56F01BC05D
:10B69A0018F066EF5BF054EF5BF054EF5BF08EEC62
:10B6AA0055F00009D8A45CEF5BF05EEF5BF054EF55
:10B6BA005BF060EF5BF02D0E6DEC55F0180666EF4F
:10B6CA005BF01850D8A46CEF5BF06EEF5BF054EFB0
:10B6DA005BF070EF5BF0000E076E1650080DB90EA6
:10B6EA00F324F66EBE0EF420F76E0900F5CF08F0CB
:10B6FA000A00F5CF09F0010E0A6E2D0E0B6E1B50D3
:10B70A0051EC58F0010E196E1A2A6EEF5CF06EEFCA
:10B71A005CF026501A18D8A495EF5BF097EF5BF00F
:10B72A0001EF5CF01A50080DB90EF324F66EBE0E46
:10B73A00F420F76E0900F5CF01F00A00F5CF02F008
:10B74A00B9EC55F001501B6E1B500F6E106A0F1E9C
:10B75A00101E0F4A102A140E0F24016E000E10201C
:10B76A00026E000E046E020E036E3AEC57F00150A0
:10B77A001B6E19C005F0000EDDEC56F01BC018F068
:10B78A00DDEF5BF0CBEF5BF0CBEF5BF08EEC55F0CF
:10B79A000009D8A4D3EF5BF0D5EF5BF0CBEF5BF0F9
:10B7AA00D7EF5BF03E0E6DEC55F01806DDEF5BF05F
:10B7BA001850D8A4E3EF5BF0E5EF5BF0CBEF5BF05A
:10B7CA00E7EF5BF019C007F01A50080DB90EF32421
:10B7DA00F66EBE0EF420F76E0900F5CF08F00A00E7
:10B7EA00F5CF09F0010E0A6E3C0E0B6E1B5051ECA0
:10B7FA0058F0192A6BEF5CF01A50080DB90EF324B1
:10B80A00F66EBE0EF420F76E0900F5CF01F00A00BD
:10B81A00F5CF02F0B9EC55F001501B6E1B500F6EBC
:10B82A00106A0F1E101E0F4A102A140E0F24016EE2
:10B83A00000E1020026E000E046E020E036E3AEC29
:10B84A0057F001501B6E19C005F0000EDDEC56F0E2
:10B85A001BC018F047EF5CF035EF5CF035EF5CF099
:10B86A008EEC55F00009D8A43DEF5CF03FEF5CF098
:10B87A0035EF5CF041EF5CF0200E6DEC55F01806E8
:10B88A0047EF5CF01850D8A44DEF5CF04FEF5CF036
:10B89A0035EF5CF051EF5CF019C007F01A50080D53
:10B8AA00B90EF324F66EBE0EF420F76E0900F5CF3A
:10B8BA0008F00A00F5CF09F0010E0A6E200E0B6E91
:10B8CA001B5051EC58F0192A6BEF5CF01A2A6EEFF4
:10B8DA005CF01A50175CD8B075EF5CF077EF5CF04B
:10B8EA008EEF5BF05BEF5FF05BEF5FF01A500F6E6D
:10B8FA00106A020E0F26000E10222650116E126ACE
:10B90A000F50115C1250800A136E1050800A13589F
:10B91A00D8B092EF5CF094EF5CF0F0EF5DF01A5063
:10B92A00030F176E1A50080DB90EF324F66EBE0EE9
:10B93A00F420F76E0900F5CF01F00A00F5CF02F006
:10B94A00B9EC55F001501B6E1B500F6E106A0F1E9A
:10B95A00101E0F4A102A140E0F24016E000E10201A
:10B96A00026E000E046E020E036E3AEC57F001509E
:10B97A001B6E000E056E000EDDEC56F01BC018F0B3
:10B98A00DDEF5CF0CBEF5CF0CBEF5CF08EEC55F0CA
:10B99A000009D8A4D3EF5CF0D5EF5CF0CBEF5CF0F4
:10B9AA00D7EF5CF02D0E6DEC55F01806DDEF5CF06C
:10B9BA001850D8A4E3EF5CF0E5EF5CF0CBEF5CF055
:10B9CA00E7EF5CF0000E076E1A50080DB90EF3246B
:10B9DA00F66EBE0EF420F76E0900F5CF08F00A00E5
:10B9EA00F5CF09F0010E0A6E2D0E0B6E1B5051ECAD
:10B9FA0058F0010E196E1A2AE3EF5DF026501A1854
:10BA0A00D8A40AEF5DF00CEF5DF076EF5DF01A5006
:10BA1A00080DB90EF324F66EBE0EF420F76E090077
:10BA2A00F5CF01F00A00F5CF02F0B9EC55F001505C
:10BA3A001B6E1B500F6E106A0F1E101E0F4A102A23
:10BA4A00140E0F24016E000E1020026E000E046EFA
:10BA5A00020E036E3AEC57F001501B6E19C005F046
:10BA6A00000EDDEC56F01BC018F052EF5DF040EF0F
:10BA7A005DF040EF5DF08EEC55F00009D8A448EF78
:10BA8A005DF04AEF5DF040EF5DF04CEF5DF03E0E89
:10BA9A006DEC55F0180652EF5DF01850D8A458EF27
:10BAAA005DF05AEF5DF040EF5DF05CEF5DF019C0BC
:10BABA0007F01A50080DB90EF324F66EBE0EF420E4
:10BACA00F76E0900F5CF08F00A00F5CF09F0010E6C
:10BADA000A6E3C0E0B6E1B5051EC58F0192AE0EF1F
:10BAEA005DF01A50080DB90EF324F66EBE0EF4205E
:10BAFA00F76E0900F5CF01F00A00F5CF02F0B9ECB4
:10BB0A0055F001501B6E1B500F6E106A0F1E101E4F
:10BB1A000F4A102A140E0F24016E000E1020026E16
:10BB2A00000E046E020E036E3AEC57F001501B6EC3
:10BB3A0019C005F0000EDDEC56F01BC018F0BCEF82
:10BB4A005DF0AAEF5DF0AAEF5DF08EEC55F000090A
:10BB5A00D8A4B2EF5DF0B4EF5DF0AAEF5DF0B6EFF6
:10BB6A005DF0200E6DEC55F01806BCEF5DF0185034
:10BB7A00D8A4C2EF5DF0C4EF5DF0AAEF5DF0C6EFA6
:10BB8A005DF019C007F01A50080DB90EF324F66ECD
:10BB9A00BE0EF420F76E0900F5CF08F00A00F5CFC3
:10BBAA0009F0010E0A6E200E0B6E1B5051EC58F074
:10BBBA00192AE0EF5DF01A2AE3EF5DF01A50175CDC
:10BBCA00D8B0EAEF5DF0ECEF5DF003EF5DF05BEF0C
:10BBDA005FF05BEF5FF017502618D8A4F7EF5DF01F
:10BBEA00F9EF5DF05BEF5FF01750FD0F1A6E16501C
:10BBFA00080DB90EF324F66EBE0EF420F76E090096
:10BC0A00F5CF01F00A00F5CF02F0B9EC55F001507A
:10BC1A001B6E1B500F6E106A0F1E101E0F4A102A41
:10BC2A00140E0F24016E000E1020026E000E046E18
:10BC3A00020E036E3AEC57F001501B6E000E056EB1
:10BC4A00000EDDEC56F01BC018F042EF5EF030EF4C
:10BC5A005EF030EF5EF08EEC55F00009D8A438EFB4
:10BC6A005EF03AEF5EF030EF5EF03CEF5EF02D0EE4
:10BC7A006DEC55F0180642EF5EF01850D8A448EF64
:10BC8A005EF04AEF5EF030EF5EF04CEF5EF0000ED1
:10BC9A00076E1650080DB90EF324F66EBE0EF42088
:10BCAA00F76E0900F5CF08F00A00F5CF09F0010E8A
:10BCBA000A6E2D0E0B6E1B5051EC58F0010E196EC8
:10BCCA001A2A4AEF5FF04AEF5FF026501A18D8A4F2
:10BCDA0071EF5EF073EF5EF0DDEF5EF01A50080D63
:10BCEA00B90EF324F66EBE0EF420F76E0900F5CFF6
:10BCFA0001F00A00F5CF02F0B9EC55F001501B6EC5
:10BD0A001B500F6E106A0F1E101E0F4A102A140EB7
:10BD1A000F24016E000E1020026E000E046E020E39
:10BD2A00036E3AEC57F001501B6E19C005F0000E75
:10BD3A00DDEC56F01BC018F0B9EF5EF0A7EF5EF02D
:10BD4A00A7EF5EF08EEC55F00009D8A4AFEF5EF0D5
:10BD5A00B1EF5EF0A7EF5EF0B3EF5EF03E0E6DEC72
:10BD6A0055F01806B9EF5EF01850D8A4BFEF5EF090
:10BD7A00C1EF5EF0A7EF5EF0C3EF5EF019C007F007
:10BD8A001A50080DB90EF324F66EBE0EF420F76EA3
:10BD9A000900F5CF08F00A00F5CF09F0010E0A6E86
:10BDAA003C0E0B6E1B5051EC58F0192A47EF5FF00E
:10BDBA001A50080DB90EF324F66EBE0EF420F76E73
:10BDCA000900F5CF01F00A00F5CF02F0B9EC55F001
:10BDDA0001501B6E1B500F6E106A0F1E101E0F4A69
:10BDEA00102A140E0F24016E000E1020026E000E8F
:10BDFA00046E020E036E3AEC57F001501B6E19C026
:10BE0A0005F0000EDDEC56F01BC018F023EF5FF0D2
:10BE1A0011EF5FF011EF5FF08EEC55F00009D8A436
:10BE2A0019EF5FF01BEF5FF011EF5FF01DEF5FF0AE
:10BE3A00200E6DEC55F0180623EF5FF01850D8A4C9
:10BE4A0029EF5FF02BEF5FF011EF5FF02DEF5FF05E
:10BE5A0019C007F01A50080DB90EF324F66EBE0E7B
:10BE6A00F420F76E0900F5CF08F00A00F5CF09F0C3
:10BE7A00010E0A6E200E0B6E1B5051EC58F0192A57
:10BE8A0047EF5FF01A2A4AEF5FF01A50175CD8B0F2
:10BE9A0051EF5FF053EF5FF06AEF5EF05BEF5FF038
:10BEAA005BEF5FF05BEF5FF05BEF5FF0120000416A
:10BEBA00BF0A0000000000C7BF0A0102010000BF5C
:10BECA00BF0A01030B0000B7BF0A0204030000AF58
:10BEDA00BF0A0305040000A7BF0A04060500009F65
:10BEEA00BF0A050706000097BF0A06080700008F69
:10BEFA00BF0A0709080000D6BF0A080909DEAC8490
:10BF0A00BF07000000000079BF07010C0B00006E9C
:10BF1A00BF070B0D0C000063BF070C0E0D00005885
:10BF2A00BF070D0F0E00004DBF070E100F0000CF08
:10BF3A00BF070F100100003C4D61696E204D656E10
:10BF4A00753E005375624F7074696F6E3500537594
:10BF5A00624F7074696F6E34005375624F70746902
:10BF6A006F6E33005375624F7074696F6E3200538F
:10BF7A0075624F7074696F6E31003C537562204D63
:10BF8A00656E753E004F7074696F6E38004F70743D
:10BF9A00696F6E37004F7074696F6E36004F707438
:10BFAA00696F6E35004F7074696F6E34004F70742C
:10BFBA00696F6E33004F7074696F6E32004F707420
:10BFCA00696F6E310052455455524E0053544152D6
:10BFDA0054002154686973206973205350415254A4
:10BFEA0041210042617369204D616D61746100767F
:05BFFA00332E300000B1
:020000040020DA
:08000000FFFFFFFFFFFFFFFF00
:020000040030CA
:0E000000FF08191EFF0181FF0FC00FE00F4027
:00000001FF
