:04000000F7EF19F00D
:1010000000010000000A00000064000000E8030086
:101010000010270000A086010040420F0080969833
:101020000000E1F50500CA9A3B00803F0020410026
:10103000C842007A44401C4650C34724744997185C
:101040004BBCBE4C6B6E4E03155079AD60F34971CD
:1010500000803FCDCC3DD7233C12833AB7D138C670
:101060002737388635C0D633CC2B32708930E7DB52
:101070002EE53C1E42A20D49286F7574295B415D27
:101080003D2020202020200055286F7574295B56B4
:101090005D3D202020202020002020506F776572A9
:1010A00020537570706C7920200076312E30002529
:0510B0002E3367000073
:1010B600620E0001836F000E0001846FAEEF0FF029
:1010C600250E00019919D8B407D05EC0D9FF5FC0BC
:1010D600DAFF99C0DFFFA8D3000E0001896F000E6A
:1010E600886F60C0F6FF61C0F7FF0800F5502E0A52
:1010F600D8A432D00001898D604A612A000E000111
:10110600956F000E946F1DD094C00FF095C010F02F
:10111600000E126E0A0E116E27EC1BF060C0F6FF71
:1011260061C0F7FF0800F5500F26000E1022D00E02
:101136000F240001946FFF0E10200001956F604A86
:10114600612A60C0F6FF61C0F7FF0800F5505EEC4B
:101156001BF0D8A00CD0D8D7000E0001956F000E5A
:10116600946F0001898903D00001898314D060C07F
:10117600F6FF61C0F7FF604A612A0800F5CF99F0D3
:1011860000019951000AD8B4BCEF0FF0670AD8B431
:10119600EBD7AEEF0FF0070E00018915D8B460EF5C
:1011A6000FF0000189A905D0000E0001956F060E0B
:1011B600946F83C0D9FF84C0DAFFDECF96F0DECF0E
:1011C60097F0DDCF98F0030E00018327000E8423ED
:1011D600000198AF11D096C02DF097C02EF098C0A0
:1011E6002FF03AEC1BF02DC096F02EC097F02FC0D2
:1011F60098F0030E00018813000E0001936F000E95
:10120600926F000196510001971100019811D8B410
:101216008BD0820E656EFF0E666E96C067F097C025
:1012260068F098C069F099C06AF0100E05D0D890A1
:101236006A32693268326732E82EF9D76750652418
:101246000001926F000E66200001936F0001920765
:10125600D8A0930792C00FF093C010F0000E126E44
:10126600030E116E27EC1BF00FC092F010C093F026
:1012760092C007F093C008F0000E0A6E0A0E096EBF
:1012860083EC18F007C092F008C093F0000193AF0A
:1012960004D000019207D8A09307000192510008DC
:1012A600C3EC0FF03FC08AF040C08BF041C08CF019
:1012B6008AC030F08BC031F08CC032F096C033F06B
:1012C60097C034F098C035F02BEC16F030C08AF099
:1012D60031C08BF032C08CF08AC055F08BC056F00E
:1012E6008CC057F0000E586E800E596E3F0E5A6E27
:1012F6003BEC18F0D8B005D000019207D8A09307B0
:1013060013D08AC055F08BC056F08CC057F0000E33
:10131600586E200E596E410E5A6E3BEC18F0D8A04E
:1013260003D00001924B932B000193BF07D000011D
:10133600935108E100019205D8B004D0010E0001D6
:10134600996F02D092C099F0000189A370D2000172
:1013560093AF08D0FC0E0001925DFF0E0001935979
:10136600D8A00ED0000194510001925D0001935166
:10137600800A656E00019551800A6558D8A057D23B
:101386000001945100019511D8B407D0000189A33A
:1013960004D000019407D8A095070001955105E1F6
:1013A600090E0001945DD8A004D0080E0001996FC3
:1013B60002D094C099F000019651000197110001E6
:1013C6009811D8B4E1D096C046F097C047F098C0BF
:1013D60048F000019951000800019225C3EC0FF076
:1013E6003FC049F040C04AF041C04BF01FEC17F037
:1013F60046C096F047C097F048C098F096C04CF0AB
:1014060097C04DF098C04EF096C015F097C016F0F4
:1014160098C017F0A5EC16F015C024F016C025F0FC
:1014260017C026F018C027F0A0EC19F024C02DF044
:1014360025C02EF026C02FF03AEC1BF02DC049F047
:101446002EC04AF02FC04BF028EC14F049C055F0DE
:101456004AC056F04BC057F0000E586E000E596E3B
:101466003F0E5A6E3BEC18F0D8A014D096C049F047
:1014760097C04AF098C04BF0000E4C6E000E4D6EB1
:101486003F0E4E6E28EC14F049C096F04AC097F015
:101496004BC098F099C065F0666A65BE6606D8903E
:1014A60065366636D89065366636040E6526000EB5
:1014B6006622010E6524F66E100E6620F76E96C043
:1014C60015F097C016F098C017F0A5EC16F00900B5
:1014D600F550155C0900F55016580900F5501758D7
:1014E6000900F5501858D8A018D096C030F097C00B
:1014F60031F098C032F0CD0E336ECC0E346E3D0E08
:10150600356E2BEC16F030C096F031C097F032C035
:1015160098F00001924B932B37D000019951040D9E
:10152600010EF324F66E100EF420F76E96C015F039
:1015360097C016F098C017F0A5EC16F00900F55004
:10154600155C0900F55016580900F55017580900A2
:10155600F5501858D8B018D096C030F097C031F072
:1015660098C032F0000E336E200E346E410E356E8A
:101576002BEC16F030C096F031C097F032C098F0E0
:1015860000019207D8A09307030E00018815656E27
:10159600000E00018915666E65506610D8B408D035
:1015A6005EC0D9FF5FC0DAFF2D0EDF6E5E4A5F2A8E
:1015B60096C015F097C016F098C017F0A5EC16F077
:1015C60015C08EF016C08FF017C090F018C091F0BD
:1015D6008EC001F08FC002F090C003F091C004F0FD
:1015E60000019951040D010EF324F66E100EF4203D
:1015F600F76E0900F5CF05F00900F5CF06F00900F2
:10160600F5CF07F00A00F5CF08F0C5EC18F0015049
:10161600300F5EC0D9FF5FC0DAFFDF6E5E4A5F2A19
:101626008EC001F08FC002F090C003F091C004F0AC
:1016360000019951040D010EF324F66E100EF420EC
:10164600F76E0900F5CF05F00900F5CF06F00900A1
:10165600F5CF07F00A00F5CF08F03EEC19F001C00F
:101666008EF002C08FF003C090F004C091F000012C
:10167600945100019511D8B493D05EC0D9FF5FC0D4
:10168600DAFF2E0EDF6E5E4A5F2A000199510001D5
:10169600945F000E000199BFFF0E0001955B67D0B5
:1016A600000189A315D000018E5100018F110001A0
:1016B600901100019111D8A40BD0000E0001996F72
:1016C600000199510001946F956B94BF950762D004
:1016D6008EC001F08FC002F090C003F091C004F0FC
:1016E60000019951040D010EF324F66E100EF4203C
:1016F600F76E0900F5CF05F00900F5CF06F00900F1
:10170600F5CF07F00A00F5CF08F0C5EC18F0015048
:10171600300F5EC0D9FF5FC0DAFFDF6E5E4A5F2A18
:101726008EC001F08FC002F090C003F091C004F0AB
:1017360000019951040D010EF324F66E100EF420EB
:10174600F76E0900F5CF05F00900F5CF06F00900A0
:10175600F5CF07F00A00F5CF08F03EEC19F001C00E
:101766008EF002C08FF003C090F004C091F000012B
:10177600990700019929D8B40DD092D75EC0D9FF38
:101786005FC0DAFF300EDF6E5E4A5F2A0001940703
:10179600D8A095070001945100019511D8A4EED761
:1017A6005EC0D9FF5FC0DAFF650EDF6E5E4A5F2A54
:1017B600000193AF0ED00001926D931FD8B0932B0A
:1017C6005EC0D9FF5FC0DAFF2D0E08D05E4A5F2AE1
:1017D60007D05EC0D9FF5FC0DAFF2B0EDF6EF6D7EB
:1017E60092C007F093C008F0000E0A6E0A0E096E4A
:1017F60083EC18F00750300F5EC0D9FF5FC0DAFFE8
:10180600DF6E5E4A5F2A92C001F093C002F0000EBE
:10181600046E0A0E036E06EC19F00150300F5EC01E
:10182600D9FF5FC0DAFF95D35E4A5F2A94D30001E1
:1018360089A300D1000193AF0ED0010E00019225BD
:10184600656E000E00019321666E65500001945F7F
:1018560066500001955B96C015F097C016F098C0CB
:1018660017F0A5EC16F015C08EF016C08FF017C055
:1018760090F018C091F0000E0001996F0A0E000159
:101886009919D8B41ED000019951040D010EF32404
:10189600F66E100EF420F76E0900F55000018E5D0D
:1018A6000900F55000018F590900F55000019059C3
:1018B6000900F55000019159D8A003D00001992BD9
:1018C600DDD7000199510001945F000E000199BF18
:1018D600FF0E0001955B000195BF08D000019551F0
:1018E6001DE10D0E0001945DD8B018D096C049F0E8
:1018F60097C04AF098C04BF00001945105EC13F0E4
:101906003FC04CF040C04DF041C04EF028EC14F002
:1019160049C096F04AC097F04BC098F00001945128
:10192600C3EC0FF03FC085F040C086F041C087F0A1
:1019360085C030F086C031F087C032F096C04CF0DA
:1019460097C04DF098C04EF08EC024F08FC025F0A1
:1019560090C026F091C027F0A0EC19F024C02DF01D
:1019660025C02EF026C02FF03AEC1BF02DC049F012
:101976002EC04AF02FC04BF028EC14F049C033F0CB
:101986004AC034F04BC035F02BEC16F030C085F071
:1019960031C086F032C087F085C015F086C016F0DB
:1019A60087C017F0A5EC16F015C08EF016C08FF0A4
:1019B60017C090F018C091F01ED08EC001F08FC0F5
:1019C60002F090C003F091C004F00A0E056E000EFE
:1019D600066E000E076E000E086EC5EC18F001C00C
:1019E6008EF002C08FF003C090F004C091F00001A9
:1019F6009407D8A095070001945100019511D8B419
:101A06003CD08EC001F08FC002F090C003F091C0B0
:101A160004F00A0E056E000E066E000E076E000E2E
:101A2600086E3EEC19F00150021003100410D8A401
:101A360024D0C3D7000195BF08D0000195511DE100
:101A46000D0E0001945DD8B018D096C049F097C02D
:101A56004AF098C04BF00001945105EC13F03FC0DA
:101A66004CF040C04DF041C04EF028EC14F049C097
:101A760096F04AC097F04BC098F0000193BF08D08B
:101A86000001935126E10A0E0001925DD8B021D0E3
:101A9600000196510001971100019811D8B45BD04E
:101AA60096C015F097C016F098C017F0A5EC16F082
:101AB6001550161017101810D8A44DD0000193BF5A
:101AC6004AD00001935105E1020E0001925DD8A0B3
:101AD60042D08AC055F08BC056F08CC057F0700EBD
:101AE600586E890E596E400E5A6E3BEC18F0D8B0FF
:101AF60003D00001F70E02D00001F80E9227FF0E68
:101B0600932300019251C3EC0FF03FC08AF040C00E
:101B16008BF041C08CF096C001F097C002F098C0DF
:101B260003F08AC004F08BC005F08CC006F0FEEC12
:101B360014F001C08EF002C08FF003C090F004C014
:101B460091F0000E0001966F000E0001976F000ED7
:101B56000001986F33D096C015F097C016F098C064
:101B660017F0A5EC16F015C08EF016C08FF017C052
:101B760090F018C091F096C055F097C056F098C0F6
:101B860057F08EC024F08FC025F090C026F091C08B
:101B960027F0A0EC19F024C058F025C059F026C053
:101BA6005AF017EC1AF055C096F056C097F057C089
:101BB60098F0000E0001936F000E926F010E000167
:101BC600996F0A0E00019919D8B41ED000019951D7
:101BD600040D010EF324F66E100EF420F76E0900C4
:101BE600F55000018E5D0900F55000018F5909007E
:101BF600F550000190590900F55000019159D8A0FF
:101C060003D00001992BDDD7030E00018815656E00
:101C1600000E00018915666E65506610D8B453D063
:101C26005EC0D9FF5FC0DAFF2D0E4BD05E4A5F2A39
:101C36004AD08EC001F08FC002F090C003F091C070
:101C460004F000019951040D010EF324F66E100EF6
:101C5600F420F76E0900F5CF05F00900F5CF06F080
:101C66000900F5CF07F00A00F5CF08F0C5EC18F02B
:101C760001C08AF002C08BF003C08CF004C08DF066
:101C86008AC001F08BC002F08CC003F08DC004F056
:101C96000A0E056E000E066E000E076E000E086E2A
:101CA6003EEC19F001C08AF002C08BF003C08CF044
:101CB60004C08DF000018A51300F5EC0D9FF5FC0AD
:101CC600DAFFDF6EB3D70001990700019929D8B46E
:101CD6000DD0AFD75EC0D9FF5FC0DAFF300EDF6E22
:101CE6005E4A5F2A00019207D8A09307000193BFBE
:101CF60007D000019351EEE100019205D8B0EAD772
:101D0600000195BF0CD00001955105E1090E0001B7
:101D1600945DD8A004D0080E0001996F02D094C03B
:101D260099F0000199510001945F000E000199BFDE
:101D3600FF0E0001955B000199510001D8B408D04F
:101D46005EC0D9FF5FC0DAFF2E0EDF6E5E4A5F2AE5
:101D560000019951C3EC0FF03FC080F040C081F004
:101D660041C082F096C033F097C034F098C035F089
:101D760080C030F081C031F082C032F02BEC16F01A
:101D860030C015F031C016F032C017F0A5EC16F0D1
:101D960015C08EF016C08FF017C090F018C091F0E5
:101DA60072D08EC001F08FC002F090C003F091C0D7
:101DB60004F000019951040D010EF324F66E100E85
:101DC600F420F76E0900F5CF05F00900F5CF06F00F
:101DD6000900F5CF07F00A00F5CF08F0C5EC18F0BA
:101DE60001C08AF002C08BF003C08CF004C08DF0F5
:101DF6008AC001F08BC002F08CC003F08DC004F0E5
:101E06000A0E056E000E066E000E076E000E086EB8
:101E16003EEC19F001C08AF002C08BF003C08CF0D2
:101E260004C08DF000018A51300F5EC0D9FF5FC03B
:101E3600DAFFDF6E5E4A5F2A8EC001F08FC002F0C5
:101E460090C003F091C004F000019951040D010EF9
:101E5600F324F66E100EF420F76E0900F5CF05F0A8
:101E66000900F5CF06F00900F5CF07F00A00F5CF17
:101E760008F03EEC19F001C08EF002C08FF003C0EE
:101E860090F004C091F00001990700019929D8B497
:101E96000DD087D75EC0D9FF5FC0DAFF300EDF6E88
:101EA6005E4A5F2A00019407D8A095070001945165
:101EB60000019511D8B44FD0EDD70001945100011F
:101EC6009511D8A40DD000018E5100018F1100018B
:101ED600901100019111D8A403D00001944B952BC9
:101EE600800E000199BF7F0E656E000194510001BE
:101EF600995D00019551800A6558D8B003D094C009
:101F060099F016D000019551800A656E000199512D
:101F16000001945D800E000199BF7F0E6558D8B010
:101F260007D0000199510001946F956B94BF9507F6
:101F3600030E00018815656E000E00018915666E98
:101F460065506610D8B407D05EC0D9FF5FC0DAFF0F
:101F56002D0EDF6E69D460C0F6FF61C0F7FF604AE0
:101F6600612A0800F5CF99F000019951D8A463EFD2
:101F760008F05EC0D9FF5FC0DAFF000EDF6E120008
:101F8600456E45AEFBD0456C4550800A120FD8A071
:101F960091D0000E126E030E116E000E0A6E0A0E1E
:101FA600096E000E046E640E036E4550016E026AE1
:101FB60001BE020606EC19F001C007F002C008F0E7
:101FC60083EC18F0090E07240F6E000E0820106E21
:101FD60027EC1BF0500E0F24F66E100E1020F76E35
:101FE6000900F5CF33F00900F5CF34F00A00F5CF3C
:101FF60035F0000E0A6E640E096E4550076E086ACB
:1020060007BE080683EC18F0120E07240F6E000EAA
:102016000820106E000E126E030E116E27EC1BF0D8
:10202600500E0F24F66E100E1020F76E0900F5CF35
:1020360030F00900F5CF31F00A00F5CF32F02BEC85
:1020460016F030C042F031C043F032C044F042C016
:1020560030F043C031F044C032F0000E126E030E71
:10206600116E000E046E0A0E036E4550016E026A72
:1020760001BE020606EC19F001C00FF002C010F016
:1020860027EC1BF0500E0F24F66E100E1020F76E84
:102096000900F5CF33F00900F5CF34F00A00F5CF8B
:1020A60035F02BEC16F030C03FF031C040F032C0B6
:1020B60041F012004550800A750FD8A04DD0000E91
:1020C6000A6E0A0E096E4550076E086A07BE0806B4
:1020D60083EC18F0090E07240F6E000E0820106E10
:1020E600000E126E030E116E27EC1BF0500E0F241D
:1020F600F66E100E1020F76E0900F5CF30F00900CD
:10210600F5CF31F00A00F5CF32F0000E126E030E55
:10211600116E000E046E0A0E036E4550016E026AC1
:1021260001BE020606EC19F001C00FF002C010F065
:1021360027EC1BF0500E0F24F66E100E1020F76ED3
:102146000900F5CF33F00900F5CF34F00A00F5CFDA
:1021560035F02BEC16F0A7D74550030D500EF3249F
:10216600F66E100EF420F76E0900F5CF3FF0090069
:10217600F5CF40F00A00F5CF41F012004550800A35
:10218600120FD8A091D0000E126E030E116E000E23
:102196000A6E0A0E096E000E046E640E036E45503A
:1021A600016E026A01BE020606EC19F001C007F0D4
:1021B60002C008F083EC18F0090E07240F6E000E1B
:1021C6000820106E27EC1BF0290E0F24F66E100E59
:1021D6001020F76E0900F5CF33F00900F5CF34F083
:1021E6000A00F5CF35F0000E0A6E640E096E4550F2
:1021F600076E086A07BE080683EC18F0120E07245D
:102206000F6E000E0820106E000E126E030E116E79
:1022160027EC1BF0290E0F24F66E100E1020F76E19
:102226000900F5CF30F00900F5CF31F00A00F5CFFF
:1022360032F02BEC16F030C042F031C043F032C021
:1022460044F042C030F043C031F044C032F0000EDA
:10225600126E030E116E000E046E0A0E036E4550CA
:10226600016E026A01BE020606EC19F001C00FF00B
:1022760002C010F027EC1BF0290E0F24F66E100E8C
:102286001020F76E0900F5CF33F00900F5CF34F0D2
:102296000A00F5CF35F02BEC16F030C03FF031C018
:1022A60040F032C041F012004550800A750FD8A0A8
:1022B6004DD0000E0A6E0A0E096E4550076E086A6A
:1022C60007BE080683EC18F0090E07240F6E000EF1
:1022D6000820106E000E126E030E116E27EC1BF016
:1022E600290E0F24F66E100E1020F76E0900F5CF9A
:1022F60030F00900F5CF31F00A00F5CF32F0000ECC
:10230600126E030E116E000E046E0A0E036E455019
:10231600016E026A01BE020606EC19F001C00FF05A
:1023260002C010F027EC1BF0290E0F24F66E100EDB
:102336001020F76E0900F5CF33F00900F5CF34F021
:102346000A00F5CF35F02BEC16F0A7D74550030D54
:10235600290EF324F66E100EF420F76E0900F5CF61
:102366003FF00900F5CF40F00A00F5CF41F012002A
:102376009298760ED36E8988C8EC1AF092EC1AF011
:10238600990E026E100E036EAEEC1AF0400ECEECF5
:1023960019F0AA0E026E100E036EAEEC1AF010ECD7
:1023A6001BF010EC1BF0000ECEEC19F0880E026E3E
:1023B600100E036EAEEC1AF0400ECEEC19F0770E4E
:1023C600026E100E036EAEEC1AF00A0ECEEC19F089
:1023D60089A802D0010E01D0000EFF0A6B6E6B3A7F
:1023E60089506B18EF0B6B18896E000E7A6E000E13
:1023F600796E870E87EC1BF0000E706E000E6F6E06
:1024060070BE06D0705014E1100E6F5CD8B010D0BC
:10241600AEEC1BF0A1EC1BF00009D8A4FBD79AEC9C
:102426001BF00150792602507A226F4A702AE8D7AB
:10243600793A7A3A0F0E79167A50F00B79120F0E16
:102446007A16000E496E800E4A6E440E4B6E7BC0A5
:1024560033F07CC034F07DC035F079C009F07AC025
:102466000AF04CEC1BF009C030F00AC031F00BC08A
:1024760032F02BEC16F030C046F031C047F032C0D7
:1024860048F01FEC17F046C06CF047C06DF048C02E
:102496006EF06CC030F06DC031F06EC032F0000EE0
:1024A600336EC00E346E400E356E2BEC16F030C017
:1024B60073F031C074F032C075F09A0E5E6E000E85
:1024C6005F6EAF0E606E100E616E73C062F074C008
:1024D60063F075C064F05BEC08F09A0E026E000EB5
:1024E600036EE2EC1AF0820E026E100E036EAEEC74
:1024F6001AF04A0ECEEC19F0000E736E000E746ED2
:10250600000E756E000E7A6E000E796E8F0E87ECD9
:102516001BF0000E726E000E716E72BE06D0725007
:1025260014E1100E715CD8B010D0AEEC1BF0A1EC2B
:102536001BF00009D8A4FBD79AEC1BF001507926B2
:1025460002507A22714A722AE8D7793A7A3A0F0EFD
:1025560079167A50F00B79120F0E7A167BC033F08B
:102566007CC034F07DC035F079C009F07AC00AF03D
:102576004CEC1BF009C030F00AC031F00BC032F051
:102586002BEC16F030C046F031C047F032C048F0B0
:10259600000E496E800E4A6E440E4B6E1FEC17F00D
:1025A60046C073F047C074F048C075F09A0E5E6E70
:1025B600000E5F6EAF0E606E100E616E73C062F03D
:1025C60074C063F075C064F05BEC08F09A0E026E9E
:1025D600000E036EE2EC1AF0820E026E100E036E0F
:1025E600AEEC1AF00A0ECEEC19F0000E736E000E69
:1025F600746E000E756E000E7A6E000E796EF9EC32
:102606001AF0E6D6486E6D0E48649FD0000E126E24
:10261600030E116E000E0A6E0A0E096E000E046E8F
:10262600640E036E48C001F0026A06EC19F001C0A0
:1026360007F002C008F083EC18F0090E07240F6EAD
:10264600000E0820106E27EC1BF0500E0F24F66EBD
:10265600100E1020F76E0900F5CF33F00900F5CF04
:1026660034F00A00F5CF35F0000E0A6E640E096EDE
:1026760048C007F0086A83EC18F0120E07240F6EA4
:10268600000E0820106E000E126E030E116E27EC5F
:102696001BF0500E0F24F66E100E1020F76E090078
:1026A600F5CF30F00900F5CF31F00A00F5CF32F062
:1026B6002BEC16F030C045F031C046F032C047F082
:1026C600000E126E030E116E000E046E0A0E036EDD
:1026D60048C001F0026A06EC19F001C00FF002C012
:1026E60010F027EC1BF0500E0F24F66E100E102083
:1026F600F76E0900F5CF33F00900F5CF34F00A0084
:10270600F5CF35F045C030F046C031F047C032F065
:102716002BEC16F030C042F031C043F032C044F02A
:1027260042C030F043C031F044C032F0000E336E88
:10273600000E346E3F0E356E2BEC16F030C03FF0B7
:1027460031C040F032C041F012000A0E48645DD03C
:10275600000E126E030E116E000E046E0A0E036E4C
:1027660048C001F0026A06EC19F001C00FF002C081
:1027760010F027EC1BF0500E0F24F66E100E1020F2
:10278600F76E0900F5CF33F00900F5CF34F00A00F3
:10279600F5CF35F0000E0A6E0A0E096E48C007F036
:1027A600086A83EC18F0090E07240F6E000E082045
:1027B600106E000E126E030E116E27EC1BF0500EFB
:1027C6000F24F66E100E1020F76E0900F5CF30F0CC
:1027D6000900F5CF31F00A00F5CF32F02BEC16F0F8
:1027E60030C045F031C046F032C047F045C030F049
:1027F60046C031F047C032F0000E336E000E346E24
:102806003F0E356E2BEC16F099D74850030D500E3F
:10281600F324F66E100EF420F76E0900F5CF30F0B3
:102826000900F5CF31F00A00F5CF32F0000E336E15
:10283600000E346E3F0E356E2BEC16F030C03FF0B6
:1028460031C040F032C041F012004BC04FF0506A28
:10285600516A4A344F3601E350804F50546E4EC091
:102866004FF0506A516A4D344F3601E350804F5055
:10287600536E5450D8B40BD05350545CD8B00ED0CD
:102886005450000853244F6E180E4F6407D04CC0A6
:1028960049F04DC04AF04EC04BF012005350D8B428
:1028A6000BD05450535CD8B00ED05350000854246B
:1028B6004F6E180E4F6407D049C049F04AC04AF01F
:1028C6004BC04BF01200060E526E4BBE528E4EBEE1
:1028D600528C4A8EFF0E4916FF0E4A16000E4B16F4
:1028E6004D8EFF0E4C16FF0E4D16000E4E16535013
:1028F600545CD8B01BD0D8904C364D364E36530665
:1029060054505318D8B40DD0520652C04FF0070E8B
:102916004F16D8B406D0EFD7D8904B324A32493248
:10292600542A53505418D8B41FD0F6D75450535C79
:10293600D8B01AD0D89049364A364B365406545039
:102946005318D8B40DD0520652C04FF0070E4F168A
:10295600D8B406D0EFD7D8904E324D324C32532AE7
:1029660053505418D8A4F7D752AE0CD0FF0E491ABC
:10297600FF0E4A1AFF0E4B1A010E4926000E4A2276
:10298600000E4B2252AC0CD0FF0E4C1AFF0E4D1A05
:10299600FF0E4E1A010E4C26000E4D22000E4E2240
:1029A600000E526E49504C264A504D224B504E2234
:1029B6004EAE0ED0FF0E4C1AFF0E4D1AFF0E4E1ADB
:1029C600010E4C26000E4D22000E4E22010E526EB6
:1029D6004CC001F04DC002F04EC003F054C004F0EC
:1029E60052C005F092EC17F001C049F002C04AF05F
:1029F60003C04BF0120003C007F0086A096A0234EC
:102A0600073601E3088007500F6E0F50D8A409D08F
:102A1600000E016E000E026E000E036E000E046EB6
:102A2600120006C007F0086A096A0534073601E392
:102A3600088007500E6E0E50D8A409D0000E016E05
:102A4600000E026E000E036E000E046E1200028E61
:102A5600FF0E0116FF0E0216000E0316058EFF0E60
:102A66000416FF0E0516000E0616000E0A6E000E60
:102A76000B6E000E0C6E000E0D6E7F0E0F5E0E506E
:102A8600980F0F5E180E0E6ED8900A360B360C365F
:102A96000D360450015C0550025806500358D8A064
:102AA60007D00450015E0550025A0650035A0A80A8
:102AB600D8900136023603360E2EE6D70FAE16D064
:102AC6000F50800A970FD8B009D0000E016E000E85
:102AD600026E000E036E000E046E1200D8900D32C8
:102AE6000C320B320A320F3EF9D715D0170E0F648F
:102AF6000FD0000E016E000E026E000E036E000E69
:102B0600046E1200D8900A360B360C360D360F06B8
:102B16000F50D8A4F7D70AC001F00BC002F00CC0C2
:102B260003F00DC004F01200033404340C6E0C5094
:102B3600D8A409D0000E016E000E026E000E036EC0
:102B4600000E046E1200063407340B6E0B50D8A428
:102B560009D0000E016E000E026E000E036E000E0E
:102B6600046E1200038EFF0E0116FF0E0216FF0EF4
:102B76000316000E0416068EFF0E0416FF0E05162B
:102B8600FF0E0616000E0716000E076E000E086EE4
:102B9600000E096E000E0A6E7F0E0C5E0B50A00F23
:102BA6000C5E200E0B6ED8900736083609360A36AC
:102BB6000450015C0550025806500358075004584B
:102BC600D8A009D00450015E0550025A0650035A97
:102BD6000750045A0780D890013602360336043669
:102BE6000B2EE1D70CAE16D00C50800A9F0FD8B032
:102BF60009D0000E016E000E026E000E036E000E6E
:102C0600046E1200D8900A320932083207320C3E9E
:102C1600F9D715D01F0E0C640FD0000E016E000EF2
:102C2600026E000E036E000E046E1200D890073678
:102C3600083609360A360C060C50D8A4F7D707C052
:102C460001F008C002F009C003F00AC004F0120047
:102C560032C036F0376A386A3134363601E33780A7
:102C66003650396E3950D8A407D0000E306E000E9B
:102C7600316E000E326E120035C036F0376A386A91
:102C86003434363601E3378036503E6E3E50D8A493
:102C960007D0000E306E000E316E000E326E12003E
:102CA6003E507B0F392632C03EF035503E1A800E1C
:102CB6003E16318E348EFF0E3316FF0E3416000E7E
:102CC6003516000E3A6E000E3B6E000E3C6E070E79
:102CD6003D6E30A006D033503A2634503B22355054
:102CE6003C22D890323231323032D89033363436B4
:102CF60035363D2EEED7090E3D6E30A006D0335048
:102D06003A2634503B2235503C22D890323231326A
:102D16003032D8903C323B323A323D2EEED73AC072
:102D260001F03BC002F03CC003F039C004F03EC0E5
:102D360005F092EC17F001C030F002C031F003C08C
:102D460032F0120017C019F01A6A1B6A16341936C7
:102D560001E31A801950236E2350D8A409D0000E1F
:102D6600156E000E166E000E176E000E186E12000F
:102D7600170E196E15C01AF016C01BF017C01CF0FE
:102D860019281D6E04D0D8901C321B321A321D2E03
:102D9600FAD71A501E6E168EFF0E1516FF0E161651
:102DA600000E171615501F6E1650206E1750216E06
:102DB600226A8E0E235E23AE16D02350800A8F0F12
:102DC600D8B009D0000E156E000E166E000E176EE6
:102DD600000E186E1200D8902232213220321F3295
:102DE600233EF9D715D0170E23640FD0000E156EAB
:102DF600000E166E000E176E000E186E1200D8909A
:102E06001F3620362136223623062350D8A4F7D77C
:102E16001E50D8B408D0221E211E201E1F6C000E84
:102E26002022212222221FC015F020C016F021C028
:102E360017F022C018F0120048C04CF04D6A4E6AD6
:102E460047344C3601E34D804C50536E5350D8A452
:102E560007D0000E466E000E476E000E486E12003A
:102E66004BC04CF04D6A4E6A4A344C3601E34D80F5
:102E76004C50546E5450D8A407D0000E466E000E27
:102E8600476E000E486E1200000E506E000E516E18
:102E9600000E526E5450890F535E48C054F04B508A
:102EA600541A800E5416478EFF0E4616FF0E47160E
:102EB600000E48164A8EFF0E4916FF0E4A16000EE1
:102EC6004B16180E4F6ED890503651365236495022
:102ED600465C4A5047584B504858D8A007D04950EE
:102EE600465E4A50475A4B50485A5080D89046360C
:102EF600473648364F2EE7D750C001F051C002F092
:102F060052C003F053C004F054C005F092EC17F021
:102F160001C046F002C047F003C048F0120004505A
:102F2600D8B405D0015002100310D8A40CD0000E5E
:102F3600016E000E026E000E036E1200042AD89077
:102F4600033202320132000E0114066E000E021424
:102F5600076EFE0E0314086E065007100810D8B44C
:102F66000CD0ECD7042A010E0126000E0222000E18
:102F76000322D890033202320132000E0114066E8B
:102F8600000E0214076EFF0E0314086E065007109B
:102F96000810D8B406D0E6D70406D8900136023613
:102FA600033602BE03D0020E0460F6D704A0029ECA
:102FB600D8900432045003120550D8A4038E01C0E1
:102FC60001F002C002F003C003F01200056EF00E1D
:102FD6008116F00E93169494949094928B948B9001
:102FE6008B92A7EC1BF0300E56EC1AF0050E7CEC1B
:102FF6001BF0300E56EC1AF0010E7CEC1BF0320E74
:1030060056EC1AF075EC1AF00009D8A4FBD775EC4B
:103016001AF00009D8A4FBD7055056EC1AF075EC47
:103026001AF00009D8A4FBD7080E56EC1AF075EC76
:103036001AF00009D8A4FBD70F0E56EC1AF075EC5F
:103046001AF00009D8A4FBD7010E56EC1AF075EC5D
:103056001AF00009D8A4FBD7040E56EC1AF075EC4A
:103066001AF00009D8A4FBD7800ECEEC19F0120096
:1030760057AE16D055C05BF056C05CF057C05DF039
:103086005B1E5C1E5D1E5B2A000E5C225D22000E2E
:103096005B24556E000E5C20566E800E5D20576ECA
:1030A6005AAE16D058C05BF059C05CF05AC05DF0FD
:1030B6005B1E5C1E5D1E5B2A000E5C225D22000EFE
:1030C6005B24586E000E5C20596E800E5D205A6E91
:1030D600000E551A000E561A800E571A000E581A70
:1030E600000E591A800E5A1A5850555C59505658A7
:1030F6005A505758D8B002D0D8901200D880120033
:10310600000E0C6E0AAE06D0096C0A1ED8B00A2A4A
:10311600010E0C6E08AE06D0076C081ED8B0082A41
:10312600010E0C1A000E0E6E000E0D6E09500A10DE
:10313600D8B41CD0010E0B6E04D0D89009360A36CE
:103146000B2A0AAEFAD7D8900D360E360950075C10
:103156000A500858D8A005D00950075E0A50085AE8
:103166000D80D8900A3209320B2EEDD70C50D8B408
:1031760004D00D6C0E1ED8B00E2A0DC007F00EC07E
:1031860008F01200000E096E000E0A6E000E0B6E9D
:10319600000E0C6E0550061007100810D8B42AD081
:1031A600010E0D6E06D0D89005360636073608365F
:1031B6000D2A08AEF8D7D89009360A360B360C36E3
:1031C6000550015C06500258075003580850045831
:1031D600D8A009D00550015E0650025A0750035A7E
:1031E6000850045A0980D890083207320632053250
:1031F6000D2EE1D709C001F00AC002F00BC003F0A2
:103206000CC004F01200000E066E02AE06D0016C71
:10321600021ED8B0022A010E066E04AE04D0036C5C
:10322600041ED8B0042A03500410D8B418D0010ED6
:10323600056E04D0D89003360436052A04AEFAD7B4
:103246000350015C04500258D8A004D00350015E1C
:103256000450025AD89004320332052EF1D7065094
:10326600D8B404D0016C021ED8B0022A01C001F005
:1032760002C002F012000550061007100810D8B45C
:1032860024D0010E096E06D0D890053606360736CC
:103296000836092A08AEF8D70550015C06500258D0
:1032A6000750035808500458D8A008D00550015EAE
:1032B6000650025A0750035A0850045AD89008324A
:1032C600073206320532092EE7D701C001F002C0E7
:1032D60002F003C003F004C004F01200056E000EF5
:1032E600C26E000EC06ED89001303C0BC26E01C09B
:1032F60003F0033AF00E0316300E031602500F0BBE
:103306000310C16E05C003F0D8900336D89003367B
:10331600380E031605C004F0043A0F0E0416070E05
:1033260004160550800B04100310C06E01AE03D0C6
:103336009E9C9D8CF28CC28012008E0E2C6E06D046
:10334600D89027322632253224322C2A000E241415
:10335600286E000E2514296E000E26142A6EFF0E06
:1033660027142B6E285029102A102B10D8A4E8D722
:1033760024C001F025C002F026C003F02CC004F0E2
:10338600000E056E92EC17F001C024F002C025F085
:1033960003C026F01200046EF00E9316F00E81168E
:1033A6000450016E026A018E040E036E023402326C
:1033B6000132032EFBD701500F0B81128B948B9099
:1033C6006DEC1BF08B826DEC1BF08B92F00E811670
:1033D60004500F0B81126DEC1BF08B826DEC1BF011
:1033E6008B920F0E93121200600EF66E370EF76E6A
:1033F600000EF86E0900F5CF7BF00900F5CF7CF0E2
:103406000900F5CF7DF000EE9AF00A0EEE6AE806A6
:10341600FDE100EE73F0080EEE6AE806FDE1000E2F
:10342600F86E0001BBEF11F0585059105A10D8B47D
:1034360006D0000E581A000E591A800E5A1A55C098
:1034460049F056C04AF057C04BF058C04CF059C02E
:103456004DF05AC04EF028EC14F049C055F04AC061
:1034660056F04BC057F01200016EF00E9316F00E98
:10347600811601380F0B0F0B81128B808B946DEC2C
:103486001BF08B826DEC1BF08B92F00E81160150B7
:103496000F0B81126DEC1BF08B826DEC1BF08B9287
:1034A6000F0E93121200016EF00E9316F00E811697
:1034B60001380F0B0F0B81128B948B906DEC1BF068
:1034C6008B826DEC1BF08B92F00E811601500F0B68
:1034D60081126DEC1BF08B826DEC1BF08B920F0E44
:1034E600931212008B848B906DEC1BF08B826DEC2B
:1034F6001BF081A60AD08B926DEC1BF08B826DECD3
:103506001BF08B928B94010E12008B926DEC1BF0CC
:103516008B826DEC1BF08B928B94000E1200280EA2
:10352600E9EC17F075EC1AF00009D8A4FBD7060EE3
:1035360056EC1AF075EC1AF00009D8A4FBD70C0E5D
:1035460056EC1AF075EC1AF00009D8A4FBD7010E58
:1035560056EC1AF012000FD075EC1AF00009D8A438
:10356600FBD702C0F6FF03C0F7FF0800F55037ECA3
:103576001AF0024A032A02C0F6FF03C0F7FF08004A
:10358600F5500009D8B41200E7D7000E066E000EFB
:10359600096E000E0A6E000E076E000E0B6E000E10
:1035A600086E09680A68FD0E0B6EABEC1BF0850E03
:1035B600016EFD0E026E850E71EC19F012000ED032
:1035C60075EC1AF00009D8A4FBD702C0D9FF03C0D6
:1035D600DAFFDF5037EC1AF0024A032A02C0D9FF9D
:1035E60003C0DAFFDF50D8B41200EAD7000E036E2C
:1035F600000E026E03BE06D003500EE10A0E025CF8
:10360600D8B01200820E016EDE0EE82EFED7012E15
:10361600FCD7024A032AEED71200000E036E000EF4
:10362600026E03BE06D003500EE1140E025CD8B043
:103636001200820E016EDE0EE82EFED7012EFCD79A
:10364600024A032AEED712000F501102F3CF13F0ED
:10365600F4CF14F00F501202F3501426105011023A
:10366600F350142613C00FF014C010F012002D50A2
:103676002E102F10D8B406D0000E2D1A000E2E1ABA
:10368600800E2F1A2DC02DF02EC02EF02FC02FF039
:10369600120009C001F00AC002F0036A8E0E046E21
:1036A600000E056E92EC17F001C009F002C00AF098
:1036B60003C00BF01200036E000E026E3A0E03609A
:1036C60005D02F0E036402D0010E026E02C001F077
:1036D6000130120000F000F000F000F000F000F001
:1036E60000F000F000F000F000F000F000F000F054
:1036F6001200026E0D0E016EFC0EE82EFED7012E94
:10370600FCD7022EF7D71200026EC2CF01F0C30E0D
:103716000116D89002303C0B0110C26E1200016EE9
:10372600C80E00D0E82EFDD7012EFAD71200C450DD
:10373600036EC350016E03C002F01200C2A202D093
:10374600010E1200000E12001E0E92EC1BF012006B
:0D375600C2909D9C1200C282120000204013
:020000040020DA
:08000000FFFFFFFFFFFFFFFF00
:020000040030CA
:0E000000FF09191EFF0080FF0FC00FE00F4028
:00000001FF
