:0400000007EF00F016
:1000080068823AED0FF0ABEF1BF0B90E0101426FB9
:10001800000E0101436F16EF0AF0250E0101571972
:10002800D8B40BD0B5C0D9FFB6C0DAFF57C1DFFFCF
:100038000001B54BB62B16EF0AF0000E0101496F0F
:10004800000E486F000E01014F6F000E4E6F05D075
:1000580001014E870001B74BB82BB7C0F6FFB8C0F7
:10006800F7FF0800F5502D0AD8B4F2D7B7C0F6FF4D
:10007800B8C0F7FF0800F5500CEC1FF0D8A03FD02F
:10008800000E0101496F000E486F48C125F049C1B3
:1000980026F0000E286E0A0E276ED5EC1EF025C03D
:1000A80048F126C049F1D00E0001BC6FFF0E0001D7
:1000B800BD6FB7C0F6FFB8C0F7FF0800F5500001E4
:1000C800BE6FBF6B0001BC510001BE270001BD51CE
:1000D8000001BF230001BE51010148270001BF51A3
:1000E800010149230001B74BB82BB7C0F6FFB8C0D0
:1000F800F7FF0800F5500CEC1FF0D8B0C6D7B7C012
:10010800F6FFB8C0F7FF0800F5502E0AD8A434D07F
:1001180001014F8D0001B74BB82B000E0101566F3E
:10012800000E556F1ED055C125F056C126F0000EA1
:10013800286E0A0E276ED5EC1EF0B7C0F6FFB8C0C1
:10014800F7FF0800F5502526000E2622D00E25249C
:100158000101556FFF0E26200101566F0001B74BB4
:10016800B82BB7C0F6FFB8C0F7FF0800F5500CEC85
:100178001FF0D8A010D0D7D7000E0101566F000E7F
:10018800556F01014F8907D001014F831CD0C00E64
:1001980001014E1318D0B7C0F6FFB8C0F7FF000131
:1001A800B74BB82B0800F5CF57F101015751000A9A
:1001B800D8B425EF0AF0670AD8B4E6D7120AD8B43B
:1001C800E6D716EF0AF0070E01014F15D8B49BEFDA
:1001D80008F001014FA905D0000E0101566F060E67
:1001E800556F42C1D9FF43C1DAFFDECF52F1DECFEE
:1001F80053F1DDCF54F1030E01014227000E4323D2
:10020800010154AF11D052C11FF053C120F054C1A5
:1002180021F0E8EC1EF01FC052F120C053F121C0BC
:1002280054F1030E01014E13000E0101516F000E2F
:10023800506F010152510101531101015411D8B4F9
:1002480099D0820E0001BC6FFF0E0001BD6F52C134
:10025800BEF053C1BFF054C1C0F055C1C1F0100E7B
:1002680006D00001D890C133C033BF33BE33E82E67
:10027800F8D70001BE510001BC250101506F000EE6
:100288000001BD210101516F01015007D8A051079C
:1002980050C125F051C126F0000E286E030E276EBE
:1002A800D5EC1EF025C050F126C051F150C11DF00B
:1002B80051C11EF0000E206E0A0E1F6EEDEC1AF0F2
:1002C8001DC050F11EC051F1010151AF04D0010110
:1002D8005007D8A0510701015051000842EC0DF019
:1002E80044C044F145C045F146C046F144C135F02B
:1002F80045C136F046C137F052C138F053C139F024
:1003080054C13AF076EC18F035C044F136C045F1E6
:1003180037C046F144C1ACF045C1ADF046C1AEF0BE
:10032800000E0001AF6F800E0001B06F3F0E00019C
:10033800B16FE0EC19F00001D8B005D00101500709
:10034800D8A0510717D044C1ACF045C1ADF046C1A3
:10035800AEF0000E0001AF6F200E0001B06F410E2D
:100368000001B16FE0EC19F00001D8A003D0010141
:10037800504B512B010151BF07D00101515108E1E8
:1003880001015005D8B004D0010E0101576F02D009
:1003980050C157F101014FA3F8D2010151AF08D064
:1003A800FC0E0101505DFF0E01015159D8A010D07B
:1003B800010155510101505D01015151800A0001AF
:1003C800BC6F01015651800A0001BC59D8A0DDD28A
:1003D8000101555101015611D8B407D001014FA3AD
:1003E80004D001015507D8A056070101565105E16F
:1003F800090E0101555DD8A004D0080E0101576F00
:1004080002D055C157F101015251010153110101A7
:100418005411D8B4F5D052C14BF053C14CF054C16B
:100428004DF00101575100080101502542EC0DF033
:1004380044C04EF045C04FF046C050F067EC17F08E
:100448004BC052F14CC053F14DC054F152C1A3F00E
:1004580053C1A4F054C1A5F052C189F053C18AF028
:1004680054C18BF07AEC14F089C098F08AC099F0E6
:100478008BC09AF08CC09BF070EC1BF098C01FF0FA
:1004880099C020F09AC021F0E8EC1EF01FC0A0F03F
:1004980020C0A1F021C0A2F070EC10F0A0C0ACF018
:1004A800A1C0ADF0A2C0AEF0000E0001AF6F000E0B
:1004B8000001B06F3F0E0001B16FE0EC19F00001D0
:1004C800D8A017D052C1A0F053C1A1F054C1A2F0D6
:1004D800000E0001A36F000E0001A46F3F0E000183
:1004E800A56F70EC10F0A0C052F1A1C053F1A2C0EA
:1004F80054F157C1BCF00001BD6BBCBFBD07000182
:10050800D890BC37BD370001D890BC37BD37040E32
:100518000001BC27000EBD23550E0001BC25F66E58
:10052800BE0EBD21F76E52C189F053C18AF054C185
:100538008BF07AEC14F00900F5500001895D090090
:10054800F55000018A590900F55000018B5909003E
:10055800F55000018C59D8A018D052C135F053C1BC
:1005680036F054C137F0CD0E386ECC0E396E3D0ED4
:100578003A6E76EC18F035C052F136C053F137C0F8
:1005880054F10101504B512B3BD001015751040D3F
:10059800550EF324F66EBE0EF420F76E52C189F0A4
:1005A80053C18AF054C18BF07AEC14F00900F5506D
:1005B8000001895D0900F55000018A590900F550CC
:1005C80000018B590900F55000018C59D8B018D09A
:1005D80052C135F053C136F054C137F0000E386EB1
:1005E800200E396E410E3A6E76EC18F035C052F195
:1005F80036C053F137C054F101015007D8A0510754
:10060800050E010155250001BC6F000E01015621A0
:100618000001BD6F0001BC510101485F0001BD51DF
:100628000101495B030E01014E150001BC6F000E6C
:1006380001014F150001BD6F0001BC510001BD1142
:10064800D8B404D001014807D8A0490701014EA732
:100658000ED017D0B5C0D9FFB6C0DAFF200EDF6EB6
:100668000001B54BB62B01014807D8A04907010185
:1006780049BF07D001014951EDE101014805D8B052
:10068800E9D7030E01014E150001BC6F000E0101F0
:100698004F150001BD6F0001BC510001BD11D8B458
:1006A80009D0B5C0D9FFB6C0DAFF2D0EDF6E000144
:1006B800B54BB62B52C189F053C18AF054C18BF0A7
:1006C8007AEC14F089C04AF18AC04BF18BC04CF126
:1006D8008CC04DF14AC117F04BC118F04CC119F04C
:1006E8004DC11AF001015751040D550EF324F66E51
:1006F800BE0EF420F76E0900F5CF1BF00900F5CF08
:100708001CF00900F5CF1DF00A00F5CF1EF02FEC04
:100718001BF01750300FB5C0D9FFB6C0DAFFDF6E37
:100728000001B54BB62B4AC124F04BC125F04CC192
:1007380026F04DC127F001015751040D550EF32441
:10074800F66EBE0EF420F76E0900F5CF28F009000A
:10075800F5CF29F00900F5CF2AF00A00F5CF2BF0E4
:100768001CEC1CF024C04AF125C04BF126C04CF10A
:1007780027C04DF10101555101015611D8B496D049
:10078800B5C0D9FFB6C0DAFF2E0EDF6E0001B54B3B
:10079800B62B010157510101555F000E010157BFEA
:1007A800FF0E0101565B68D001014FA315D001016E
:1007B8004A5101014B1101014C1101014D11D8A4FD
:1007C8000BD0000E0101576F010157510101556F00
:1007D800566B55BF560764D04AC117F04BC118F085
:1007E8004CC119F04DC11AF001015751040D550EB5
:1007F800F324F66EBE0EF420F76E0900F5CF1BF059
:100808000900F5CF1CF00900F5CF1DF00A00F5CF5F
:100818001EF02FEC1BF01750300FB5C0D9FFB6C033
:10082800DAFFDF6E0001B54BB62B4AC124F04BC18D
:1008380025F04CC126F04DC127F001015751040D98
:10084800550EF324F66EBE0EF420F76E0900F5CFB0
:1008580028F00900F5CF29F00900F5CF2AF00A00A1
:10086800F5CF2BF01CEC1CF024C04AF125C04BF14D
:1008780026C04CF127C04DF1010157070101572946
:10088800D8B40ED091D7B5C0D9FFB6C0DAFF300EB4
:10089800DF6E0001B54BB62B01015507D8A05607EE
:1008A8000101555101015611D8A4EDD7B5C0D9FFA2
:1008B800B6C0DAFF650EDF6E0001B54BB62B01013D
:1008C80051AF0FD00101506D511FD8B0512BB5C099
:1008D800D9FFB6C0DAFF2D0E09D00001B54BB62BF3
:1008E80007D0B5C0D9FFB6C0DAFF2B0EDF6EF5D73B
:1008F80050C11DF051C11EF0000E206E0A0E1F6E71
:10090800EDEC1AF01D50300FB5C0D9FFB6C0DAFFB4
:10091800DF6E0001B54BB62B50C117F051C118F06E
:10092800000E1A6E0A0E196EE4EC1BF01750300F09
:10093800B5C0D9FFB6C0DAFFDF6E0001B54BB62BE4
:1009480001014EA716EF0AF0010149BF16EF0AF0A0
:100958000101495105E101014805D8A016EF0AF047
:10096800B5C0D9FFB6C0DAFF200EDF6E0001B54B67
:10097800B62B01014807D8A04907010148510101D8
:100988004911D8B416EF0AF0EBD701014FA304D1EF
:10099800010151AF12D0010E010150250001BC6FB9
:1009A800000E010151210001BD6F0001BC51010180
:1009B800555F0001BD510101565B52C189F053C119
:1009C8008AF054C18BF07AEC14F089C04AF18AC0DD
:1009D8004BF18BC04CF18CC04DF1000E0101576FEB
:1009E8000A0E01015719D8B41ED001015751040D40
:1009F800550EF324F66EBE0EF420F76E0900F5507E
:100A080001014A5D0900F55001014B590900F550F3
:100A180001014C590900F55001014D59D8A003D0E6
:100A28000101572BDDD7010157510101555F000E18
:100A3800010157BFFF0E0101565B010156BF08D0E7
:100A4800010156511DE10D0E0101555DD8B018D0B8
:100A580052C1A0F053C1A1F054C1A2F001015551F7
:100A6800A4EC11F044C0A3F045C0A4F046C0A5F022
:100A780070EC10F0A0C052F1A1C053F1A2C054F123
:100A88000101555142EC0DF044C03FF145C040F121
:100A980046C041F13FC135F040C136F041C137F0A1
:100AA80052C1A3F053C1A4F054C1A5F04AC198F0B3
:100AB8004BC199F04CC19AF04DC19BF070EC1BF002
:100AC80098C01FF099C020F09AC021F0E8EC1EF001
:100AD8001FC0A0F020C0A1F021C0A2F070EC10F05F
:100AE800A0C038F0A1C039F0A2C03AF076EC18F0F6
:100AF80035C03FF136C040F137C041F13FC189F000
:100B080040C18AF041C18BF07AEC14F089C04AF1F7
:100B18008AC04BF18BC04CF18CC04DF11ED04AC13C
:100B280017F04BC118F04CC119F04DC11AF00A0E5C
:100B38001B6E000E1C6E000E1D6E000E1E6E2FEC3E
:100B48001BF017C04AF118C04BF119C04CF11AC07C
:100B58004DF101015507D8A0560701015551010172
:100B68005611D8B43CD04AC124F04BC125F04CC131
:100B780026F04DC127F00A0E286E000E296E000ED1
:100B88002A6E000E2B6E1CEC1CF02450251026102B
:100B98002710D8A424D0C3D7010156BF08D001011B
:100BA80056511DE10D0E0101555DD8B018D052C146
:100BB800A0F053C1A1F054C1A2F001015551A4EC19
:100BC80011F044C0A3F045C0A4F046C0A5F070ECF5
:100BD80010F0A0C052F1A1C053F1A2C054F101011C
:100BE80051BF08D0010151512AE10A0E0101505D9F
:100BF800D8B025D0010152510101531101015411FE
:100C0800D8B463D052C189F053C18AF054C18BF073
:100C18007AEC14F00001895100018A1100018B114E
:100C280000018C11D8A451D0010151BF4ED001014F
:100C3800515105E1020E0101505DD8A046D044C1D2
:100C4800ACF045C1ADF046C1AEF0700E0001AF6F1B
:100C5800890E0001B06F400E0001B16FE0EC19F091
:100C68000001D8B003D00101F70E02D00101F80E3F
:100C78005027FF0E51230101505142EC0DF044C0A2
:100C880044F145C045F146C046F152C117F053C181
:100C980018F054C119F044C11AF045C11BF046C1FF
:100CA8001CF01CEC15F017C04AF118C04BF119C024
:100CB8004CF11AC04DF1000E0101526F000E0101F6
:100CC800536F000E0101546F33D052C189F053C1E4
:100CD8008AF054C18BF07AEC14F089C04AF18AC0CA
:100CE8004BF18BC04CF18CC04DF152C1ACF053C1EB
:100CF800ADF054C1AEF04AC198F04BC199F04CC167
:100D08009AF04DC19BF070EC1BF098C0AFF099C001
:100D1800B0F09AC0B1F058EC1DF0ACC052F1ADC0C3
:100D280053F1AEC054F1000E0101516F000E506F27
:100D3800010E0101576F0A0E01015719D8B41ED0D0
:100D480001015751040D550EF324F66EBE0EF42022
:100D5800F76E0900F55001014A5D0900F5500101DF
:100D68004B590900F55001014C590900F550010192
:100D78004D59D8A003D00101572BDDD757C1BCF07E
:100D88000001BD6BBCBFBD07010155510001BC2767
:100D9800010156510001BD23010150510001BC273A
:100DA800010151510001BD230001BC510101485FFF
:100DB8000001BD510101495B010155510101561165
:100DC800D8B404D001014807D8A04907030E01018F
:100DD8004E150001BC6F000E01014F150001BD6FDB
:100DE8000001BC510001BD11D8B404D0010148076D
:100DF800D8A0490701014EA70ED017D0B5C0D9FF1A
:100E0800B6C0DAFF200EDF6E0001B54BB62B01012C
:100E18004807D8A04907010149BF07D00101495136
:100E2800EDE101014805D8B0E9D7030E01014E15DF
:100E38000001BC6F000E01014F150001BD6F0001DC
:100E4800BC510001BD11D8B454D0B5C0D9FFB6C04B
:100E5800DAFF2D0E4CD00001B54BB62B4AD04AC153
:100E680017F04BC118F04CC119F04DC11AF001012F
:100E78005751040D550EF324F66EBE0EF420F76E8E
:100E88000900F5CF1BF00900F5CF1CF00900F5CFDC
:100E98001DF00A00F5CF1EF02FEC1BF017C044F12F
:100EA80018C045F119C046F11AC047F144C124F0F1
:100EB80045C125F046C126F047C127F00A0E286E25
:100EC800000E296E000E2A6E000E2B6E1CEC1CF014
:100ED80024C044F125C045F126C046F127C047F19A
:100EE80001014451300FB5C0D9FFB6C0DAFFDF6E3B
:100EF800B2D70101570701015729D8B40ED0AFD78F
:100F0800B5C0D9FFB6C0DAFF300EDF6E0001B54BB1
:100F1800B62B01015007D8A05107010151BF07D0D6
:100F280001015151EDE101015005D8B0E9D70101A6
:100F380056BF0CD00101565105E1090E0101555D5E
:100F4800D8A004D0080E0101576F02D055C157F13F
:100F5800010157510101555F000E010157BFFF0EF6
:100F68000101565B010157510101D8B409D0B5C040
:100F7800D9FFB6C0DAFF2E0EDF6E0001B54BB62BD7
:100F88000101575142EC0DF044C03CF145C03DF120
:100F980046C03EF152C138F053C139F054C13AF05D
:100FA8003CC135F03DC136F03EC137F076EC18F063
:100FB80035C089F036C08AF037C08BF07AEC14F06F
:100FC80089C04AF18AC04BF18BC04CF18CC04DF1FD
:100FD80073D04AC117F04BC118F04CC119F04DC17C
:100FE8001AF001015751040D550EF324F66EBE0E8A
:100FF800F420F76E0900F5CF1BF00900F5CF1CF0BF
:101008000900F5CF1DF00A00F5CF1EF02FEC1BF0FC
:1010180017C044F118C045F119C046F11AC047F18C
:1010280044C124F045C125F046C126F047C127F048
:101038000A0E286E000E296E000E2A6E000E2B6E08
:101048001CEC1CF024C044F125C045F126C046F133
:1010580027C047F101014451300FB5C0D9FFB6C0D0
:10106800DAFFDF6E0001B54BB62B4AC124F04BC145
:1010780025F04CC126F04DC127F001015751040D50
:10108800550EF324F66EBE0EF420F76E0900F5CF68
:1010980028F00900F5CF29F00900F5CF2AF00A0059
:1010A800F5CF2BF01CEC1CF024C04AF125C04BF105
:1010B80026C04CF127C04DF10101570701015729FE
:1010C800D8B40ED086D7B5C0D9FFB6C0DAFF300E77
:1010D800DF6E0001B54BB62B01015507D8A05607A6
:1010E8000101555101015611D8A4EDD701014EA7B0
:1010F80099D1010149BF96D10101495104E101018A
:101108004805D8A08FD1B5C0D9FFB6C0DAFF200EE8
:10111800DF6E0001B54BB62B01014807D8A049077F
:101128000101485101014911D8B47CD1ECD742C121
:10113800D9FF43C1DAFFDECFBCF0DDCFBDF0BCC0C4
:101148004AF1BDC04BF101014C6B4D6B020E010120
:101158004227000E43230101555101015611D8A41D
:101168000DD001014A5101014B1101014C1101013E
:101178004D11D8A403D00101554B562B010E010186
:10118800576F0A0E01015719D8B41ED001015751E3
:10119800040D550EF324F66EBE0EF420F76E09000A
:1011A800F55001014A5D0900F55001014B5909004C
:1011B800F55001014C590900F55001014D59D8A0CD
:1011C80003D00101572BDDD7800E010157BF7F0ED9
:1011D8000001BC6F010155510101575D01015651D4
:1011E800800A0001BC59D8B003D055C157F118D0B6
:1011F80001015651800A0001BC6F010157510101DC
:10120800555D800E010157BF7F0E0001BC59D8B053
:1012180007D0010157510101556F566B55BF56074D
:101228000101485101014911D8B414D0030E01013C
:101238004E150001BC6F000E01014F150001BD6F76
:101248000001BC510001BD11D8B404D00101480708
:10125800D8A0490701014FAD1ED001014851010135
:10126800555D01015651800A0001BC6F01014951C9
:10127800800A0001BC59D8B009D0010155510101BB
:10128800485F010156510101495B05D0000E01017B
:10129800496F000E486F800E010157BF7F0E000195
:1012A800BC6F010148510101575D01014951800A94
:1012B8000001BC59D8B00BD0010157510101485F5A
:1012C800000E010157BFFF0E0101495B05D0000E5A
:1012D8000101496F000E486F010148510101491190
:1012E800D8B416D001014EB713D0B5C0D9FFB6C0D7
:1012F800DAFF200EDF6E0001B54BB62B010148075F
:10130800D8A049070101485101014911D8A4EDD7D6
:10131800030E01014E150001BC6F000E01014F15AF
:101328000001BD6F0001BC510001BD11D8B44FD000
:10133800B5C0D9FFB6C0DAFF2D0EDF6E45D055C156
:10134800BCF056C1BDF00001D890BC37BD370001D4
:10135800D890BC37BD37550E0001BC25F66EBE0EC1
:10136800BD21F76E0900F5CF1BF00900F5CF1CF081
:101378000900F5CF1DF00A00F5CF1EF04AC117F09D
:101388004BC118F04CC119F04DC11AF02FEC1BF0ED
:1013980017C024F018C025F019C026F01AC027F08D
:1013A8000A0E286E000E296E000E2A6E000E2B6E95
:1013B8001CEC1CF02450300F0101576FB5C0D9FF49
:1013C800B6C0DAFF57C1DFFF0001B54BB62B0101EC
:1013D8005507D8A0560701015529B1E10101562941
:1013E800D8A4ADD701014EA71DD0010149BF1AD01D
:1013F8000101495104E101014805D8A013D0B5C045
:10140800D9FFB6C0DAFF200EDF6E0001B54BB62B50
:1014180001014807D8A049070101485101014911B4
:10142800D8A4EDD7B7C0F6FFB8C0F7FF0001B74B97
:10143800B82B0800F5CF57F101015751D8A411EF87
:1014480000F0B5C0D9FFB6C0DAFF000EDF6E12009B
:10145800760ED36E070EB46E54EC1FF0F286000EB3
:10146800F16ED09EF5EC1DF0AEEC1EF0C2EC1EF055
:101478003DEC1EF00FEC1EF0D9EC1DF0EE0E186ED0
:10148800BE0E196E7EEC1CF0400E2FEC1DF0DA0E2D
:10149800186EBF0E196E7EEC1CF054EC1EF054EC66
:1014A8001EF098EC1FF0000E0001E46F000EE36FD1
:1014B800870E84EC1FF0000E0001CB6F000ECA6F80
:1014C8000001CBBF08D00001CB5118E1100E00017C
:1014D800CA5DD8B013D0C3EC1FF0B0EC1FF0000900
:1014E800D8A4FBD7A9EC1FF017500001E327185028
:1014F8000001E4230001CA4BCB2BE2D70001E33BF8
:10150800E43B0F0EE317E451F00BE3130F0EE4175F
:10151800EFC0A3F0F0C0A4F0F1C0A5F0000E4E6E2D
:10152800800E4F6E440E506EF5C038F0F6C039F09C
:10153800F7C03AF0E3C032F0E4C033F0FAEC1EF042
:1015480032C035F033C036F034C037F076EC18F0DE
:1015580035C04BF036C04CF037C04DF067EC17F093
:101568004BC0A0F04CC0A1F04DC0A2F070EC10F040
:10157800A0C0C7F0A1C0C8F0A2C0C9F0C7C035F06C
:10158800C8C036F0C9C037F0000E386EC00E396ECC
:10159800400E3A6E76EC18F035C0DAF036C0DBF063
:1015A80037C0DCF01E0E0001B56F010E0001B66FEA
:1015B800CE0E0001B76FBF0E0001B86FDAC0B9F0E8
:1015C800DBC0BAF0DCC0BBF009EC00F0000E000193
:1015D800E46F000EE36F8F0E84EC1FF0000E000125
:1015E800CD6F000ECC6F0001CDBF08D00001CD51EA
:1015F80018E1100E0001CC5DD8B013D0C3EC1FF079
:10160800B0EC1FF00009D8A4FBD7A9EC1FF01750C5
:101618000001E32718500001E4230001CC4BCD2B37
:10162800E2D70001E33BE43B0F0EE317E451F00B74
:10163800E3130F0EE417000E4E6E800E4F6E440E2D
:10164800506EF5C038F0F6C039F0F7C03AF0E3C094
:1016580032F0E4C033F0FAEC1EF032C035F033C09B
:1016680036F034C037F076EC18F035C04BF036C0A1
:101678004CF037C04DF067EC17F04BC0A0F04CC0F1
:10168800A1F04DC0A2F0EFC0A3F0F0C0A4F0F1C0EB
:10169800A5F070EC10F0A0C0D7F0A1C0D8F0A2C09F
:1016A800D9F0140E0001B56F010E0001B66FCE0E11
:1016B8000001B76FBF0E0001B86FD7C0B9F0D8C02E
:1016C800BAF0D9C0BBF009EC00F0000E0001E46FDD
:1016D800000EE36F0001FA05D8A4F4D084B620D038
:1016E800000E0001FA6F010E0001E76F000E000105
:1016F800E06F000EDF6F0001E81F050E566E000157
:10170800E8510001D8A402D0060E566E98EC1FF0DE
:10171800010E0001E66F000E0001DE6F000EDD6FA6
:1017280080AA65D06BD0000E0001FA6F010E00018F
:10173800E76F000E0001E06F000EDF6F010E000181
:10174800E66F000E0001DE6F000EDD6F5DC0C5F0B4
:101758005EC0C6F00001C51FC61FC54BC62BFF0ED5
:101768000001C527000EC6230001C551615C0001B8
:10177800C6516258D8B006D05D506124616E5E5083
:101788006220626EAEEC1EF039D0000E0001FA6FD6
:10179800010E0001E76F000E0001E06F000EDF6F21
:1017A800010E0001E66F000E0001DE6F000EDD6F16
:1017B8005DC0C5F05EC0C6F00001C51FC61FC54BA1
:1017C800C62BFF0E0001C527000EC6230001C55118
:1017D8005F5C0001C6516058D8B006D05D505F24E8
:1017E8005F6E5E506020606EC2EC1EF007D05650EF
:1017F800050AD8B498D7030AD8B4C7D780AC5BD049
:1018080061D0000E0001FA6F010E0001E76F000EB3
:101818000001E06F000EDF6F010E0001E66F000EA1
:101828000001DE6F000EDD6F61505D5C62505E5836
:10183800D8B011D05DC0C5F05EC0C6F00001C51FAC
:10184800C61FC54BC62B61500001C525616E62508D
:101858000001C621626EAEEC1EF034D0000E00010D
:10186800FA6F010E0001E76F000E0001E06F000E35
:10187800DF6F010E0001E66F000E0001DE6F000E43
:10188800DD6F5F505D5C60505E58D8B011D05DC0B0
:10189800C5F05EC0C6F00001C51FC61FC54BC62BEC
:1018A8005F500001C5255F6E60500001C621606E63
:1018B800C2EC1EF007D05650050AD8B4A2D7030AC6
:1018C800D8B4CCD70001FA05D8B480B421D0000E22
:1018D8000001FA6F010E0001E76F000E0001E06FD2
:1018E800000EDF6F050E566006D05628566EF28E33
:1018F800040E566403D0000E566EF29E98EC1FF04C
:10190800010E0001E66F000E0001DE6F000EDD6FB4
:101918000001E705D8A41DD0010E0001DF25000154
:10192800DF6F000E0001E0210001E06F0001E051CF
:1019380005E10B0E0001DF5DD8A00BD0000E000101
:10194800E06F000EDF6F010E0001FA6F000E00015C
:10195800E76F0001E605D8A46ED0010E0001DD2571
:101968000001DD6F000E0001DE210001DE6F0001C5
:10197800DE5105E1430E0001DD5DD8A016D000015F
:10198800F805D8A405D00001F91F000E0001F86F72
:101998000001F905D8A404D0000E5E6E010E03D034
:1019A800000E5E6E0A0E5D6E03D0010E0001F86F28
:1019B8000001DE5105E1790E0001DD5DD8A03BD0C4
:1019C800000E0001DE6F000EDD6F000E0001E66FF5
:1019D800000E566E98EC1FF0F29E010E0001F96F92
:1019E800000E5E6E010E5D6E010E0001F86F23D0D1
:1019F800C7EC12F01ED0D7EC13F0F28E35D049ECBC
:101A080016F0F28E000E04D0D8EC16F0F28E010E0D
:101A18000001E56F29D0EFEC17F0020E0001E56F29
:101A280008D0F0EC18F005D068EC19F002D099EC69
:101A38001EF0F29E19D05650000AD8B4D9D7010A20
:101A4800D8B4D9D7030AD8B4DAD7010AD8B4DCD7BE
:101A5800070AD8B4E0D7010AD8B4E3D7030AD8B440
:101A6800E3D7010AD8B4E3D7030E0001C56F970E78
:101A7800E82EFED7C52FFCD700D015D54A6E4AAE42
:101A8800FBD04A6C4A50800A120FD8A091D0000EA1
:101A9800286E030E276E000E206E0A0E1F6E000EB3
:101AA8001A6E640E196E4A50176E186A17BE180619
:101AB800E4EC1BF017C01DF018C01EF0EDEC1AF096
:101AC800090E1D24256E000E1E20266ED5EC1EF074
:101AD800A40E2524F66EBE0E2620F76E0900F5CF5B
:101AE80038F00900F5CF39F00A00F5CF3AF0000ECA
:101AF800206E640E1F6E4A501D6E1E6A1DBE1E06A5
:101B0800EDEC1AF0120E1D24256E000E1E20266E16
:101B1800000E286E030E276ED5EC1EF0A40E2524A9
:101B2800F66EBE0E2620F76E0900F5CF35F00900D7
:101B3800F5CF36F00A00F5CF37F076EC18F035C05F
:101B480047F036C048F037C049F047C035F048C0C4
:101B580036F049C037F0000E286E030E276E000ECF
:101B68001A6E0A0E196E4A50176E186A17BE1806B2
:101B7800E4EC1BF017C025F018C026F0D5EC1EF0D9
:101B8800A40E2524F66EBE0E2620F76E0900F5CFAA
:101B980038F00900F5CF39F00A00F5CF3AF076ECC5
:101BA80018F035C044F036C045F037C046F0120092
:101BB8004A50800A750FD8A04DD0000E206E0A0E2C
:101BC8001F6E4A501D6E1E6A1DBE1E06EDEC1AF0F1
:101BD800090E1D24256E000E1E20266E000E286E8E
:101BE800030E276ED5EC1EF0A40E2524F66EBE0E4D
:101BF8002620F76E0900F5CF35F00900F5CF36F04D
:101C08000A00F5CF37F0000E286E030E276E000E7F
:101C18001A6E0A0E196E4A50176E186A17BE180601
:101C2800E4EC1BF017C025F018C026F0D5EC1EF028
:101C3800A40E2524F66EBE0E2620F76E0900F5CFF9
:101C480038F00900F5CF39F00A00F5CF3AF076EC14
:101C580018F0A7D74A50030DA40EF324F66EBE0E53
:101C6800F420F76E0900F5CF44F00900F5CF45F0F0
:101C78000A00F5CF46F012004A50800A120FD8A089
:101C880091D0000E286E030E276E000E206E0A0EED
:101C98001F6E000E1A6E640E196E4A50176E186A7F
:101CA80017BE1806E4EC1BF017C01DF018C01EF094
:101CB800EDEC1AF0090E1D24256E000E1E20266E6E
:101CC800D5EC1EF07D0E2524F66EBE0E2620F76E8E
:101CD8000900F5CF38F00900F5CF39F00A00F5CF43
:101CE8003AF0000E206E640E1F6E4A501D6E1E6A7A
:101CF8001DBE1E06EDEC1AF0120E1D24256E000EF8
:101D08001E20266E000E286E030E276ED5EC1EF0E0
:101D18007D0E2524F66EBE0E2620F76E0900F5CF3F
:101D280035F00900F5CF36F00A00F5CF37F076EC3C
:101D380018F035C047F036C048F037C049F047C002
:101D480035F048C036F049C037F0000E286E030E53
:101D5800276E000E1A6E0A0E196E4A50176E186A10
:101D680017BE1806E4EC1BF017C025F018C026F0C3
:101D7800D5EC1EF07D0E2524F66EBE0E2620F76EDD
:101D88000900F5CF38F00900F5CF39F00A00F5CF92
:101D98003AF076EC18F035C044F036C045F037C05C
:101DA80046F012004A50800A750FD8A04DD0000E98
:101DB800206E0A0E1F6E4A501D6E1E6A1DBE1E063C
:101DC800EDEC1AF0090E1D24256E000E1E20266E5D
:101DD800000E286E030E276ED5EC1EF07D0E25240E
:101DE800F66EBE0E2620F76E0900F5CF35F0090015
:101DF800F5CF36F00A00F5CF37F0000E286E030E47
:101E0800276E000E1A6E0A0E196E4A50176E186A5F
:101E180017BE1806E4EC1BF017C025F018C026F012
:101E2800D5EC1EF07D0E2524F66EBE0E2620F76E2C
:101E38000900F5CF38F00900F5CF39F00A00F5CFE1
:101E48003AF076EC18F0A7D74A50030D7D0EF3242C
:101E5800F66EBE0EF420F76E0900F5CF44F00900C7
:101E6800F5CF45F00A00F5CF46F012000600FACF8C
:101E780009F0FBCF0AF0E9CF0BF0EACF0CF0E1CF85
:101E88000DF0E2CF0EF0D9CF0FF0DACF10F0F3CF8C
:101E980011F0F4CF12F0F6CF13F0F7CF14F0F8CF1B
:101EA80015F0F5CF16F0F29EF2A0F8D081AA16D060
:101EB8000001E551D8A412D0000E646E000E636EC6
:101EC8006BEC1EF0000E646E0B0E636E070E566E02
:101ED800000E0001DE6F000EDD6FDBD080A802D09F
:101EE800010E01D0000E076E81AE02D0010E01D0A6
:101EF800000E071AD8A402D0000E01D0010E556EAC
:101F0800030E076E980EE82EFED7072EFCD7000E9C
:101F18000001DE6F000EDD6FB1D05504D8A412D0D9
:101F28005D506324076E5E506420086E100E085CD6
:101F3800D8B006D05D506324636E5E506420646E32
:101F48006BEC1EF05550D8A4A4D05DC007F05EC05D
:101F580008F0071E081E074A082A6350072664501F
:101F6800082207505D5C08505E58D8B00ED05DC09E
:101F780007F05EC008F0071E081E074A082A6350CB
:101F88000724636E64500820646E6BEC1EF081D0E9
:101F98005504D8A412D05D506524076E5E506620A3
:101FA800086E100E085CD8B006D05D506524656ECA
:101FB8005E506620666E82EC1EF05550D8A469D03B
:101FC8005DC007F05EC008F0071E081E074A082A11
:101FD800655007266650082207505D5C08505E5819
:101FE800D8B00ED05DC007F05EC008F0071E081E0E
:101FF800074A082A65500724656E66500820666EF1
:1020080082EC1EF046D05504D8A412D05D50652449
:10201800076E5E506620086E100E085CD8B006D0B9
:102028005D506524656E5E506620666E82EC1EF01B
:102038005550D8A42ED05DC007F05EC008F0071E2A
:10204800081E074A082A65500726665008220750C6
:102058005D5C08505E58D8B00ED05DC007F05EC019
:1020680008F0071E081E074A082A65500724656EEF
:1020780066500820666E82EC1EF00BD05650010A9E
:10208800D8B44BD7030AD8B483D7010AD8B4BBD77E
:10209800070A81BE00F081AE00F0F29016C0F5FF8D
:1020A80015C0F8FF14C0F7FF13C0F6FF12C0F4FF05
:1020B80011C0F3FF10C0DAFF0FC0D9FF0EC0E2FF56
:1020C8000DC0E1FF0CC0EAFF0BC0E9FF0AC0FBFF2F
:1020D80009C0FAFF68921100A2C0A6F00001A76B20
:1020E800A86B0001A1350001A63701E3A781000113
:1020F800A6510001AB6FA5C0A6F00001A76BA86BA5
:102108000001A4350001A63701E3A7810001A6510B
:102118000001AA6F0001AB510001D8B411D0000131
:10212800AA510001AB5DD8B012D00001AB51000834
:102138000001AA250001A66F180E0001A66507D0A8
:10214800A3C0A0F0A4C0A1F0A5C0A2F01200000195
:10215800AA510001D8B411D00001AB510001AA5D09
:10216800D8B012D00001AA5100080001AB25000127
:10217800A66F180E0001A66507D0A0C0A0F0A1C0E8
:10218800A1F0A2C0A2F01200060E0001A96F000182
:10219800A2AF02D00001A98F0001A5AF02D00001B3
:1021A800A98D0001A18FFF0E0001A017FF0E0001ED
:1021B800A117000E0001A2170001A48FFF0E000155
:1021C800A317FF0E0001A417000E0001A5170001B8
:1021D800AA510001AB5DD8B025D00001D890A33733
:1021E800A437A5370001AA070001AB510001AA19BD
:1021F800D8B411D00001A907A9C0A6F0070E0001A4
:10220800A617D8B408D0E9D70001D890A233A133D3
:10221800A0330001AB2B0001AA510001AB19D8B4BF
:102228002BD0F2D70001AB510001AA5DD8B024D061
:102238000001D890A037A137A2370001AB070001F1
:10224800AB510001AA19D8B411D00001A907A9C03F
:10225800A6F0070E0001A617D8B408D0E9D70001E8
:10226800D890A533A433A3330001AA2B0001AA51A7
:102278000001AB19D8A4F3D70001A9AF12D0FF0E03
:102288000001A01BFF0E0001A11BFF0E0001A21BF5
:10229800010E0001A027000E0001A123000E00017D
:1022A800A2230001A9AD12D0FF0E0001A31BFF0E4F
:1022B8000001A41BFF0E0001A51B010E0001A327AE
:1022C800000E0001A423000E0001A523000E00014A
:1022D800A96F0001A0510001A3270001A15100012D
:1022E800A4230001A2510001A5230001A5AF15D028
:1022F800FF0E0001A31BFF0E0001A41BFF0E00012F
:10230800A51B010E0001A327000E0001A423000E47
:102318000001A523010E0001A96FA3C017F0A4C0F6
:1023280018F0A5C019F0ABC01AF0A9C01BF044EC16
:102338001AF017C0A0F018C0A1F019C0A2F012003E
:102348004D6E6D0E4D649FD0000E286E030E276EE5
:10235800000E206E0A0E1F6E000E1A6E640E196EA5
:102368004DC017F0186AE4EC1BF017C01DF018C038
:102378001EF0EDEC1AF0090E1D24256E000E1E202D
:10238800266ED5EC1EF0A40E2524F66EBE0E262071
:10239800F76E0900F5CF38F00900F5CF39F00A00DB
:1023A800F5CF3AF0000E206E640E1F6E4DC01DF082
:1023B8001E6AEDEC1AF0120E1D24256E000E1E206A
:1023C800266E000E286E030E276ED5EC1EF0A40EA6
:1023D8002524F66EBE0E2620F76E0900F5CF35F0DF
:1023E8000900F5CF36F00A00F5CF37F076EC18F093
:1023F80035C04AF036C04BF037C04CF0000E286E9E
:10240800030E276E000E1A6E0A0E196E4DC017F0D5
:10241800186AE4EC1BF017C025F018C026F0D5ECBC
:102428001EF0A40E2524F66EBE0E2620F76E0900B7
:10243800F5CF38F00900F5CF39F00A00F5CF3AF0BA
:102448004AC035F04BC036F04CC037F076EC18F087
:1024580035C047F036C048F037C049F047C035F0BE
:1024680048C036F049C037F0000E386E000E396E9D
:102478003F0E3A6E76EC18F035C044F036C045F0A1
:1024880037C046F012000A0E4D645DD0000E286E6B
:10249800030E276E000E1A6E0A0E196E4DC017F045
:1024A800186AE4EC1BF017C025F018C026F0D5EC2C
:1024B8001EF0A40E2524F66EBE0E2620F76E090027
:1024C800F5CF38F00900F5CF39F00A00F5CF3AF02A
:1024D800000E206E0A0E1F6E4DC01DF01E6AEDEC38
:1024E8001AF0090E1D24256E000E1E20266E000E01
:1024F800286E030E276ED5EC1EF0A40E2524F66E6A
:10250800BE0E2620F76E0900F5CF35F00900F5CF8D
:1025180036F00A00F5CF37F076EC18F035C04AF0FF
:1025280036C04BF037C04CF04AC035F04BC036F0DF
:102538004CC037F0000E386E000E396E3F0E3A6E02
:1025480076EC18F099D74D50030DA40EF324F66ECF
:10255800BE0EF420F76E0900F5CF35F00900F5CF6F
:1025680036F00A00F5CF37F0000E386E000E396EDF
:102578003F0E3A6E76EC18F035C044F036C045F0A0
:1025880037C046F01200000E2FEC1DF0ED0E186E4D
:10259800BF0E196E7EEC1CF0400E2FEC1DF0E90EFC
:1025A800186EBF0E196E7EEC1CF0030E2FEC1DF09A
:1025B8001E0E186E010E196E26EC1EF06D0E186EAA
:1025C800BF0E196E7EEC1CF0430E2FEC1DF0140E9E
:1025D800186E010E196E26EC1EF0610E186EBF0EF5
:1025E800196E7EEC1CF00D0E2FEC1DF0D0D0F50E00
:1025F800186EBF0E196E7EEC1CF0000E0001B56F50
:10260800010E0001B66FC80E0001B76FBF0E0001C2
:10261800B86FD1C0B9F0D2C0BAF0D3C0BBF009ECE2
:1026280000F04C0E2FEC1DF0000E186E010E196E06
:1026380026EC1EF0610E186EBF0E196E7EEC1CF0B3
:102648001200F10E186EBF0E196E7EEC1CF0000E13
:102658000001B56F010E0001B66FC80E0001B76F1B
:10266800BF0E0001B86FD1C0B9F0D2C0BAF0D3C064
:10267800BBF009EC00F04C0E2FEC1DF0000E186EAC
:10268800010E196E26EC1EF0610E186EBF0E196E43
:102698007EEC1CF01200F90E186EBF0E196E7EEC5F
:1026A8001CF0ECC04BF0EDC04CF0EEC04DF0E9C0B2
:1026B800A3F0EAC0A4F0EBC0A5F0DAC01FF0DBC0BD
:1026C80020F0DCC021F0E8EC1EF01FC0A0F020C014
:1026D800A1F021C0A2F070EC10F0A0C04EF0A1C093
:1026E8004FF0A2C050F067EC17F04BC0D1F04CC0CF
:1026F800D2F04DC0D3F0F2C04EF0F3C04FF0F4C0AA
:1027080050F0000E386E800E396E450E3A6ED1C00C
:1027180035F0D2C036F0D3C037F076EC18F035C0BB
:102728004BF036C04CF037C04DF067EC17F04BC09B
:1027380089F04CC08AF04DC08BF07AEC14F089C057
:1027480065F08AC066F0000E0001B56F010E000149
:10275800B66FC80E0001B76FBF0E0001B86FD1C0C9
:10276800B9F0D2C0BAF0D3C0BBF009EC00F04C0EFF
:102778002FEC1DF0000E186E010E196E26EC1EF0DF
:10278800610E186EBF0E196E7EEC1CF0120000016F
:10279800E551000AD8B42BD7010AD8B452D7030A96
:1027A800D8A4120078D7000E4E6E800E4F6E450EDC
:1027B800506EF2C038F0F3C039F0F4C03AF063C09C
:1027C80032F064C033F0FAEC1EF032C035F033C09A
:1027D80036F034C037F076EC18F035C04BF036C020
:1027E8004CF037C04DF067EC17F04BC0C2F04CC04E
:1027F800C3F04DC0C4F0C2C035F0C3C036F0C4C089
:1028080037F0000E386EC00E396E400E3A6E76EC18
:1028180018F035C0D4F036C0D5F037C0D6F00A0E5F
:102828000001B56F010E0001B66FC80E0001B76F49
:10283800BF0E0001B86FD4C0B9F0D5C0BAF0D6C089
:10284800BBF009EC00F0000E2FEC1DF0B60E186E70
:10285800BF0E196E7EEC1CF00A0E186E010E196E72
:102868007EEC1CF08E0E186EBF0E196E7EEC1CF0FE
:10287800400E2FEC1DF0ED0E186EBF0E196E7EEC9B
:102888001CF01E0E0001B56F010E0001B66FC80ED8
:102898000001B76FBF0E0001B86FDAC0B9F0DBC036
:1028A800BAF0DCC0BBF009EC00F01E0E186E010E89
:1028B800196E7EEC1CF08E0E186EBF0E196E7EEC33
:1028C8001CF04B0E2FEC1DF00001F905D8A407D021
:1028D800BC0E186EBF0E196E7EEC1CF01200C20EF4
:1028E800186EBF0E196E7EEC1CF012008BC08DF0B6
:1028F80000018E6B8F6B00018A3500018D3701E373
:102908008E8100018D510001976F00019751D8A465
:102918000AD0000E0001896F000E8A6F000E8B6FBF
:10292800000E8C6F1200170E00018D6F89C08EF09B
:102938008AC08FF08BC090F000018D290001916F43
:1029480005D00001D89090338F338E330001912F3A
:10295800F8D700018E510001926F00018A8FFF0E97
:1029680000018917FF0E00018A17000E00018B175E
:10297800000189510001936F00018A510001946F91
:1029880000018B510001956F0001966B8E0E0001BE
:10299800975F000197AF1AD000019751800A8F0FF7
:1029A800D8B00AD0000E0001896F000E8A6F000EA1
:1029B8008B6F000E8C6F12000001D8909633953300
:1029C800943393330001973FF7D71BD0170E0001BC
:1029D800976512D0000E0001896F000E8A6F000EF5
:1029E8008B6F000E8C6F12000001D89093379437CC
:1029F8009537963700019707000197510001D8A431
:102A0800F3D7000192510001D8B409D00001961FF4
:102A1800951F941F936D000E94239523962393C0BE
:102A280089F094C08AF095C08BF096C08CF01200A3
:102A380019C01DF01E6A1F6A18341D3601E31E8076
:102A48001D50256E2550D8A409D0000E176E000E13
:102A5800186E000E196E000E1A6E12001CC01DF0C2
:102A68001E6A1F6A1B341D3601E31E801D50246E2A
:102A78002450D8A409D0000E176E000E186E000E50
:102A8800196E000E1A6E1200188EFF0E1716FF0E22
:102A98001816000E19161B8EFF0E1A16FF0E1B169F
:102AA800000E1C16000E206E000E216E000E226E07
:102AB800000E236E7F0E255E2450980F255E180E9B
:102AC800246ED89020362136223623361A50175CC9
:102AD8001B5018581C501958D8A007D01A50175E08
:102AE8001B50185A1C50195A2080D890173618367F
:102AF8001936242EE6D725AE16D02550800A970F12
:102B0800D8B009D0000E176E000E186E000E196EA0
:102B1800000E1A6E1200D89023322232213220324F
:102B2800253EF9D715D0170E25640FD0000E176E65
:102B3800000E186E000E196E000E1A6E1200D89054
:102B4800203621362236233625062550D8A4F7D735
:102B580020C017F021C018F022C019F023C01AF0C5
:102B6800120019341A34226E2250D8A409D0000E4B
:102B7800176E000E186E000E196E000E1A6E1200F7
:102B88001C341D34216E2150D8A409D0000E176EB4
:102B9800000E186E000E196E000E1A6E1200198EB5
:102BA800FF0E1716FF0E1816FF0E1916000E1A162E
:102BB8001C8EFF0E1A16FF0E1B16FF0E1C16000E9B
:102BC8001D16000E1D6E000E1E6E000E1F6E000EEE
:102BD800206E7F0E225E2150A00F225E200E216EF5
:102BE800D8901D361E361F3620361A50175C1B50DB
:102BF80018581C5019581D501A58D8A009D01A50E6
:102C0800175E1B50185A1C50195A1D501A5A1D800D
:102C1800D8901736183619361A36212EE1D722AE33
:102C280016D02250800A9F0FD8B009D0000E176E18
:102C3800000E186E000E196E000E1A6E1200D89053
:102C480020321F321E321D32223EF9D715D01F0EF8
:102C580022640FD0000E176E000E186E000E196E4B
:102C6800000E1A6E1200D8901D361E361F362036FA
:102C780022062250D8A4F7D71DC017F01EC018F09E
:102C88001FC019F020C01AF01200F2C038F0F3C0CB
:102C980039F0F4C03AF065C032F066C033F0FAECAF
:102CA8001EF032C035F033C036F034C037F076EC61
:102CB80018F035C04BF036C04CF037C04DF0000E60
:102CC8004E6E800E4F6E450E506E67EC17F04BC07F
:102CD800D1F04CC0D2F04DC0D3F0000E0001B56F5A
:102CE800010E0001B66FC80E0001B76FBF0E0001DC
:102CF800B86FD1C0B9F0D2C0BAF0D3C0BBF009ECFC
:102D080000F0000E2FEC1DF0A90E186EBF0E196E04
:102D18007EEC1CF0000E186E010E196E7EEC1CF095
:102D2800840E186EBF0E196E7EEC1CF0400E2FEC50
:102D38001DF0140E0001B56F010E0001B66FC80E2C
:102D48000001B76FBF0E0001B86FD7C0B9F0D8C087
:102D5800BAF0D9C0BBF009EC00F0DF0E186EBF0E58
:102D6800196E7EEC1CF0140E186E010E196E7EECB6
:102D78001CF0840E186EBF0E196E7EEC1CF04B0E04
:102D88002FEC1DF00001F905D8A407D0BC0E186E71
:102D9800BF0E196E7EEC1CF01200C20E186EBF0E2C
:102DA800196E7EEC1CF01200F2C038F0F3C039F056
:102DB800F4C03AF065C032F066C033F0FAEC1EF0A9
:102DC80032C035F033C036F034C037F076EC18F046
:102DD80035C04BF036C04CF037C04DF0000E4E6E8B
:102DE800800E4F6E450E506E67EC17F04BC0D1F059
:102DF8004CC0D2F04DC0D3F0000E0001B56F010EEB
:102E08000001B66FC80E0001B76FBF0E0001B86FA2
:102E1800D1C0B9F0D2C0BAF0D3C0BBF009EC00F011
:102E2800000E2FEC1DF0A10E186EBF0E196E7EEC71
:102E38001CF0000E186E010E196E7EEC1CF0840E4C
:102E4800186EBF0E196E7EEC1CF0400E2FEC1DF0B4
:102E5800140E0001B56F010E0001B66FC80E000117
:102E6800B76FBF0E0001B86FD7C0B9F0D8C0BAF0BD
:102E7800D9C0BBF009EC00F0DF0E186EBF0E196E5A
:102E88007EEC1CF0140E186E010E196E7EEC1CF010
:102E9800790E186EBF0E196E7EEC1CF04B0E2FECDF
:102EA8001DF00001F905D8A407D0BC0E186EBF0E9E
:102EB800196E7EEC1CF01200C20E186EBF0E196E51
:102EC8007EEC1CF012004DC080F00001816B826B1B
:102ED8004C340001803701E38181000180510001F9
:102EE800876F00018751D8A407D0000E4B6E000EE3
:102EF8004C6E000E4D6E120050C080F00001816BC8
:102F0800826B4F340001803701E3818100018051D9
:102F18000001886F00018851D8A407D0000E4B6EBD
:102F2800000E4C6E000E4D6E1200000E0001846FF4
:102F3800000E0001856F000E0001866F00018851A8
:102F4800890F0001875F4DC088F050500001881B31
:102F5800800E000188174C8EFF0E4B16FF0E4C1684
:102F6800000E4D164F8EFF0E4E16FF0E4F16000E1A
:102F78005016180E0001836F0001D89084378537EA
:102F880086374E504B5C4F504C5850504D58D8A037
:102F980008D04E504B5E4F504C5A50504D5A00017D
:102FA8008481D8904B364C364D360001832FE4D7B8
:102FB80084C017F085C018F086C019F087C01AF0D1
:102FC80088C01BF044EC1AF017C04BF018C04CF046
:102FD80019C04DF01200ECC04BF0EDC04CF0EEC043
:102FE8004DF0E9C0A3F0EAC0A4F0EBC0A5F0DAC048
:102FF8001FF0DBC020F0DCC021F0E8EC1EF01FC0A1
:10300800A0F020C0A1F021C0A2F070EC10F0A0C088
:103018004EF0A1C04FF0A2C050F067EC17F04BC0C3
:10302800D1F04CC0D2F04DC0D3F0F2C04EF0F3C096
:103038004FF0F4C050F0000E386E800E396E450E19
:103048003A6ED1C035F0D2C036F0D3C037F076EC46
:1030580018F035C04BF036C04CF037C04DF067EC77
:1030680017F04BC089F04CC08AF04DC08BF07AEC59
:1030780014F089C065F08AC066F03DEC1EF0000EC1
:103088000001B56F010E0001B66FCE0E0001B76FDB
:10309800BF0E0001B86FD1C0B9F0D2C0BAF0D3C02A
:1030A800BBF009EC00F0000E2FEC1DF0CB0E186EF3
:1030B800BE0E196E7EEC1CF0400E2FEC1DF0B00E0B
:1030C800186EBF0E196E7EEC1CF0000E186E010E05
:1030D800196E7EEC1CF0540E186EBF0E196E7EEC45
:1030E8001CF0120037C03BF03C6A3D6A36343B3670
:1030F80001E33C803B503E6E3E50D8A407D0000E02
:10310800356E000E366E000E376E12003AC03BF078
:103118003C6A3D6A39343B3601E33C803B50436EA0
:103128004350D8A407D0000E356E000E366E000E40
:10313800376E120043507B0F3E2637C043F03A509B
:10314800431A800E4316368E398EFF0E3816FF0E40
:103158003916000E3A16000E3F6E000E406E000E35
:10316800416E070E426E35A006D038503F263950C2
:1031780040223A504122D890373236323532D890F0
:10318800383639363A36422EEED7090E426E35A019
:1031980006D038503F26395040223A504122D89024
:1031A800373236323532D890413240323F32422EB1
:1031B800EED73FC017F040C018F041C019F03EC02C
:1031C8001AF043C01BF044EC1AF017C035F018C0D1
:1031D80036F019C037F01200000E2E6E2D6861C04F
:1031E80025F062C026F0000E286E640E276ED5EC1E
:1031F8001EF025C02BF026C02CF006EC1DF02BC0CD
:1032080032F02CC033F0FAEC1EF032C0CEF033C0EE
:10321800CFF034C0D0F0320E0001B56F010E0001BE
:10322800B66FE40E0001B76FBF0E0001B86F61C042
:10323800B9F062C0BAF009EC00F0370E0001B56FC2
:10324800010E0001B66FD40E0001B76FBF0E00016A
:10325800B86FCEC0B9F0CFC0BAF0D0C0BBF009EC9F
:1032680000F0000E2FEC1DF00001F905D8A407D0DE
:10327800DD0E186EBE0E196E7EEC1CF006D0100E18
:10328800186EBF0E196E7EEC1CF0400E2FEC1DF070
:10329800980E186EBF0E196E7EEC1CF0320E186E6A
:1032A800010E196E7EEC1CF04C0E2FEC1DF0370E43
:1032B800186E010E196E7EEC1CF0FD0E186EBF0E16
:1032C800196E7EEC1CF01200000E2E6E2D685FC089
:1032D80025F060C026F0000E286E640E276ED5EC2F
:1032E8001EF025C02BF026C02CF006EC1DF02BC0DC
:1032F80032F02CC033F0FAEC1EF032C052F033C07A
:1033080053F034C054F02D0E0001B56F010E0001CA
:10331800B66FE40E0001B76FBF0E0001B86F5FC053
:10332800B9F060C0BAF009EC00F0280E0001B56FE2
:10333800010E0001B66FD40E0001B76FBF0E000179
:10334800B86F52C0B9F053C0BAF054C0BBF009EC22
:1033580000F0000E2FEC1DF00001F905D8A407D0ED
:10336800FF0E186EBE0E196E7EEC1CF006D0430ED2
:10337800186EBF0E196E7EEC1CF0400E2FEC1DF07F
:10338800980E186EBF0E196E7EEC1CF02D0E186E7E
:10339800010E196E7EEC1CF04C0E2FEC1DF0280E61
:1033A800186E010E196E7EEC1CF0FD0E186EBF0E25
:1033B800196E7EEC1CF012000001AEAF1DD0ACC03F
:1033C800B2F0ADC0B3F0AEC0B4F00001B21FB31F8D
:1033D800B41FB22B000EB323B423000E0001B22594
:1033E8000001AC6F000E0001B3210001AD6F800E2B
:1033F8000001B4210001AE6F0001B1AF1DD0AFC014
:10340800B2F0B0C0B3F0B1C0B4F00001B21FB31F46
:10341800B41FB22B000EB323B423000E0001B22553
:103428000001AF6F000E0001B3210001B06F800EE4
:103438000001B4210001B16F000E0001AC1B000EA9
:103448000001AD1B800E0001AE1B000E0001AF1B7A
:10345800000E0001B01B800E0001B11B0001AF512E
:103468000001AC5D0001B0510001AD590001B1513E
:103478000001AE59D8B002D0D8901200D8801200FE
:103488001A50D8B405D0175018101910D8A40CD059
:10349800000E176E000E186E000E196E12001A2A12
:1034A800D890193218321732000E17141C6E000EFD
:1034B80018141D6EFE0E19141E6E1C501D101E10C1
:1034C800D8B40CD0ECD71A2A010E1726000E1822F1
:1034D800000E1922D890193218321732000E17141C
:1034E8001C6E000E18141D6EFF0E19141E6E1C5053
:1034F8001D101E10D8B406D0E6D71A06D890173675
:103508001836193618BE03D0020E1A60F6D71AA05C
:10351800189ED8901A321A5019121B50D8A4198E16
:1035280017C017F018C018F019C019F012001B6E58
:10353800F00E8116F00E93169494949094928B94B6
:103548008B908B92BCEC1FF0300E7EEC1DF0050EBC
:1035580079EC1FF0300E7EEC1DF0010E79EC1FF0B7
:10356800320E7EEC1DF0BCEC1DF00009D8A4FBD790
:10357800BCEC1DF00009D8A4FBD71B507EEC1DF055
:10358800BCEC1DF00009D8A4FBD7080E7EEC1DF09A
:10359800BCEC1DF00009D8A4FBD70F0E7EEC1DF083
:1035A800BCEC1DF00009D8A4FBD7010E7EEC1DF081
:1035B800BCEC1DF00009D8A4FBD7040E7EEC1DF06E
:1035C800BCEC1DF00009D8A4FBD7800E2FEC1DF031
:1035D8001200000E226E20AE06D01F6C201ED8B03E
:1035E800202A010E226E1EAE06D01D6C1E1ED8B0FB
:1035F8001E2A010E221A000E246E000E236E1F5082
:103608002010D8B41CD0010E216E04D0D8901F36DB
:103618002036212A20AEFAD7D890233624361F50D8
:103628001D5C20501E58D8A005D01F501D5E20508C
:103638001E5A2380D89020321F32212EEDD72250D7
:10364800D8B404D0236C241ED8B0242A23C01DF07B
:1036580024C01EF01200000E1F6E000E206E000E19
:10366800216E000E226E1B501C101D101E10D8B4A7
:103678002AD0010E236E06D0D8901B361C361D3674
:103688001E36232A1EAEF8D7D8901F36203621368C
:1036980022361B50175C1C5018581D5019581E50C4
:1036A8001A58D8A009D01B50175E1C50185A1D5024
:1036B800195A1E501A5A1F80D8901E321D321C32B9
:1036C8001B32232EE1D71FC017F020C018F021C0ED
:1036D80019F022C01AF012008E0E516E07D00001A8
:1036E800D8909B339A3399339833512A000E0001AE
:1036F800981500019C6F000E0001991500019D6F3F
:10370800000E00019A1500019E6FFF0E00019B1527
:1037180000019F6F00019C5100019D1100019E1145
:1037280000019F11D8A4DBD798C017F099C018F0F2
:103738009AC019F051C01AF0000E1B6E44EC1AF032
:1037480017C098F018C099F019C09AF012001E0E10
:10375800F66E3F0EF76E000EF86E00EEE9F010EE12
:1037680012F00900F5CFEEFFE550E150FAE16C0EDA
:10377800F66E3F0EF76E000EF86E00EE5DF010EE7E
:103788000BF00900F5CFEEFFE550E150FAE101EE4C
:1037980000F03C0EEE6AE806FDE100EECEF01B0EEE
:1037A800EE6AE806FDE100EE52F00B0EEE6AE8065E
:1037B800FDE168906892000EF86E00012CEF0AF0A7
:1037C800000E1C6E18AE06D0176C181ED8B0182A3A
:1037D800010E1C6E1AAE04D0196C1A1ED8B01A2A23
:1037E80019501A10D8B418D0010E1B6E04D0D890F6
:1037F80019361A361B2A1AAEFAD71950175C1A50FE
:103808001858D8A004D01950175E1A50185AD890D2
:103818001A3219321B2EF1D71C50D8B404D0176CA9
:10382800181ED8B0182A17C017F018C018F01200C0
:10383800285029102A102B10D8B424D0010E2C6E31
:1038480006D0D890283629362A362B362C2A2BAE85
:10385800F8D72850245C295025582A5026582B5030
:103868002758D8A008D02850245E2950255A2A5015
:10387800265A2B50275AD8902B322A3229322832EE
:103888002C2EE7D724C024F025C025F026C026F02A
:1038980027C027F012001B6E000EC26E000EC06E0D
:1038A800D89017303C0BC26E17C019F0193AF00EB9
:1038B8001916300E191618500F0B1910C16E1BC0AF
:1038C80019F0D8901936D8901936380E19161BC029
:1038D8001AF01A3A0F0E1A16070E1A161B50800BFA
:1038E8001A101910C06E17AE03D09E9C9D8CF28CD6
:1038F800C280120019D0BCEC1DF00009D8A4FBD777
:1039080018C0F6FF19C0F7FFF86A0F0EF76403D066
:103918000800F55005D0F6CFE9FFF7CFEAFFEF50E2
:103928009DEC1DF0184A192A18C0F6FF19C0F7FFB8
:10393800F86A0F0EF76403D00800F55005D0F6CFEB
:10394800E9FFF7CFEAFFEF500009D8B41200D3D748
:10395800196E3F0EC716000EC66E1950C6121850C3
:10396800C71205D0C78C15D0C78CC68812D017507F
:10397800000AD8B4F7D7020AD8B4F6D7010AD8B4DF
:10398800F4D707D09486928A0CD094860AD094965D
:1039980008D01950040AD8B4F5D7010AD8B4F5D715
:1039A800F6D79488949AC68A1200036E3F0EC716FB
:1039B800000EC66E0350C6120250C71205D0C78C3F
:1039C80015D0C78CC68812D00150000AD8B4F7D7D2
:1039D800020AD8B4F6D7010AD8B4F4D707D0948627
:1039E800928A0CD094860AD0949608D00350040A80
:1039F800D8B4F5D7010AD8B4F5D7F6D79488949AED
:103A0800C68A1200000E306E000E2F6E2D502E103A
:103A1800D8B41CD0010E316E04D0D8902D362E3675
:103A2800312A2EAEFAD7D8902F3630362D502B5C4F
:103A38002E502C58D8A005D02D502B5E2E502C5A25
:103A48002F80D8902E322D32312EEDD72FC02BF06B
:103A580030C02CF012001A6EF00E9316F00E81167C
:103A68001A50176E186A178E040E196E1834183209
:103A78001732192EFBD717500F0B81128B948B908E
:103A88001BEC1FF08B821BEC1FF08B92F00E811643
:103A98001A500F0B81121BEC1FF08B821BEC1FF0CE
:103AA8008B920F0E931212000001AF510001B0115A
:103AB8000001B111D8B409D0000E0001AF1B000EEF
:103AC8000001B01B800E0001B11BACC0A0F0ADC05E
:103AD800A1F0AEC0A2F0AFC0A3F0B0C0A4F0B1C0D6
:103AE800A5F070EC10F0A0C0ACF0A1C0ADF0A2C081
:103AF800AEF01200176EF00E9316F00E81161738FE
:103B08000F0B0F0B81128B948B901BEC1FF08B8289
:103B18001BEC1FF08B92F00E811617500F0B8112C1
:103B28001BEC1FF08B821BEC1FF08B920F0E931275
:103B38001200176EF00E9316F00E811617380F0B41
:103B48000F0B81128B808B941BEC1FF08B821BEC6C
:103B58001FF08B92F00E811617500F0B81121BEC81
:103B68001FF08B821BEC1FF08B920F0E931212002A
:103B78008B848B901BEC1FF08B821BEC1FF081A6B3
:103B88000AD08B921BEC1FF08B821BEC1FF08B92E0
:103B98008B94010E12008B921BEC1FF08B821BEC96
:103BA8001FF08B928B94000E1200280E9BEC1AF0DB
:103BB800BCEC1DF00009D8A4FBD7060E7EEC1DF066
:103BC800BCEC1DF00009D8A4FBD70C0E7EEC1DF050
:103BD800BCEC1DF00009D8A4FBD7010E7EEC1DF04B
:103BE8001200000E1C6E000E1F6E000E206E000EDE
:103BF8001D6E000E216E000E1E6E1F682068FD0EE1
:103C0800216EC0EC1FF0050E176EFD0E186E850EA6
:103C18004FEC1CF0120063C059F064500F0B5A6E41
:103C28005A5067105A6E38EC1FF08A9800F000F06E
:103C380000F05A5061EC1FF0595061EC1FF08A886F
:103C4800C69A12000ED0BCEC1DF00009D8A4FBD710
:103C580018C0D9FF19C0DAFFDF509DEC1DF0184AD3
:103C6800192A18C0D9FF19C0DAFFDF50D8B41200DA
:103C7800EAD765C05BF066500F0B5C6E5C5067104E
:103C88005C6E38EC1FF0899E00F000F000F05C508C
:103C980061EC1FF05B5061EC1FF0898EC69A120030
:103CA800000E196E000E186E19BE06D019500EE1DE
:103CB800140E185CD8B01200820E176EDE0EE82EB5
:103CC800FED7172EFCD7184A192AEED7120063C060
:103CD80059F064500F0B5A6E5A5067105A6E46ECE2
:103CE8001FF08A9800F000F000F05A506DEC1FF0B9
:103CF80059506DEC1FF08A88C69A120065C05BF0B7
:103D080066500F0B5C6E5C5067105C6E46EC1FF0E3
:103D1800899E00F000F000F05C506DEC1FF05B50E5
:103D28006DEC1FF0898EC69A120098EC1FF0000EF9
:103D38002FEC1DF0210E186EBF0E196E7EEC1CF0D4
:103D4800400E2FEC1DF0320E186EBF0E196E7EEC71
:103D58001CF012002AEC1FF0110E586E615000087A
:103D6800576E8A9C00F000F000F0585061EC1FF08C
:103D7800575061EC1FF08A8CC69A12002AEC1FF08B
:103D8800120E586E5FC057F08A9C00F000F000F0E9
:103D9800585061EC1FF0575061EC1FF08A8CC69A9E
:103DA800120025502702F3CF29F0F4CF2AF025502E
:103DB8002802F3502A2626502702F3502A2629C023
:103DC80025F02AC026F012001F5020102110D8B468
:103DD80006D0000E1F1A000E201A800E211A1FC0CE
:103DE8001FF020C020F021C021F0120032C017F0CF
:103DF80033C018F0196A8E0E1A6E000E1B6E44EC52
:103E08001AF017C032F018C033F019C034F012009D
:103E1800196E000E186E3A0E196005D02F0E19642F
:103E280002D0010E186E18C017F01730120000F0FB
:103E380000F000F000F000F000F000F000F000F0FA
:103E480000F000F000F000F000F01200020E1A6E10
:103E5800020E1B6E000E1C6E1BC017F01CC018F063
:103E68001A50ACEC1CF01200020E1A6E020E1B6EF9
:103E7800000E1C6E1BC017F01CC018F01A50ACECDA
:103E88001CF01200020E046E020E056E000E066E85
:103E980005C001F006C002F00450D9EC1CF0120075
:103EA800929E92889398938A938E939C9284928CF4
:103EB800928A898E8A8C8A881200186EC9CF17F068
:103EC8009E96C69E18C0C9FFC6BE12009EB61200B6
:103ED800FDD7026EC9CF01F09E96C69E02C0C9FFEB
:103EE800C6BE12009EB61200FDD7186E0D0E176ED4
:103EF800FC0EE82EFED7172EFCD7182EF7D7120087
:103F0800186EC2CF17F0C30E1716D89018303C0B96
:103F18001710C26E1200008041002041C3753C009A
:103F28002040002040010101BCEC1DF00009D8A48C
:103F3800FBD7010E7EEC1DF01200176EC80E00D0E4
:103F4800E82EFDD7172EFAD71200C450196EC350A9
:103F5800176E19C018F01200C2A202D0010E12008A
:0F3F6800000E120001005A00C800020002007093
:103F78001E0EA1EC1FF01200C2909D9C1200C2827E
:023F8800120025
:10BE540000010000000A00000064000000E8030084
:10BE64000010270000A086010040420F0080969831
:10BE74000000E1F50500CA9A3B00803F0020410024
:10BE8400C842007A44401C4650C34724744997185A
:10BE94004BBCBE4C6B6E4E03155079AD60F34971CB
:10BEA40000803FCDCC3DD7233C12833AB7D138C66E
:10BEB4002737388635C0D633CC2B32708930E7DB50
:10BEC4002EE53C1E42A20D20503D3130572C20203F
:10BED40055696E3D3136562000434F4E54524153FE
:10BEE400542046494E453A2020002020506F776563
:10BEF4007220537570706C792020004241434B4C82
:10BF0400494748542046494E453A2000434F4E5431
:10BF14005241535420524F5547483A200021212082
:10BF240050524F54454354494F4E20212100214340
:10BF34004845434B2053455454494E4753210042EE
:10BF440041434B4C4947485420524F5547483A00C7
:10BF540041202020202020202020202000412020BB
:10BF640020202020202020200056202020202020B7
:10BF740020202020004120202020202020202000DC
:10BF84004120202020202020200056202020202076
:10BF94002020200028313A323535293A00496C698D
:10BFA4006D69743D004970726F743D004973657426
:10BFB4003D00557365743D002046494E4500524F7F
:10BFC40055474800252D2E326700252D2E33670056
:10BFD40025332E33670076312E3000496F203D0023
:10BFE400252D337500496F3D00556F3D004C494D7B
:0CBFF4000050524F005057520025000032
:020000040020DA
:08000000FFFFFFFFFFFFFFFF00
:020000040030CA
:0E000000FF08191EFF0181FF0FC00FE00F4027
:00000001FF
