:020000040000FA
:04000000B7EF55F011
:10AAE6000101928C928A12001E0E7BEC55F0120028
:10AAF600016EC80E00D0E82EFDD7012E7CEF55F072
:10AB060085EF55F01200026E0D0E016EFC0EE82E5A
:10AB1600FED7012EFCD7022E87EF55F093EF55F0A6
:10AB2600120000F000F000F000F000F000F000F07D
:10AB360000F000F000F000F000F000F000F012006D
:10AB4600A7EF55F0A7EF55F038EC56F00009D8A45A
:10AB5600AFEF55F0B1EF55F0A7EF55F0B3EF55F065
:10AB6600010ECEEC55F01200E60EF66EAA0EF76E4A
:10AB7600000EF86E0900F5CF23F00900F5CF24F09A
:10AB8600226A216A206A1F6A1E6A1D6A000EF86E12
:10AB9600000197EF59F0016EF00E9316F00E811634
:10ABA60001380F0B0F0B81128B948B9094EC55F0A0
:10ABB6008B8294EC55F08B92F00E811601500F0BA0
:10ABC600811294EC55F08B8294EC55F08B920F0E1B
:10ABD6009312EEEF55F01200016EF00E9316F00E82
:10ABE600811601380F0B0F0B81128B808B9494EC1E
:10ABF60055F08B8294EC55F08B92F00E8116015035
:10AC06000F0B811294EC55F08B8294EC55F08B92DD
:10AC16000F0E93120FEF56F01200A3EC55F0000E34
:10AC2600056E000E56EC57F0DC0E026EBF0E036E7C
:10AC3600BAEC56F0E9EC56F0010E246E23EF56F00E
:10AC460084B628EF56F02AEF56F023EF56F02CEF95
:10AC560056F0820E086EDE0EE82EFED7082EFCD7C2
:10AC6600E9EC56F037EF56F012008B848B9094EC9B
:10AC760055F08B8294EC55F081A644EF56F046EFE2
:10AC860056F055EF56F08B9294EC55F08B8294EC7F
:10AC960055F08B928B94010E62EF56F062EF56F0F0
:10ACA60062EF56F08B9294EC55F08B8294EC55F053
:10ACB6008B928B94000E62EF56F062EF56F0120004
:10ACC60001C005F002C006F06DEF56F0054A062AEF
:10ACD6006DEF56F005C0F6FF06C0F7FF0800F55009
:10ACE6000009D8A479EF56F07BEF56F069EF56F0DD
:10ACF6007DEF56F001C003F002C004F0031E041EEF
:10AD0600034A042A05500324016E06500420026EED
:10AD16008DEF56F01200046EF00E9316F00E8116AB
:10AD26000450016E026A018E040E036E0234023272
:10AD36000132032E99EF56F001500F0B81128B94BE
:10AD46008B9094EC55F08B8294EC55F08B92F00E30
:10AD5600811604500F0B811294EC55F08B8294EC03
:10AD660055F08B920F0E9312B9EF56F01200D8EFF2
:10AD760056F0C0EF56F0C0EF56F038EC56F000092A
:10AD8600D8A4C8EF56F0CAEF56F0C0EF56F0CCEF95
:10AD960056F002C0F6FF03C0F7FF0800F550EFECCF
:10ADA60055F0024A032AD8EF56F002C0F6FF03C058
:10ADB600F7FF0800F5500009D8A4E4EF56F0E6EFD7
:10ADC60056F0C0EF56F0E8EF56F01200000E036E94
:10ADD600000E026E03BEF9EF56F0035009E1140EA1
:10ADE600025CD8A0F9EF56F0FBEF56F0FFEF56F0F5
:10ADF60018EF57F018EF57F0820E016EDE0EE82EB0
:10AE0600FED7012EFCD7024A032A03BE14EF57F0E1
:10AE1600035009E1140E025CD8A014EF57F016EFA8
:10AE260057F0FFEF56F018EF57F01200280E29ECF6
:10AE360058F020EF57F020EF57F038EC56F00009A5
:10AE4600D8A428EF57F02AEF57F020EF57F02CEF51
:10AE560057F0060ECEEC55F033EF57F033EF57F0C0
:10AE660038EC56F00009D8A43BEF57F03DEF57F009
:10AE760033EF57F03FEF57F00C0ECEEC55F046EFA0
:10AE860057F046EF57F038EC56F00009D8A44EEFCD
:10AE960057F050EF57F046EF57F052EF57F0010ECC
:10AEA600CEEC55F01200076E000E066E0F0E07640C
:10AEB6005FEF57F061EF57F065EF57F0000E076E42
:10AEC60065EF57F0030E05646BEF57F06DEF57F023
:10AED6008CEF57F0000E056E8CEF57F08CEF57F0A5
:10AEE60007C006F0A3EF57F00750400F066EA3EF1A
:10AEF60057F00750100F066EA3EF57F00750500F8C
:10AF0600066EA3EF57F007C006F0A3EF57F0A3EFC6
:10AF160057F00550000AD8B473EF57F0010AD8B4B9
:10AF260077EF57F0030AD8B47CEF57F0010AD8B48C
:10AF360081EF57F086EF57F0A3EF57F0A3EF57F0E6
:10AF460038EC56F00009D8A4ABEF57F0ADEF57F048
:10AF5600A3EF57F0AFEF57F006508EEC56F0120005
:10AF6600000E066E04BEBCEF57F0BAEF57F0C4EF02
:10AF760057F0036C041ED8B0042A010E066EC4EF07
:10AF860057F002BECBEF57F0C9EF57F0D3EF57F0AB
:10AF9600016C021ED8B0022A010E061AD3EF57F032
:10AFA600000E086E000E076E03500410D8B4DEEFD4
:10AFB60057F0E0EF57F014EF58F0010E056EEAEF88
:10AFC60057F0D89003360436052AEAEF57F004AE58
:10AFD600EFEF57F0F1EF57F0E4EF57F0F5EF57F0DA
:10AFE600F5EF57F0D890073608360350015C045049
:10AFF6000258D8A001EF58F003EF58F00AEF58F0C6
:10B006000350015E0450025A07800AEF58F0D890A8
:10B0160004320332052EF5EF57F014EF58F014EF13
:10B0260058F00650D8B41AEF58F01CEF58F022EF3B
:10B0360058F0076C081ED8B0082A22EF58F007C04F
:10B0460001F008C002F028EF58F01200056EF00E6D
:10B056008116F00E93169494949094928B948B9000
:10B066008B9277EC55F0300ECEEC55F0050E86EC53
:10B0760055F0300ECEEC55F0010E86EC55F0320E42
:10B08600CEEC55F049EF58F049EF58F038EC56F051
:10B096000009D8A451EF58F053EF58F049EF58F093
:10B0A60059EF58F059EF58F059EF58F038EC56F080
:10B0B6000009D8A461EF58F063EF58F059EF58F043
:10B0C60065EF58F00550CEEC55F06CEF58F06CEF8C
:10B0D60058F038EC56F00009D8A474EF58F076EF23
:10B0E60058F06CEF58F078EF58F0080ECEEC55F0AB
:10B0F6007FEF58F07FEF58F038EC56F00009D8A4EF
:10B1060087EF58F089EF58F07FEF58F08BEF58F043
:10B116000F0ECEEC55F092EF58F092EF58F038EC57
:10B1260056F00009D8A49AEF58F09CEF58F092EF29
:10B1360058F09EEF58F0010ECEEC55F0A5EF58F002
:10B14600A5EF58F038EC56F00009D8A4ADEF58F04A
:10B15600AFEF58F0A5EF58F0B1EF58F0040ECEEC73
:10B1660055F0B8EF58F0B8EF58F038EC56F0000943
:10B17600D8A4C0EF58F0C2EF58F0B8EF58F0C4EFBB
:10B1860058F0800E8EEC56F0C9EF58F012000E6E95
:10B19600000E0D6E0F0E0E64D3EF58F0D5EF58F07B
:10B1A600D9EF58F0000E0E6ED9EF58F0030E076473
:10B1B600DFEF58F0E1EF58F000EF59F0000E076EA0
:10B1C60000EF59F000EF59F00EC00DF017EF59F0EF
:10B1D6000E50400F0D6E17EF59F00E50100F0D6EFA
:10B1E60017EF59F00E50500F0D6E17EF59F0000E75
:10B1F6000D6E17EF59F017EF59F00750000AD8B443
:10B20600E7EF58F0010AD8B4EBEF58F0030AD8B4C8
:10B21600F0EF58F0010AD8B4F5EF58F0FAEF58F00D
:10B2260017EF59F017EF59F038EC56F00009D8A48B
:10B236001FEF59F021EF59F017EF59F023EF59F0AE
:10B246000D508EEC56F008C001F009C002F063EC18
:10B2560056F001500D6E100E0D6434EF59F036EFB6
:10B2660059F03AEF59F0100E0D6E3AEF59F00DC045
:10B276000CF05BEF59F042EF59F042EF59F038EC21
:10B2860056F00009D8A44AEF59F04CEF59F042EFB6
:10B2960059F04EEF59F008C0F6FF09C0F7FF080055
:10B2A600F550EFEC55F0084A092A0C065BEF59F009
:10B2B6000C50D8A461EF59F063EF59F042EF59F002
:10B2C60065EF59F00A50D8B46BEF59F06DEF59F0AD
:10B2D60096EF59F00D500E240008100F0C6E8AEFF1
:10B2E60059F078EF59F078EF59F038EC56F000093C
:10B2F600D8A480EF59F082EF59F078EF59F084EF37
:10B3060059F00B50EFEC55F00C068AEF59F00C5043
:10B31600D8A490EF59F092EF59F078EF59F096EFE4
:10B3260059F096EF59F01200760ED36E070EB46EF2
:10B336000F0EC16E010E246E74EC55F019EC57F029
:10B34600000E056E000E56EC57F0ED0E026EBF0EA7
:10B35600036EBAEC56F0020E056E0C0E56EC57F064
:10B36600F90E026EBF0E036EBAEC56F0E9EC56F01B
:10B37600E9EC56F0A3EC55F0C1EF59F0A6EC5AF003
:10B386002304D8A4C9EF59F0CBEF59F073EF5AF064
:10B3960084B6D0EF59F0D2EF59F025EF5AF0000EEF
:10B3A600236E010E226E000E206E000E1F6E010E21
:10B3B600216E000E1E6E000E1D6E2450080D060E28
:10B3C600F326000EF422B90EF324F66EBE0EF42018
:10B3D600F76E0900F5500900F510D8B4F5EF59F0ED
:10B3E600F7EF59F014EF5AF02450080D060EF32625
:10B3F600000EF422B90EF324F66EBE0EF420F76E9C
:10B4060002D812EF5AF00500FA6E0900F550FD6EEB
:10B416000900F550FE6EF850FF6EFA50120014EF58
:10B426005AF02450080D050EF326000EF422B90E2C
:10B43600F324F66EBE0EF420F76E0800F5CF24F066
:10B4460025EF5AF080BA2AEF5AF02CEF5AF04BEF5C
:10B456005AF0000E236E010E226E000E206E000EB4
:10B466001F6E010E216E000E1E6E000E1D6E245004
:10B47600080D030EF326000EF422B90EF324F66E21
:10B48600BE0EF420F76E0800F5CF24F04BEF5AF00D
:10B4960080BC50EF5AF052EF5AF073EF5AF0000E9C
:10B4A600236E010E226E000E206E000E1F6E010E20
:10B4B600216E000E1E6E000E1D6E2450080D040E29
:10B4C600F326000EF422B90EF324F66EBE0EF42017
:10B4D600F76E0800F5CF24F073EF5AF073EF5AF0C9
:10B4E6002204D8A479EF5AF07BEF5AF098EF5AF07D
:10B4F600010E1F241F6E000E2020206E205009E131
:10B506000B0E1F5CD8A08AEF5AF08CEF5AF098EF1A
:10B516005AF0000E206E000E1F6E010E236E000EF6
:10B52600226E98EF5AF098EF5AF0410E1C6EEE0E0E
:10B53600E82EFED71C2EFCD700D0C1EF59F0C1EF84
:10B5460059F000EF00F0000E196E000E1A6E000E94
:10B55600176E000E166E000E1B6E000E186EC5EFEF
:10B566005AF01750080D020EF326000EF422B90EFB
:10B57600F324F66EBE0EF420F76E0800F55017267B
:10B58600C5EF5AF01750245CD8B0CCEF5AF0CEEF86
:10B596005AF0B4EF5AF0D0EF5AF02450080D020ECC
:10B5A600F326000EF422B90EF324F66EBE0EF42036
:10B5B600F76E0800F550000817241A6E17061AC011
:10B5C60016F01A500F6E106A020E0F26000E102289
:10B5D6002450116E126A0F50115C1250800A136EBD
:10B5E6001050800A1358D8A0FBEF5AF0FDEF5AF01E
:10B5F6007BEF5CF024500F6E106AFF0E116EFF0E8B
:10B60600126E1750136E146A11501326125014221C
:10B616000F50135C1450800A156E1050800A15588E
:10B62600D8A018EF5BF01AEF5BF07BEF5CF02450CC
:10B63600FE0F1A6E1A50030F176E1650080DB90E2C
:10B64600F324F66EBE0EF420F76E0900F5CF01F076
:10B656000A00F5CF02F063EC56F001501B6E1B504A
:10B666000F6E106A0F1E101E0F4A102A100E0F249E
:10B67600016E000E1020026E000E046E020E036EA6
:10B68600B3EC57F001501B6E000E056E000E56EC23
:10B6960057F01BC018F066EF5BF054EF5BF054EF09
:10B6A6005BF038EC56F00009D8A45CEF5BF05EEF77
:10B6B6005BF054EF5BF060EF5BF02D0EEFEC55F0B6
:10B6C600180666EF5BF01850D8A46CEF5BF06EEFCF
:10B6D6005BF054EF5BF070EF5BF0000E076E1650F8
:10B6E600080DB90EF324F66EBE0EF420F76E0900AF
:10B6F600F5CF08F00A00F5CF09F0010E0A6E2D0EFF
:10B706000B6E1B50CAEC58F0010E196E1A2A6EEF1A
:10B716005CF06EEF5CF024501A18D8A495EF5BF03D
:10B7260097EF5BF001EF5CF01A50080DB90EF324A9
:10B73600F66EBE0EF420F76E0900F5CF01F00A0092
:10B74600F5CF02F063EC56F001501B6E1B500F6EE6
:10B75600106A0F1E101E0F4A102A100E0F24016EBB
:10B76600000E1020026E000E046E020E036EB3EC85
:10B7760057F001501B6E19C005F0000E56EC57F03D
:10B786001BC018F0DDEF5BF0CBEF5BF0CBEF5BF0AF
:10B7960038EC56F00009D8A4D3EF5BF0D5EF5BF098
:10B7A600CBEF5BF0D7EF5BF03E0EEFEC55F01806F3
:10B7B600DDEF5BF01850D8A4E3EF5BF0E5EF5BF04C
:10B7C600CBEF5BF0E7EF5BF019C007F01A50080DFE
:10B7D600B90EF324F66EBE0EF420F76E0900F5CF0F
:10B7E60008F00A00F5CF09F0010E0A6E3C0E0B6E4A
:10B7F6001B50CAEC58F0192A6BEF5CF01A50080D72
:10B80600B90EF324F66EBE0EF420F76E0900F5CFDE
:10B8160001F00A00F5CF02F063EC56F001501B6E02
:10B826001B500F6E106A0F1E101E0F4A102A100EA4
:10B836000F24016E000E1020026E000E046E020E22
:10B84600036EB3EC57F001501B6E19C005F0000EE5
:10B8560056EC57F01BC018F047EF5CF035EF5CF084
:10B8660035EF5CF038EC56F00009D8A43DEF5CF0FB
:10B876003FEF5CF035EF5CF041EF5CF0200EEFEC53
:10B8860055F0180647EF5CF01850D8A44DEF5CF061
:10B896004FEF5CF035EF5CF051EF5CF019C007F04C
:10B8A6001A50080DB90EF324F66EBE0EF420F76E8C
:10B8B6000900F5CF08F00A00F5CF09F0010E0A6E6F
:10B8C600200E0B6E1B50CAEC58F0192A6BEF5CF079
:10B8D6001A2A6EEF5CF01A50175CD8B075EF5CF060
:10B8E60077EF5CF08EEF5BF05BEF5FF05BEF5FF0A6
:10B8F6001A500F6E106A020E0F26000E10222450E8
:10B90600116E126A0F50115C1250800A136E10509D
:10B91600800A1358D8B092EF5CF094EF5CF0F0EF29
:10B926005DF01A50030F176E1A50080DB90EF32466
:10B93600F66EBE0EF420F76E0900F5CF01F00A0090
:10B94600F5CF02F063EC56F001501B6E1B500F6EE4
:10B95600106A0F1E101E0F4A102A100E0F24016EB9
:10B96600000E1020026E000E046E020E036EB3EC83
:10B9760057F001501B6E000E056E000E56EC57F088
:10B986001BC018F0DDEF5CF0CBEF5CF0CBEF5CF0AA
:10B9960038EC56F00009D8A4D3EF5CF0D5EF5CF094
:10B9A600CBEF5CF0D7EF5CF02D0EEFEC55F0180600
:10B9B600DDEF5CF01850D8A4E3EF5CF0E5EF5CF047
:10B9C600CBEF5CF0E7EF5CF0000E076E1A50080D47
:10B9D600B90EF324F66EBE0EF420F76E0900F5CF0D
:10B9E60008F00A00F5CF09F0010E0A6E2D0E0B6E57
:10B9F6001B50CAEC58F0010E196E1A2AE3EF5DF0DF
:10BA060024501A18D8A40AEF5DF00CEF5DF076EF1B
:10BA16005DF01A50080DB90EF324F66EBE0EF42032
:10BA2600F76E0900F5CF01F00A00F5CF02F063ECDE
:10BA360056F001501B6E1B500F6E106A0F1E101E23
:10BA46000F4A102A100E0F24016E000E1020026EEF
:10BA5600000E046E020E036EB3EC57F001501B6E1F
:10BA660019C005F0000E56EC57F01BC018F052EF47
:10BA76005DF040EF5DF040EF5DF038EC56F0000908
:10BA8600D8A448EF5DF04AEF5DF040EF5DF04CEF73
:10BA96005DF03E0EEFEC55F0180652EF5DF01850D3
:10BAA600D8A458EF5DF05AEF5DF040EF5DF05CEF23
:10BAB6005DF019C007F01A50080DB90EF324F66EA2
:10BAC600BE0EF420F76E0900F5CF08F00A00F5CF98
:10BAD60009F0010E0A6E3C0E0B6E1B50CAEC58F0B4
:10BAE600192AE0EF5DF01A50080DB90EF324F66E30
:10BAF600BE0EF420F76E0900F5CF01F00A00F5CF6F
:10BB060002F063EC56F001501B6E1B500F6E106A6C
:10BB16000F1E101E0F4A102A100E0F24016E000E63
:10BB26001020026E000E046E020E036EB3EC57F088
:10BB360001501B6E19C005F0000E56EC57F01BC0E5
:10BB460018F0BCEF5DF0AAEF5DF0AAEF5DF038ECFF
:10BB560056F00009D8A4B2EF5DF0B4EF5DF0AAEF9D
:10BB66005DF0B6EF5DF0200EEFEC55F01806BCEF79
:10BB76005DF01850D8A4C2EF5DF0C4EF5DF0AAEFF7
:10BB86005DF0C6EF5DF019C007F01A50080DB90E4A
:10BB9600F324F66EBE0EF420F76E0900F5CF08F01A
:10BBA6000A00F5CF09F0010E0A6E200E0B6E1B502F
:10BBB600CAEC58F0192AE0EF5DF01A2AE3EF5DF0BF
:10BBC6001A50175CD8B0EAEF5DF0ECEF5DF003EFCA
:10BBD6005DF05BEF5FF05BEF5FF017502418D8A4C1
:10BBE600F7EF5DF0F9EF5DF05BEF5FF01750FD0FDB
:10BBF6001A6E1650080DB90EF324F66EBE0EF4201A
:10BC0600F76E0900F5CF01F00A00F5CF02F063ECFC
:10BC160056F001501B6E1B500F6E106A0F1E101E41
:10BC26000F4A102A100E0F24016E000E1020026E0D
:10BC3600000E046E020E036EB3EC57F001501B6E3D
:10BC4600000E056E000E56EC57F01BC018F042EFC2
:10BC56005EF030EF5EF030EF5EF038EC56F0000943
:10BC6600D8A438EF5EF03AEF5EF030EF5EF03CEFCE
:10BC76005EF02D0EEFEC55F0180642EF5EF0185010
:10BC8600D8A448EF5EF04AEF5EF030EF5EF04CEF7E
:10BC96005EF0000E076E1650080DB90EF324F66E10
:10BCA600BE0EF420F76E0900F5CF08F00A00F5CFB6
:10BCB60009F0010E0A6E2D0E0B6E1B50CAEC58F0E1
:10BCC600010E196E1A2A4AEF5FF04AEF5FF0245010
:10BCD6001A18D8A471EF5EF073EF5EF0DDEF5EF038
:10BCE6001A50080DB90EF324F66EBE0EF420F76E48
:10BCF6000900F5CF01F00A00F5CF02F063EC56F02B
:10BD060001501B6E1B500F6E106A0F1E101E0F4A3D
:10BD1600102A100E0F24016E000E1020026E000E67
:10BD2600046E020E036EB3EC57F001501B6E19C081
:10BD360005F0000E56EC57F01BC018F0B9EF5EF098
:10BD4600A7EF5EF0A7EF5EF038EC56F00009D8A436
:10BD5600AFEF5EF0B1EF5EF0A7EF5EF0B3EF5EF02F
:10BD66003E0EEFEC55F01806B9EF5EF01850D8A469
:10BD7600BFEF5EF0C1EF5EF0A7EF5EF0C3EF5EF0DF
:10BD860019C007F01A50080DB90EF324F66EBE0E50
:10BD9600F420F76E0900F5CF08F00A00F5CF09F098
:10BDA600010E0A6E3C0E0B6E1B50CAEC58F0192A97
:10BDB60047EF5FF01A50080DB90EF324F66EBE0E6B
:10BDC600F420F76E0900F5CF01F00A00F5CF02F076
:10BDD60063EC56F001501B6E1B500F6E106A0F1E5F
:10BDE600101E0F4A102A100E0F24016E000E10208E
:10BDF600026E000E046E020E036EB3EC57F0015095
:10BE06001B6E19C005F0000E56EC57F01BC018F05B
:10BE160023EF5FF011EF5FF011EF5FF038EC56F0B3
:10BE26000009D8A419EF5FF01BEF5FF011EF5FF088
:10BE36001DEF5FF0200EEFEC55F0180623EF5FF0D4
:10BE46001850D8A429EF5FF02BEF5FF011EF5FF0E9
:10BE56002DEF5FF019C007F01A50080DB90EF32444
:10BE6600F66EBE0EF420F76E0900F5CF08F00A0054
:10BE7600F5CF09F0010E0A6E200E0B6E1B50CAECB0
:10BE860058F0192A47EF5FF01A2A4AEF5FF01A5066
:10BE9600175CD8B051EF5FF053EF5FF06AEF5EF0DA
:10BEA6005BEF5FF05BEF5FF05BEF5FF05BEF5FF028
:10BEB60012000041BF0A0000000000C7BF0A0102CD
:10BEC600010000BFBF0A01030B0000B7BF0A02044E
:10BED600030000AFBF0A0305040000A7BF0A04065B
:10BEE6000500009FBF0A050706000097BF0A06085F
:10BEF6000700008FBF0A0709080000D6BF0A080915
:10BF06000920AC84BF07000000000079BF07010CC0
:10BF16000B00006EBF070B0D0C000063BF070C0E75
:10BF26000D000058BF070D0F0E00004DBF070E1085
:10BF36000F0000CFBF070F100100003C4D61696E76
:10BF4600204D656E753E005375624F7074696F6E55
:10BF560035005375624F7074696F6E3400537562A5
:10BF66004F7074696F6E33005375624F7074696FEA
:10BF76006E32005375624F7074696F6E31003C53B8
:10BF86007562204D656E753E004F7074696F6E3830
:10BF9600004F7074696F6E37004F7074696F6E363C
:10BFA600004F7074696F6E35004F7074696F6E3430
:10BFB600004F7074696F6E33004F7074696F6E3224
:10BFC600004F7074696F6E310052455455524E00E1
:10BFD60053544152540021546869732069732053A5
:10BFE6005041525441210042617369204D616D6197
:09BFF60074610076332E30000066
:020000040020DA
:08000000FFFFFFFFFFFFFFFF00
:020000040030CA
:0E000000FF08191EFF0181FF0FC00FE00F4027
:00000001FF
