:020000040000FA
:04000000B4EF51F018
:10A2480001011E0E29EC51F01200016EC80E00D05B
:10A25800E82EFDD7012E2AEF51F033EF51F012000E
:10A26800929E92889398939A938E939C9284928CC0
:10A27800928A898E8A8C8A881200026E0D0E016E6F
:10A28800FC0EE82EFED7012EFCD7022E42EF51F02D
:10A298004EEF51F0120000F000F000F000F000F076
:10A2A80000F000F000F000F000F000F000F000F026
:10A2B80000F0120062EF51F062EF51F0DBEC51F068
:10A2C8000009D8A46AEF51F06CEF51F062EF51F039
:10A2D8006EEF51F0010E72EC51F01200016EF00EAB
:10A2E8009316F00E811601380F0B0F0B81128B9409
:10A2F8008B904FEC51F08B824FEC51F08B92F00E1B
:10A30800811601500F0B81124FEC51F08B824FECEC
:10A3180051F08B920F0E931292EF51F01200016ED2
:10A32800F00E9316F00E811601380F0B0F0B8112E9
:10A338008B808B944FEC51F08B824FEC51F08B92C9
:10A34800F00E811601500F0B81124FEC51F08B82E9
:10A358004FEC51F08B920F0E9312B3EF51F01200A5
:10A36800A80EF66EA60EF76E000EF86E01EE00F05F
:10A3780010EE9CF00900F5CFEEFFE550E150FAE150
:10A38800480EF66EA20EF76E000EF86E0900F5CFB5
:10A3980030F00900F5CF31F000EE28F0080EEE6A33
:10A3A800E806FDE1000EF86E000120EF56F08B8400
:10A3B8008B904FEC51F08B824FEC51F081A6E7EF78
:10A3C80051F0E9EF51F0F8EF51F08B924FEC51F06A
:10A3D8008B824FEC51F08B928B94010E05EF52F06B
:10A3E80005EF52F005EF52F08B924FEC51F08B8253
:10A3F8004FEC51F08B928B94000E05EF52F005EF65
:10A4080052F0120001C005F002C006F010EF52F041
:10A41800054A062A10EF52F005C0F6FF06C0F7FFFE
:10A428000800F5500009D8A41CEF52F01EEF52F0B6
:10A438000CEF52F020EF52F001C003F002C004F01C
:10A44800031E041E034A042A05500324016E065005
:10A458000420026E30EF52F01200046EF00E9316D4
:10A46800F00E81160450016E026A018E040E036E0E
:10A47800023402320132032E3CEF52F001500F0B2E
:10A4880081128B948B904FEC51F08B824FEC51F0F2
:10A498008B92F00E811604500F0B81124FEC51F085
:10A4A8008B824FEC51F08B920F0E93125CEF52F0AF
:10A4B80012005EEC51F0000E056E000EA2EC53F097
:10A4C800DD0E026EBF0E036EB8EC52F0E7EC52F0F0
:10A4D800010E316E70EF52F084A675EF52F077EFEF
:10A4E80052F082EF52F080B47CEF52F07EEF52F0DF
:10A4F80070EF52F082EF52F082EF52F0E7EC52F038
:10A508005EEC51F088EF52F01200046EF00E9316D4
:10A51800F00E81160450016E026A400E0112000E00
:10A528000212040E036E023402320132032E97EF38
:10A5380052F001500F0B81128B948B904FEC51F01D
:10A548008B824FEC51F08B92F00E811604500F0B5A
:10A5580081124FEC51F08B824FEC51F08B920F0E21
:10A568009312B7EF52F01200D6EF52F0BEEF52F04E
:10A57800BEEF52F0DBEC51F00009D8A4C6EF52F060
:10A58800C8EF52F0BEEF52F0CAEF52F002C0F6FF29
:10A5980003C0F7FF0800F55093EC51F0024A032A74
:10A5A800D6EF52F002C0F6FF03C0F7FF0800F550DF
:10A5B8000009D8A4E2EF52F0E4EF52F0BEEF52F0F7
:10A5C800E6EF52F01200000E036E000E026E03BE9C
:10A5D800F7EF52F0035009E1140E025CD8A0F7EF30
:10A5E80052F0F9EF52F0FDEF52F016EF53F016EF7C
:10A5F80053F0820E016EDE0EE82EFED7012EFCD738
:10A60800024A032A03BE12EF53F0035009E1140E65
:10A61800025CD8A012EF53F014EF53F0FDEF52F0A4
:10A6280016EF53F01200280ED9EC54F01EEF53F039
:10A638001EEF53F0DBEC51F00009D8A426EF53F0DD
:10A6480028EF53F01EEF53F02AEF53F0060E72EC8A
:10A6580051F031EF53F031EF53F0DBEC51F00009DA
:10A66800D8A439EF53F03BEF53F031EF53F03DEFFF
:10A6780053F00C0E72EC51F044EF53F044EF53F0EA
:10A68800DBEC51F00009D8A44CEF53F04EEF53F037
:10A6980044EF53F050EF53F0010E72EC51F01200FA
:10A6A80088BF201A000080BF411A000078BF421AF4
:10A6B800000070BF431A000068BF441A000060BF62
:10A6C800451A000058BF491A000050BF4D1A000033
:10A6D80048BF4E1A000040BF4F1A000038BF501A3A
:10A6E800000030BF521A000028BF531A000020BFD4
:10A6F800541A000018BF551A000010BF591A00005C
:10A7080008BF301A000000BF311A0000F8BE321A24
:10A718000000F0BE331A0000E8BE341A0000E0BEA4
:10A72800351A0000D8BE361A0000D0BE371A00000D
:10A73800C8BE381A0000C0BE391A0000076E000EE5
:10A74800066E130E0764ABEF53F0ADEF53F0B1EFA5
:10A7580053F0000E076EB1EF53F0030E0564B7EF28
:10A7680053F0B9EF53F0D8EF53F0000E056ED8EF61
:10A7780053F0D8EF53F007C006F0EFEF53F007504F
:10A78800400F066EEFEF53F00750140F066EEFEF11
:10A7980053F00750540F066EEFEF53F007C006F062
:10A7A800EFEF53F0EFEF53F00550000AD8B4BFEFC6
:10A7B80053F0010AD8B4C3EF53F0030AD8B4C8EF72
:10A7C80053F0010AD8B4CDEF53F0D2EF53F0EFEFC6
:10A7D80053F0EFEF53F0DBEC51F00009D8A4F7EF9A
:10A7E80053F0F9EF53F0EFEF53F0FBEF53F006504F
:10A7F80031EC52F01200000E0A6E000E0C6E000EC4
:10A808000B6E0750080DF3CF0AF00DEF54F00DEF63
:10A8180054F0DBEC51F00009D8A415EF54F017EF11
:10A8280054F00DEF54F019EF54F00A5089EC52F03F
:10A83800000E0C6E000E0B6E0CBE2CEF54F00C507C
:10A8480009E1080E0B5CD8A02CEF54F02EEF54F061
:10A8580036EF54F062EF54F062EF54F036EF54F0F4
:10A8680036EF54F0DBEC51F00009D8A43EEF54F079
:10A8780040EF54F036EF54F042EF54F00B500524FB
:10A88800086E0C500620096E08C0F6FF09C0F7FFD5
:10A898000800F55093EC51F00B4A0C2A0CBE5EEF01
:10A8A80054F00C5009E1080E0B5CD8A05EEF54F090
:10A8B80060EF54F036EF54F062EF54F01200000EDF
:10A8C800066E04BE6CEF54F06AEF54F074EF54F067
:10A8D800036C041ED8B0042A010E066E74EF54F0FF
:10A8E80002BE7BEF54F079EF54F083EF54F0016C23
:10A8F800021ED8B0022A010E061A83EF54F0000E89
:10A90800086E000E076E03500410D8B48EEF54F092
:10A9180090EF54F0C4EF54F0010E056E9AEF54F026
:10A92800D89003360436052A9AEF54F004AE9FEF08
:10A9380054F0A1EF54F094EF54F0A5EF54F0A5EFC4
:10A9480054F0D890073608360350015C045002587A
:10A95800D8A0B1EF54F0B3EF54F0BAEF54F003506D
:10A96800015E0450025A0780BAEF54F0D8900432BE
:10A978000332052EA5EF54F0C4EF54F0C4EF54F0A1
:10A988000650D8B4CAEF54F0CCEF54F0D2EF54F0DC
:10A99800076C081ED8B0082AD2EF54F007C001F09F
:10A9A80008C002F0D8EF54F01200056EF00E8116C0
:10A9B800F00E93169494949094928B948B908B921F
:10A9C80025EC51F0300E72EC51F0050E41EC51F0CF
:10A9D800300E72EC51F0010E41EC51F0320E72EC77
:10A9E80051F0F9EF54F0F9EF54F0DBEC51F00009B5
:10A9F800D8A401EF55F003EF55F0F9EF54F009EF43
:10AA080055F009EF55F009EF55F0DBEC51F000096E
:10AA1800D8A411EF55F013EF55F009EF55F015EFE5
:10AA280055F0055072EC51F01CEF55F01CEF55F045
:10AA3800DBEC51F00009D8A424EF55F026EF55F0CF
:10AA48001CEF55F028EF55F0080E72EC51F02FEF7F
:10AA580055F02FEF55F0DBEC51F00009D8A437EF93
:10AA680055F039EF55F02FEF55F03BEF55F00F0E3D
:10AA780072EC51F042EF55F042EF55F0DBEC51F03B
:10AA88000009D8A44AEF55F04CEF55F042EF55F0C5
:10AA98004EEF55F0010E72EC51F055EF55F055EFB1
:10AAA80055F0DBEC51F00009D8A45DEF55F05FEFED
:10AAB80055F055EF55F061EF55F0040E72EC51F07A
:10AAC80068EF55F068EF55F0DBEC51F00009D8A4B9
:10AAD80070EF55F072EF55F068EF55F074EF55F0E0
:10AAE800800E31EC52F079EF55F012000E6E000E28
:10AAF8000F6E130E0E6483EF55F085EF55F089EF56
:10AB080055F0000E0E6E89EF55F0030E08648FEFB6
:10AB180055F091EF55F095EF55F0000E086E95EF52
:10AB280055F008C005F00E50A2EC53F009C001F032
:10AB38000AC002F006EC52F001500F6E140E0F64BA
:10AB4800A8EF55F0AAEF55F0AEEF55F0140E0F6EC2
:10AB5800AEEF55F00FC00DF0CFEF55F0B6EF55F052
:10AB6800B6EF55F0DBEC51F00009D8A4BEEF55F074
:10AB7800C0EF55F0B6EF55F0C2EF55F009C0F6FF3B
:10AB88000AC0F7FF0800F55093EC51F0094A0A2A69
:10AB98000D06CFEF55F00D50D8A4D5EF55F0D7EFEF
:10ABA80055F0B6EF55F0D9EF55F00B50D8B4DFEFAC
:10ABB80055F0E1EF55F01FEF56F03D0E0C18D8A4F4
:10ABC800E8EF55F0EAEF55F0F0EF55F0020E93EC90
:10ABD80051F00F2AF0EF55F008C005F00E500F2481
:10ABE800A2EC53F00F500E240008140F0D6E13EF53
:10ABF80056F001EF56F001EF56F0DBEC51F000098A
:10AC0800D8A409EF56F00BEF56F001EF56F00DEF10
:10AC180056F00C5093EC51F00D0613EF56F00D5012
:10AC2800D8A419EF56F01BEF56F001EF56F01FEFBE
:10AC380056F01FEF56F01200760ED36E070EB46E64
:10AC48000F0EC16E010E316E820E276EDE0EE82EDB
:10AC5800FED7272EFCD734EC51F017EC53F0000E3A
:10AC6800056E000EA2EC53F0EE0E026EBF0E036EE0
:10AC7800B8EC52F0020E056E0C0EA2EC53F0FA0E70
:10AC8800026EBF0E036EB8EC52F0E7EC52F0E7EC40
:10AC980052F05EEC51F0000E81BE010E2D6E55EFA4
:10ACA80056F01FEC59F0000E81BE010E2C6E3004D8
:10ACB800D8A461EF56F063EF56F052EF57F084A630
:10ACC80068EF56F06AEF56F073EF56F080B46FEF06
:10ACD80056F071EF56F0C0EF56F073EF56F0000ED5
:10ACE800306E010E2F6E000E2B6E000E2A6E315044
:10ACF800080D060EF326000EF422A10EF324F66EBC
:10AD0800BC0EF420F76E0900F5500900F510D8B410
:10AD180090EF56F092EF56F0AFEF56F03150080D25
:10AD2800060EF326000EF422A10EF324F66EBC0ED6
:10AD3800F420F76E02D8ADEF56F00500FA6E090060
:10AD4800F550FD6E0900F550FE6EF850FF6EFA5092
:10AD58001200AFEF56F03150080D050EF326000E25
:10AD6800F422A10EF324F66EBC0EF420F76E080050
:10AD7800F5CF31F0C0EF56F080BAC5EF56F0C7EF07
:10AD880056F0E0EF56F0000E306E010E2F6E000EFA
:10AD98002B6E000E2A6E3150080D030EF326000E9E
:10ADA800F422A10EF324F66EBC0EF420F76E080010
:10ADB800F5CF31F0E0EF56F080BCE5EF56F0E7EF65
:10ADC80056F000EF57F0000E306E010E2F6E000E99
:10ADD8002B6E000E2A6E3150080D040EF326000E5D
:10ADE800F422A10EF324F66EBC0EF420F76E0800D0
:10ADF800F5CF31F000EF57F02D502C18D8B407EFED
:10AE080057F009EF57F052EF57F080B80EEF57F0B0
:10AE180011EF57F0010E12EF57F0000E276E81BEAA
:10AE280018EF57F01BEF57F0010E1CEF57F0000E0C
:10AE3800271AD8A422EF57F024EF57F035EF57F030
:10AE48003150080D030EF326000EF422A10EF32450
:10AE5800F66EBC0EF420F76E0800F5CF31F046EF21
:10AE680057F03150080D040EF326000EF422A10EFF
:10AE7800F324F66EBC0EF420F76E0800F5CF31F01F
:10AE880046EF57F0000E306E010E2F6E000E2B6E3F
:10AE9800000E2A6E52EF57F052EF57F0000E81BEA7
:10AEA800010E2D6E2F04D8A45CEF57F05EEF57F01B
:10AEB80055EF56F0010E2A242A6E000E2B202B6E19
:10AEC8002B5009E1060E2A5CD8A06DEF57F06FEF02
:10AED80057F055EF56F0000E2B6E000E2A6E010E3D
:10AEE800306E000E2F6E55EF56F055EF56F055EFB9
:10AEF80056F055EF56F000EF00F0196E000E186E80
:10AF0800000E166E000E176E000E156E000E136EF4
:10AF1800130E196492EF57F094EF57F098EF57F02B
:10AF2800000E196E98EF57F0030E0D649EEF57F060
:10AF3800A0EF57F0BFEF57F0000E0D6EBFEF57F0C0
:10AF4800BFEF57F019C015F0D6EF57F01950400F62
:10AF5800156ED6EF57F01950140F156ED6EF57F03F
:10AF68001950540F156ED6EF57F019C015F0D6EFDB
:10AF780057F0D6EF57F00D50000AD8B4A6EF57F0A7
:10AF8800010AD8B4AAEF57F0030AD8B4AFEF57F0C4
:10AF9800010AD8B4B4EF57F0B9EF57F0D6EF57F02D
:10AFA800D6EF57F0DBEC51F00009D8A4DEEF57F0EC
:10AFB800E0EF57F0D6EF57F0E2EF57F0155031ECCD
:10AFC80052F00EC001F00FC002F006EC52F0015032
:10AFD800166E140E1664F3EF57F0F5EF57F0F7EF0F
:10AFE80057F0140E166E000E176E000E136E16C074
:10AFF80014F0D9EF58F0000E186E190E186407EF08
:10B0080058F009EF58F00DEF58F0C7EF58F0C7EFB8
:10B0180058F01850060D020EF326000EF422000E0A
:10B02800F324D96E010EF420DA6EDF50126E0EC0D2
:10B03800F6FF0FC0F7FF0800F5501218D8A427EF45
:10B0480058F029EF58F0BCEF58F064EF58F064EF6F
:10B0580058F031EF58F031EF58F0DBEC51F00009BF
:10B06800D8A439EF58F03BEF58F031EF58F03DEFE6
:10B0780058F01550132431EC52F045EF58F045EFD5
:10B0880058F0DBEC51F00009D8A44DEF58F04FEF21
:10B0980058F045EF58F051EF58F01850060D050ECE
:10B0A800F326000EF422000EF324D96E010EF420CC
:10B0B800DA6EDF5093EC51F0C7EF58F0BCEF58F060
:10B0C8001850060D040EF326000EF422000EF32489
:10B0D800D96E010EF420DA6E010EDF6E1850060DDF
:10B0E800050EF326000EF422000EF324D96E010E8D
:10B0F800F420DA6E17C0DFFF1850060D000EF32497
:10B10800D96E010EF420DA6EDECF05F0DDCF06F041
:10B1180017C007F0FFEC53F094EF58F094EF58F095
:10B12800DBEC51F00009D8A49CEF58F09EEF58F0E2
:10B1380094EF58F0A0EF58F01550132431EC52F06A
:10B14800A8EF58F0A8EF58F0DBEC51F00009D8A4AC
:10B15800B0EF58F0B2EF58F0A8EF58F0B4EF58F04D
:10B16800175093EC51F0172AC7EF58F0BCEF58F07E
:10B17800182A190E1864C3EF58F0C5EF58F00DEFF0
:10B1880058F0C7EF58F0070E1764CDEF58F0CFEF1F
:10B1980058F0D3EF58F0E3EF58F0E3EF58F00E4AC9
:10B1A8000F2A132A1406D9EF58F01450D8A4DFEF49
:10B1B80058F0E1EF58F0FFEF57F0E3EF58F0105078
:10B1C800D8B4E9EF58F0EBEF58F01EEF59F00DC086
:10B1D80005F019501624126E1228A2EC53F01650DE
:10B1E8001924126E12280008140F146E12EF59F069
:10B1F80000EF59F000EF59F0DBEC51F00009D8A44A
:10B2080008EF59F00AEF59F000EF59F00CEF59F038
:10B21800115093EC51F0140612EF59F01450D8A4C1
:10B2280018EF59F01AEF59F000EF59F01EEF59F0E6
:10B238001EEF59F01200000E246E000E256E000E4F
:10B24800226E000E216E000E266E000E236E3EEF5B
:10B2580059F02250080D020EF326000EF422A10E1A
:10B26800F324F66EBC0EF420F76E0800F550222683
:10B278003EEF59F02250315CD8B045EF59F047EF16
:10B2880059F02DEF59F049EF59F03150080D020EE1
:10B29800F326000EF422A10EF324F66EBC0EF42061
:10B2A800F76E0800F55000082224256E220625C0F6
:10B2B80021F025501A6E1B6A020E1A26000E1B2258
:10B2C80031501C6E1D6A1A501C5C1D50800A1E6E7F
:10B2D8001B50800A1E58D8A074EF59F076EF59F029
:10B2E8001DEF5BF031501A6E1B6AFF0E1C6EFF0ECD
:10B2F8001D6E22501E6E1F6A1C501E261D501F22D6
:10B308001A501E5C1F50800A206E1B50800A20585D
:10B31800D8A091EF59F093EF59F01DEF5BF0315041
:10B32800FE0F256E2550030F226E2150080DA10E29
:10B33800F324F66EBC0EF420F76E0900F5CF01F089
:10B348000A00F5CF02F006EC52F00150266E2650A6
:10B358001A6E1B6A1A1E1B1E1A4A1B2A140E1A245E
:10B36800016E000E1B20026E000E046E020E036EAC
:10B3780063EC54F00150266E000E056E000EA2EC30
:10B3880053F026C023F0DFEF59F0CDEF59F0CDEFA1
:10B3980059F0DBEC51F00009D8A4D5EF59F0D7EFFC
:10B3A80059F0CDEF59F0D9EF59F02D0E93EC51F03B
:10B3B8002306DFEF59F02350D8A4E5EF59F0E7EF63
:10B3C80059F0CDEF59F0E9EF59F0000E086E215011
:10B3D800080DA10EF324F66EBC0EF420F76E0900DA
:10B3E800F5CF09F00A00F5CF0AF0010E0B6E2D0E0D
:10B3F8000C6E26507AEC55F0010E246E252A10EFBB
:10B408005BF010EF5BF031502518D8A40EEF5AF01E
:10B4180010EF5AF0A3EF5AF02550080DA10EF324AF
:10B42800F66EBC0EF420F76E0900F5CF01F00A00A5
:10B43800F5CF02F006EC52F00150266E26501A6E37
:10B448001B6A020E1A26000E1B221A1E1B1E1A4AFF
:10B458001B2A140E1A24016E000E1B20026E000E09
:10B46800046E020E036E63EC54F00150266E24C085
:10B4780005F02650A2EC53F03C0E93EC51F024C09A
:10B4880005F0000EA2EC53F026C023F062EF5AF04C
:10B4980050EF5AF050EF5AF0DBEC51F00009D8A405
:10B4A80058EF5AF05AEF5AF050EF5AF05CEF5AF052
:10B4B800200E93EC51F0230662EF5AF02350D8A4E3
:10B4C80068EF5AF06AEF5AF050EF5AF06CEF5AF002
:10B4D80024C00DF02550080DA10EF324F66EBC0E05
:10B4E800F420F76E0900F5CF0EF00A00F5CF0FF043
:10B4F800010E106E200E116E262881EC57F0255093
:10B50800080DA10EF324F66EBC0EF420F76E0900A8
:10B51800F5CF01F00A00F5CF02F006EC52F0015029
:10B5280026241A6E1A28266E24C005F02650A2EC8E
:10B5380053F03E0E93EC51F0242A0DEF5BF02550AA
:10B54800080DA10EF324F66EBC0EF420F76E090068
:10B55800F5CF01F00A00F5CF02F006EC52F00150E9
:10B56800266E26501A6E1B6A1A1E1B1E1A4A1B2AA2
:10B57800140E1A24016E000E1B20026E000E046EBB
:10B58800020E036E63EC54F00150266E24C005F0E1
:10B59800000EA2EC53F026C023F0E9EF5AF0D7EFE3
:10B5A8005AF0D7EF5AF0DBEC51F00009D8A4DFEFDE
:10B5B8005AF0E1EF5AF0D7EF5AF0E3EF5AF0200EC5
:10B5C80093EC51F02306E9EF5AF02350D8A4EFEF9B
:10B5D8005AF0F1EF5AF0D7EF5AF0F3EF5AF024C0CF
:10B5E80008F02550080DA10EF324F66EBC0EF420C9
:10B5F800F76E0900F5CF09F00A00F5CF0AF0010E41
:10B608000B6E200E0C6E26507AEC55F0242A0DEFA6
:10B618005BF0252A10EF5BF02550225CD8B017EFBD
:10B628005BF019EF5BF007EF5AF04FEF5EF04FEF6A
:10B638005EF025501A6E1B6A020E1A26000E1B2297
:10B6480031501C6E1D6A1A501C5C1D50800A1E6EFB
:10B658001B50800A1E58D8B034EF5BF036EF5BF011
:10B66800BBEF5CF02550030F226E2550080DA10E8C
:10B67800F324F66EBC0EF420F76E0900F5CF01F046
:10B688000A00F5CF02F006EC52F00150266E265063
:10B698001A6E1B6A1A1E1B1E1A4A1B2A140E1A241B
:10B6A800016E000E1B20026E000E046E020E036E69
:10B6B80063EC54F00150266E000E056E000EA2ECED
:10B6C80053F026C023F07FEF5BF06DEF5BF06DEF7A
:10B6D8005BF0DBEC51F00009D8A475EF5BF077EF75
:10B6E8005BF06DEF5BF079EF5BF02D0E93EC51F0B2
:10B6F80023067FEF5BF02350D8A485EF5BF087EF3C
:10B708005BF06DEF5BF089EF5BF0000E086E255083
:10B71800080DA10EF324F66EBC0EF420F76E090096
:10B72800F5CF09F00A00F5CF0AF0010E0B6E2D0EC9
:10B738000C6E26507AEC55F0010E246E252AAEEFD9
:10B748005CF031502518D8A4ACEF5BF0AEEF5BF09D
:10B7580041EF5CF02550080DA10EF324F66EBC0EE7
:10B76800F420F76E0900F5CF01F00A00F5CF02F0DA
:10B7780006EC52F00150266E26501A6E1B6A020E15
:10B788001A26000E1B221A1E1B1E1A4A1B2A140EEA
:10B798001A24016E000E1B20026E000E046E020EAB
:10B7A800036E63EC54F00150266E24C005F0265059
:10B7B800A2EC53F03C0E93EC51F024C005F0000EBF
:10B7C800A2EC53F026C023F000EF5CF0EEEF5BF044
:10B7D800EEEF5BF0DBEC51F00009D8A4F6EF5BF07C
:10B7E800F8EF5BF0EEEF5BF0FAEF5BF0200E93EC16
:10B7F80051F0230600EF5CF02350D8A406EF5CF06C
:10B8080008EF5CF0EEEF5BF00AEF5CF024C00DF09F
:10B818002550080DA10EF324F66EBC0EF420F76E29
:10B828000900F5CF0EF00A00F5CF0FF0010E106EEB
:10B83800200E116E262881EC57F02550080DA10E18
:10B84800F324F66EBC0EF420F76E0900F5CF01F074
:10B858000A00F5CF02F006EC52F0015026241A6EC9
:10B868001A28266E24C005F02650A2EC53F03E0E8E
:10B8780093EC51F0242AABEF5CF02550080DA10E93
:10B88800F324F66EBC0EF420F76E0900F5CF01F034
:10B898000A00F5CF02F006EC52F00150266E265051
:10B8A8001A6E1B6A1A1E1B1E1A4A1B2A140E1A2409
:10B8B800016E000E1B20026E000E046E020E036E57
:10B8C80063EC54F00150266E24C005F0000EA2EC83
:10B8D80053F026C023F087EF5CF075EF5CF075EF4E
:10B8E8005CF0DBEC51F00009D8A47DEF5CF07FEF51
:10B8F8005CF075EF5CF081EF5CF0200E93EC51F09A
:10B90800230687EF5CF02350D8A48DEF5CF08FEF0F
:10B918005CF075EF5CF091EF5CF024C008F0255006
:10B92800080DA10EF324F66EBC0EF420F76E090084
:10B93800F5CF09F00A00F5CF0AF0010E0B6E200EC4
:10B948000C6E26507AEC55F0242AABEF5CF0252AD1
:10B95800AEEF5CF02550225CD8B0B5EF5CF0B7EFE5
:10B968005CF0A5EF5BF04FEF5EF04FEF5EF022501A
:10B978003118D8A4C2EF5CF0C4EF5CF04FEF5EF072
:10B988002250FD0F256E2150080DA10EF324F66EEE
:10B99800BC0EF420F76E0900F5CF01F00A00F5CFD0
:10B9A80002F006EC52F00150266E26501A6E1B6A01
:10B9B8001A1E1B1E1A4A1B2A140E1A24016E000E88
:10B9C8001B20026E000E046E020E036E63EC54F030
:10B9D8000150266E000E056E000EA2EC53F026C034
:10B9E80023F00DEF5DF0FBEF5CF0FBEF5CF0DBECC0
:10B9F80051F00009D8A403EF5DF005EF5DF0FBEF0F
:10BA08005CF007EF5DF02D0E93EC51F023060DEF7F
:10BA18005DF02350D8A413EF5DF015EF5DF0FBEF58
:10BA28005CF017EF5DF0000E086E2150080DA10EB6
:10BA3800F324F66EBC0EF420F76E0900F5CF09F07A
:10BA48000A00F5CF0AF0010E0B6E2D0E0C6E265073
:10BA58007AEC55F0010E246E252A3EEF5EF03EEF9B
:10BA68005EF031502518D8A43CEF5DF03EEF5DF054
:10BA7800D1EF5DF02550080DA10EF324F66EBC0E33
:10BA8800F420F76E0900F5CF01F00A00F5CF02F0B7
:10BA980006EC52F00150266E26501A6E1B6A020EF2
:10BAA8001A26000E1B221A1E1B1E1A4A1B2A140EC7
:10BAB8001A24016E000E1B20026E000E046E020E88
:10BAC800036E63EC54F00150266E24C005F0265036
:10BAD800A2EC53F03C0E93EC51F024C005F0000E9C
:10BAE800A2EC53F026C023F090EF5DF07EEF5DF0FE
:10BAF8007EEF5DF0DBEC51F00009D8A486EF5DF035
:10BB080088EF5DF07EEF5DF08AEF5DF0200E93EC3C
:10BB180051F0230690EF5DF02350D8A496EF5DF026
:10BB280098EF5DF07EEF5DF09AEF5DF024C00DF0C8
:10BB38002550080DA10EF324F66EBC0EF420F76E06
:10BB48000900F5CF0EF00A00F5CF0FF0010E106EC8
:10BB5800200E116E262881EC57F02550080DA10EF5
:10BB6800F324F66EBC0EF420F76E0900F5CF01F051
:10BB78000A00F5CF02F006EC52F0015026241A6EA6
:10BB88001A28266E24C005F02650A2EC53F03E0E6B
:10BB980093EC51F0242A3BEF5EF02550080DA10EDE
:10BBA800F324F66EBC0EF420F76E0900F5CF01F011
:10BBB8000A00F5CF02F006EC52F00150266E26502E
:10BBC8001A6E1B6A1A1E1B1E1A4A1B2A140E1A24E6
:10BBD800016E000E1B20026E000E046E020E036E34
:10BBE80063EC54F00150266E24C005F0000EA2EC60
:10BBF80053F026C023F017EF5EF005EF5EF005EF77
:10BC08005EF0DBEC51F00009D8A40DEF5EF00FEF09
:10BC18005EF005EF5EF011EF5EF0200E93EC51F050
:10BC2800230617EF5EF02350D8A41DEF5EF01FEF38
:10BC38005EF005EF5EF021EF5EF024C008F02550BD
:10BC4800080DA10EF324F66EBC0EF420F76E090061
:10BC5800F5CF09F00A00F5CF0AF0010E0B6E200EA1
:10BC68000C6E26507AEC55F0242A3BEF5EF0252A1C
:10BC78003EEF5EF02550225CD8B045EF5EF047EF0E
:10BC88005EF035EF5DF04FEF5EF04FEF5EF04FEF97
:10BC98005EF04FEF5EF01200007CBE0A000000006C
:10BCA80000C8BF0A0102010000C0BF0A01030B005F
:10BCB80000B8BF0A0204030000B0BF0A030504006D
:10BCC80000A8BF0A0406050000A0BF0A0507060071
:10BCD8000098BF0A060807000090BF0A0709080075
:10BCE80000D7BF0A080909BAA488BE0700000000E7
:10BCF80000B7BE07010C0B0000AEBE070B0D0C0011
:10BD080000A5BE070C0E0D00009CBE070D0F0E000F
:10BD18000093BE070E100F0000D0BF070F100100E0
:10BD2800001F0204081F001F1F110A040A11001F28
:10BD38001F111115151B001F1F1111110A04001FD7
:10BD48001F080808080F001F1F090A0C0A09001F0E
:10BD58001F070202120C001F1F11111F1111001FD3
:10BD68001F0E1013110E001F1F1F101E1010001F92
:10BD78001F0E1B1B0F031B0E0E1B1B0E1B1B0E1F68
:10BD880003060C0C0C0C0E1B181E1B1B0E1F181E7A
:10BD980003031B0E03070F1B1F03030E1B030E03D6
:10BDA8001B0E0E1B03060C181F02060E06060606BF
:10BDB8000E1B1B1B1B1B0E1F13020408191F1B1B2A
:10BDC8001B1B0E040E1B1B0A040A1B1B1B1B1B1B25
:10BDD8001F1B111B1B1B1B1B0E041B1B1B1B1B1BD5
:10BDE8000E1F1F150404040E0E1B180E031B0E1E37
:10BDF8001B1B1E1C1A1B1E1B1B1E1818180E1B1B98
:10BE08001B1B1B0E191D1F1B191919111B1F1B1B8F
:10BE18001B1B18181818181B1F191A1C1E1B1B1B74
:10BE28000F060606161E0E0F06060606060F1B1B35
:10BE38001B1F1B1B1B0E1B181B1B190F1F18181E63
:10BE48001818181F18181E18181F1E1B1B1B1B1B41
:10BE58001E0E1B1818181B0E1E1B1B1E1B1B1E0E4E
:10BE68001B1B1F1B1B1B18181E1F1E181803030F54
:10BE78001F0F03033C4D41494E204D454E553E0092
:10BE88003C535542204D454E553E004F5054494F66
:10BE98004E3235004F5054494F4E3234004F5054B3
:10BEA800494F4E3233004F5054494F4E3232004FB3
:10BEB8005054494F4E3231000E0A0E020E001F1F19
:10BEC8000E0A0E0A0E001F1F0F01020404001F1F96
:10BED8000E080E0A0E001F1F0E080E020E001F1F6E
:10BEE8000A0A0E0202001F1F0E0206020E001F1F82
:10BEF800060902040F001F1F040C04040E001F1F74
:10BF08000E0A0A0A0E001F1F11110E0404001F1F3B
:10BF1800111111110E001F1F1F04040404001F1F1C
:10BF28000F100E011E001F1F1E111E1412001F1FCE
:10BF38001E11111E10001F1F0E1111110E001F1FC0
:10BF48001119151311001F1F111B151111001F1FA7
:10BF58000E0404040E001F1F1F101E101F001F1FB9
:10BF68001E1111111E001F1F0E1110110E001F1F90
:10BF78001E111E111E001F1F0E111F1111001F1F61
:10BF88000000000000001F1F4F5054494F4E38005A
:10BF98004F5054494F4E37004F5054494F4E36007A
:10BFA8004F5054494F4E35004F5054494F4E34006E
:10BFB8004F5054494F4E33004F5054494F4E320062
:10BFC8004F5054494F4E310052455455524E00532C
:10BFD80054415254002154686973206973205350A6
:10BFE80041525441210042617369204D616D617471
:08BFF800610076332E300000D9
:020000040020DA
:08000000FFFFFFFFFFFFFFFF00
:020000040030CA
:0E000000FF08191EFF0181FF0FC00FE00F4027
:00000001FF
