:040000006EEF09F0A6
:10100000004C4344206F6E20504F52544320262002
:0F101000420042617369204D616D61746100009F
:10102000056EF00E8116F00E9316949C9490949297
:101030008B9C8B908B9275EC09F0300EE2EC08F0F3
:10104000050E5BEC09F0300EE2EC08F0010E5BECF3
:1010500009F0320EE2EC08F001EC09F00009D8A426
:10106000FBD701EC09F00009D8A4FBD70550E2EC4E
:1010700008F001EC09F00009D8A4FBD7080EE2EC57
:1010800008F001EC09F00009D8A4FBD70F0EE2EC40
:1010900008F001EC09F00009D8A4FBD7010EE2EC3E
:1010A00008F001EC09F00009D8A4FBD7040EE2EC2B
:1010B00008F001EC09F00009D8A4FBD7800E9AECE7
:1010C00008F012009298760ED36E898838EC09F0F9
:1010D000120E026E100E036E1EEC09F0400E9AEC1A
:1010E00008F0010E026E100E036E1EEC09F089A8C6
:1010F00002D0010E01D0000EFF0A066E063A89509A
:101100000618EF0B0618896E000E086E000E076EAB
:1011100008BE06D00850EBE1140E075CD8B0E7D744
:10112000820E066EDE0EE82EFED7062EFCD7074A8C
:10113000082AEED7046EF00E9316F00E81160450B6
:10114000016E026A018E040E036E02340232013215
:10115000032EFBD701500F0B81128B9C8B904CEC14
:1011600009F08B824CEC09F08B92F00E8116045042
:101170000F0B81124CEC09F08B824CEC09F08B9236
:101180000F0E93121200016EF00E9316F00E8116E0
:1011900001380F0B0F0B81128B808B9C4CEC09F0EC
:1011A0008B824CEC09F08B92F00E811601500F0BE4
:1011B00081124CEC09F08B824CEC09F08B920F0EF3
:1011C00093121200016EF00E9316F00E8116013884
:1011D0000F0B0F0B81128B9C8B904CEC09F08B82C8
:1011E0004CEC09F08B92F00E811601500F0B81121E
:1011F0004CEC09F08B824CEC09F08B920F0E9312A1
:1012000012008B8C8B904CEC09F08B824CEC09F02B
:1012100081A60AD08B924CEC09F08B824CEC09F041
:101220008B928B9C010E12008B924CEC09F08B82FE
:101230004CEC09F08B928B9C000E12000FD001EC4D
:1012400009F00009D8A4FBD702C0F6FF03C0F7FFDE
:101250000800F550C3EC08F0024A032A02C0F6FF6A
:1012600003C0F7FF0800F5500009D8B41200E7D713
:10127000280E10EC08F001EC09F00009D8A4FBD707
:10128000060EE2EC08F001EC09F00009D8A4FBD747
:101290000C0EE2EC08F0120000F000F000F000F09C
:1012A00000F000F000F000F000F000F000F000F0BE
:1012B00000F000F01200026E0D0E016EFC0EE82E22
:1012C000FED7012EFCD7022EF7D71200016EC80EF2
:1012D00000D0E82EFDD7012EFAD71200000EF86ECE
:1012E000100EF76E000162EF08F01E0E66EC09F0BA
:0212F0001200EA
:020000040020DA
:08000000FFFFFFFFFFFFFFFF00
:020000040030CA
:0E000000FF09191EFF0080FF0FC00FE00F4028
:00000001FF
