:04000000F8EF5AF0CB
:10B55C000101928C928A12001E0EB6EC5AF0120067
:10B56C00016EC80E00D0E82EFDD7012EFAD71200BE
:10B57C005DEC5BF00009D8A4FBD7010E7AEC5BF014
:10B58C001200026E0D0E016EFC0EE82EFED7012E7F
:10B59C00FCD7022EF7D7120000F000F000F000F0FC
:10B5AC0000F000F000F000F000F000F000F000F00F
:10B5BC0000F000F01200000E036E000E026E03BECF
:10B5CC0006D003500EE1140E025CD8B01200820EAD
:10B5DC00016EDE0EE82EFED7012EFCD7024A032A9E
:10B5EC00EED712005C0EF66EB50EF76E000EF86E0E
:10B5FC000900F5CF21F00900F5CF22F0206A1F6A6F
:10B60C001E6A1D6A1C6A1B6A000EF86E0001F0EFC0
:10B61C005CF0BEEC5AF0DD0E026EBF0E036E27EC32
:10B62C005BF0E1EC5AF0010E226E84B6FED7820E6E
:10B63C00046EDE0EE82EFED7042EFCD7E1EC5AF099
:10B64C0012000FD05DEC5BF00009D8A4FBD702C050
:10B65C00F6FF03C0F7FF0800F55099EC5BF0024AC7
:10B66C00032A02C0F6FF03C0F7FF0800F5500009DB
:10B67C00D8B41200E7D7280E32EC5CF05DEC5BF02E
:10B68C000009D8A4FBD7060E7AEC5BF05DEC5BF0FE
:10B69C000009D8A4FBD70C0E7AEC5BF05DEC5BF0E8
:10B6AC000009D8A4FBD7010E7AEC5BF012008B8456
:10B6BC008B90D2EC5AF08B82D2EC5AF081A60AD045
:10B6CC008B92D2EC5AF08B82D2EC5AF08B928B94F8
:10B6DC00010E12008B92D2EC5AF08B82D2EC5AF003
:10B6EC008B928B94000E1200016EF00E9316F00EDE
:10B6FC00811601380F0B0F0B81128B948B90D2ECAF
:10B70C005AF08B82D2EC5AF08B92F00E81160150CB
:10B71C000F0B8112D2EC5AF08B82D2EC5AF08B9236
:10B72C000F0E93121200016EF00E9316F00E81168E
:10B73C0001380F0B0F0B81128B808B94D2EC5AF0CB
:10B74C008B82D2EC5AF08B92F00E811601500F0BBB
:10B75C008112D2EC5AF08B82D2EC5AF08B920F0EF3
:10B76C009312120001C005F002C006F002D0054A87
:10B77C00062A05C0F6FF06C0F7FF0800F5500009C1
:10B78C00D8A4F5D701C003F002C004F0031E041EB8
:10B79C00034A042A05500324016E06500420026E4D
:10B7AC001200046EF00E9316F00E81160450016E0A
:10B7BC00026A018E040E036E023402320132032E31
:10B7CC00FBD701500F0B81128B948B90D2EC5AF05B
:10B7DC008B82D2EC5AF08B92F00E811604500F0B28
:10B7EC008112D2EC5AF08B82D2EC5AF08B920F0E63
:10B7FC0093121200076E000E066E0F0E076402D035
:10B80C00000E076E030E056410D0000E056E0DD0F1
:10B81C000750400F05D00750100F02D00750500FA3
:10B82C00066E11D007C006F00ED00550000AD8B431
:10B83C00F9D7010AD8B4ECD7030AD8B4ECD7010A6B
:10B84C00D8B4ECD7EFD75DEC5BF00009D8A4FBD7EC
:10B85C000650D7EC5BF01200056EF00E8116F00E60
:10B86C0093169494949094928B948B908B92B2ECBC
:10B87C005AF0300E7AEC5BF0050EC7EC5AF0300E35
:10B88C007AEC5BF0010EC7EC5AF0320E7AEC5BF0FE
:10B89C005DEC5BF00009D8A4FBD75DEC5BF0000914
:10B8AC00D8A4FBD705507AEC5BF05DEC5BF000099B
:10B8BC00D8A4FBD7080E7AEC5BF05DEC5BF00009CA
:10B8CC00D8A4FBD70F0E7AEC5BF05DEC5BF00009B3
:10B8DC00D8A4FBD7010E7AEC5BF05DEC5BF00009B1
:10B8EC00D8A4FBD7040E7AEC5BF05DEC5BF000099E
:10B8FC00D8A4FBD7800ED7EC5BF012000E6E000EB6
:10B90C000D6E0F0E0E6402D0000E0E6E030E076449
:10B91C0012D0000E076E0FD00EC00DF01AD00E50C4
:10B92C00400F07D00E50100F04D00E50500F01D006
:10B93C00000E0D6E0ED00750000AD8B4EDD7010AD8
:10B94C00D8B4EDD7030AD8B4EDD7010AD8B4EDD7E3
:10B95C00EFD75DEC5BF00009D8A4FBD70D50D7EC0A
:10B96C005BF008C001F009C002F0B8EC5BF00150CC
:10B97C000D6E100E0D6402D0100E0D6E0DC00CF07D
:10B98C0010D05DEC5BF00009D8A4FBD708C0F6FF23
:10B99C0009C0F7FF0800F55099EC5BF0084A092A3A
:10B9AC000C060C50D8A4EDD70A50D8B412000D5088
:10B9BC000E240008100F0C6E09D05DEC5BF0000932
:10B9CC00D8A4FBD70B5099EC5BF00C060C50D8B4F8
:10B9DC001200F3D7760ED36E070EB46E0F0EC16E37
:10B9EC00010E226EAFEC5AF041EC5BF0000E056ECE
:10B9FC00000E00EC5CF0EE0E026EBF0E036E27EC38
:10BA0C005BF0020E056E0C0E00EC5CF0FA0E026E92
:10BA1C00BF0E036E27EC5BF0E1EC5AF0E1EC5AF050
:10BA2C00BEEC5AF0C6EC5DF02104D8A489D084B6E3
:10BA3C0049D0000E216E010E206E000E1E6E000EFF
:10BA4C001D6E010E1F6E000E1C6E000E1B6E225022
:10BA5C00080D060EF326000EF422A50EF324F66E46
:10BA6C00BE0EF420F76E0900F5500900F510D8B49D
:10BA7C001AD02250080D060EF326000EF422A50E45
:10BA8C00F324F66EBE0EF420F76E01D80CD0050030
:10BA9C00FA6E0900F550FD6E0900F550FE6EF85077
:10BAAC00FF6EFA5012002250080D050EF326000E00
:10BABC00F422A50EF324F66EBE0EF420F76E0800E9
:10BACC00F5CF22F080BA1DD0000E216E010E206E33
:10BADC00000E1E6E000E1D6E010E1F6E000E1C6EF3
:10BAEC00000E1B6E2250080D030EF326000EF422DE
:10BAFC00A50EF324F66EBE0EF420F76E0800F5CFFB
:10BB0C0022F080BC1DD0000E216E010E206E000EA6
:10BB1C001E6E000E1D6E010E1F6E000E1C6E000EB2
:10BB2C001B6E2250080D040EF326000EF422A50EF7
:10BB3C00F324F66EBE0EF420F76E0800F5CF22F05B
:10BB4C002004D8A414D0010E1D241D6E000E1E203E
:10BB5C001E6E1E5004E10B0E1D5CD8A008D0000E0A
:10BB6C001E6E000E1D6E010E216E000E206E410E1B
:10BB7C001A6EEE0EE82EFED71A2EFCD700D052D736
:10BB8C00000E176E000E196E000E186E000E166E5B
:10BB9C000FD01850080D020EF326000EF422A50E3D
:10BBAC00F324F66EBE0EF420F76E0800F55018263E
:10BBBC001850225CD8B0EDD72250080D020EF32697
:10BBCC00000EF422A50EF324F66EBE0EF420F76ED2
:10BBDC000800F55000081824196E180619C016F044
:10BBEC0019500F6E106A020E0F26000E10222250F2
:10BBFC00116E126A0F50115C1250800A136E1050A5
:10BC0C00800A1358D8A07FD022500F6E106AFF0EF6
:10BC1C00116EFF0E126E1850136E146A115013260B
:10BC2C00125014220F50135C1450800A156E1050D1
:10BC3C00800A1558D8A067D02250FE0F196E1950E3
:10BC4C00030F186E000E076E1650080DA50EF32488
:10BC5C00F66EBE0EF420F76E0900F5CF08F00A0060
:10BC6C00F5CF09F0010E0A6E200E0B6E000E84EC5F
:10BC7C005CF0010E176E34D022501918D8A418D0CD
:10BC8C0017C007F01950080DA50EF324F66EBE0E62
:10BC9C00F420F76E0900F5CF08F00A00F5CF09F093
:10BCAC00010E0A6E3C0E0B6E000E84EC5CF017D08D
:10BCBC0017C007F01950080DA50EF324F66EBE0E32
:10BCCC00F420F76E0900F5CF08F00A00F5CF09F063
:10BCDC00010E0A6E200E0B6E000E84EC5CF0172A1F
:10BCEC00192A1950185CD8B0C7D7020E056E000E71
:10BCFC0000EC5CF05DEC5BF00009D8A4FBD73E0EC9
:10BD0C0099EC5BF0120019500F6E106A020E0F26A0
:10BD1C00000E10222250116E126A0F50115C12503C
:10BD2C00800A136E1050800A1358D8B04DD0195099
:10BD3C00030F186E35D022501918D8A418D017C07C
:10BD4C0007F01950080DA50EF324F66EBE0EF42064
:10BD5C00F76E0900F5CF08F00A00F5CF09F0010ED7
:10BD6C000A6E3C0E0B6E000E84EC5CF017D017C004
:10BD7C0007F01950080DA50EF324F66EBE0EF42034
:10BD8C00F76E0900F5CF08F00A00F5CF09F0010EA7
:10BD9C000A6E200E0B6E000E84EC5CF0172A192A2A
:10BDAC001950185CD8B0C7D7165000082224056E5D
:10BDBC00000E00EC5CF05DEC5BF00009D8A4FBD746
:10BDCC003E0E99EC5BF0120018502218D8A4120009
:10BDDC001850FD0F196E000E076E1650080DA50EAB
:10BDEC00F324F66EBE0EF420F76E0900F5CF08F0C2
:10BDFC000A00F5CF09F0010E0A6E200E0B6E000E34
:10BE0C0084EC5CF0010E176E34D022501918D8A4B3
:10BE1C0018D017C007F01950080DA50EF324F66EB4
:10BE2C00BE0EF420F76E0900F5CF08F00A00F5CF2E
:10BE3C0009F0010E0A6E3C0E0B6E000E84EC5CF0E9
:10BE4C0017D017C007F01950080DA50EF324F66E85
:10BE5C00BE0EF420F76E0900F5CF08F00A00F5CFFE
:10BE6C0009F0010E0A6E200E0B6E000E84EC5CF0D5
:10BE7C00172A192A1950185CD8B0C7D7030E056EAB
:10BE8C00000E00EC5CF05DEC5BF00009D8A4FBD775
:10BE9C003E0E99EC5BF01200002DBF0A0000000072
:10BEAC0000C5BF0A0102010000BCBF0A01030B0060
:10BEBC0000B3BF0A0204030000AABF0A0305040072
:10BECC0000A1BF0A040605000098BF0A050706007A
:10BEDC00008FBF0A060807000086BF0A0709080082
:10BEEC0000D6BF0A0809091EB67ABF070000000079
:10BEFC00006EBF07010C0B000062BF070B0D0C009E
:10BF0C000056BF070C0E0D00004ABF070D0F0E00A8
:10BF1C00003EBF070E100F0000CEBF070F10010030
:10BF2C00002D2D204D61696E20204D656E75202DE4
:10BF3C002D00205375624F7074696F6E350020535D
:10BF4C0075624F7074696F6E3400205375624F7058
:10BF5C0074696F6E3300205375624F7074696F6E25
:10BF6C003200205375624F7074696F6E3100205B24
:10BF7C00537562204D656E755D00204F7074696F4E
:10BF8C006E3800204F7074696F6E3700204F7074DC
:10BF9C00696F6E3600204F7074696F6E3500204FDC
:10BFAC007074696F6E3400204F7074696F6E33005B
:10BFBC00204F7074696F6E3200204F7074696F6E11
:10BFCC0031002052455455524E0020535441525486
:10BFDC0000215468697320697320535041525441B5
:10BFEC00210042617369204D616D6174610076338B
:04BFFC002E300000E3
:020000040020DA
:08000000FFFFFFFFFFFFFFFF00
:020000040030CA
:0E000000FF08191EFF0181FF0FC00FE00F4027
:00000001FF
